{
  "_format": "hh-sol-artifact-1",
  "contractName": "BlobStars",
  "sourceName": "contracts/BlobStars.sol",
  "abi": [
    {
      "inputs": [
        {
          "internalType": "string",
          "name": "_name",
          "type": "string"
        },
        {
          "internalType": "string",
          "name": "_symbol",
          "type": "string"
        },
        {
          "internalType": "string",
          "name": "_initBaseURI",
          "type": "string"
        }
      ],
      "stateMutability": "nonpayable",
      "type": "constructor"
    },
    {
      "anonymous": false,
      "inputs": [
        {
          "indexed": true,
          "internalType": "address",
          "name": "owner",
          "type": "address"
        },
        {
          "indexed": true,
          "internalType": "address",
          "name": "approved",
          "type": "address"
        },
        {
          "indexed": true,
          "internalType": "uint256",
          "name": "tokenId",
          "type": "uint256"
        }
      ],
      "name": "Approval",
      "type": "event"
    },
    {
      "anonymous": false,
      "inputs": [
        {
          "indexed": true,
          "internalType": "address",
          "name": "owner",
          "type": "address"
        },
        {
          "indexed": true,
          "internalType": "address",
          "name": "operator",
          "type": "address"
        },
        {
          "indexed": false,
          "internalType": "bool",
          "name": "approved",
          "type": "bool"
        }
      ],
      "name": "ApprovalForAll",
      "type": "event"
    },
    {
      "anonymous": false,
      "inputs": [
        {
          "indexed": true,
          "internalType": "address",
          "name": "previousOwner",
          "type": "address"
        },
        {
          "indexed": true,
          "internalType": "address",
          "name": "newOwner",
          "type": "address"
        }
      ],
      "name": "OwnershipTransferred",
      "type": "event"
    },
    {
      "anonymous": false,
      "inputs": [
        {
          "indexed": true,
          "internalType": "address",
          "name": "from",
          "type": "address"
        },
        {
          "indexed": true,
          "internalType": "address",
          "name": "to",
          "type": "address"
        },
        {
          "indexed": true,
          "internalType": "uint256",
          "name": "tokenId",
          "type": "uint256"
        }
      ],
      "name": "Transfer",
      "type": "event"
    },
    {
      "inputs": [
        {
          "internalType": "address",
          "name": "",
          "type": "address"
        }
      ],
      "name": "allowlist",
      "outputs": [
        {
          "internalType": "bool",
          "name": "",
          "type": "bool"
        }
      ],
      "stateMutability": "view",
      "type": "function"
    },
    {
      "inputs": [
        {
          "internalType": "address[]",
          "name": "_arr",
          "type": "address[]"
        }
      ],
      "name": "allowlistUser",
      "outputs": [],
      "stateMutability": "nonpayable",
      "type": "function"
    },
    {
      "inputs": [
        {
          "internalType": "address",
          "name": "to",
          "type": "address"
        },
        {
          "internalType": "uint256",
          "name": "tokenId",
          "type": "uint256"
        }
      ],
      "name": "approve",
      "outputs": [],
      "stateMutability": "nonpayable",
      "type": "function"
    },
    {
      "inputs": [
        {
          "internalType": "address",
          "name": "owner",
          "type": "address"
        }
      ],
      "name": "balanceOf",
      "outputs": [
        {
          "internalType": "uint256",
          "name": "",
          "type": "uint256"
        }
      ],
      "stateMutability": "view",
      "type": "function"
    },
    {
      "inputs": [],
      "name": "baseExtension",
      "outputs": [
        {
          "internalType": "string",
          "name": "",
          "type": "string"
        }
      ],
      "stateMutability": "view",
      "type": "function"
    },
    {
      "inputs": [],
      "name": "baseURI",
      "outputs": [
        {
          "internalType": "string",
          "name": "",
          "type": "string"
        }
      ],
      "stateMutability": "view",
      "type": "function"
    },
    {
      "inputs": [],
      "name": "cost",
      "outputs": [
        {
          "internalType": "uint256",
          "name": "",
          "type": "uint256"
        }
      ],
      "stateMutability": "view",
      "type": "function"
    },
    {
      "inputs": [
        {
          "internalType": "uint256",
          "name": "tokenId",
          "type": "uint256"
        }
      ],
      "name": "getApproved",
      "outputs": [
        {
          "internalType": "address",
          "name": "",
          "type": "address"
        }
      ],
      "stateMutability": "view",
      "type": "function"
    },
    {
      "inputs": [
        {
          "internalType": "address",
          "name": "owner",
          "type": "address"
        },
        {
          "internalType": "address",
          "name": "operator",
          "type": "address"
        }
      ],
      "name": "isApprovedForAll",
      "outputs": [
        {
          "internalType": "bool",
          "name": "",
          "type": "bool"
        }
      ],
      "stateMutability": "view",
      "type": "function"
    },
    {
      "inputs": [],
      "name": "maxMintAmount",
      "outputs": [
        {
          "internalType": "uint256",
          "name": "",
          "type": "uint256"
        }
      ],
      "stateMutability": "view",
      "type": "function"
    },
    {
      "inputs": [],
      "name": "maxSupply",
      "outputs": [
        {
          "internalType": "uint256",
          "name": "",
          "type": "uint256"
        }
      ],
      "stateMutability": "view",
      "type": "function"
    },
    {
      "inputs": [],
      "name": "metaDataFolder",
      "outputs": [
        {
          "internalType": "string",
          "name": "",
          "type": "string"
        }
      ],
      "stateMutability": "view",
      "type": "function"
    },
    {
      "inputs": [
        {
          "internalType": "address",
          "name": "_to",
          "type": "address"
        },
        {
          "internalType": "uint256",
          "name": "_mintAmount",
          "type": "uint256"
        }
      ],
      "name": "mint",
      "outputs": [],
      "stateMutability": "payable",
      "type": "function"
    },
    {
      "inputs": [],
      "name": "name",
      "outputs": [
        {
          "internalType": "string",
          "name": "",
          "type": "string"
        }
      ],
      "stateMutability": "view",
      "type": "function"
    },
    {
      "inputs": [],
      "name": "owner",
      "outputs": [
        {
          "internalType": "address",
          "name": "",
          "type": "address"
        }
      ],
      "stateMutability": "view",
      "type": "function"
    },
    {
      "inputs": [
        {
          "internalType": "uint256",
          "name": "tokenId",
          "type": "uint256"
        }
      ],
      "name": "ownerOf",
      "outputs": [
        {
          "internalType": "address",
          "name": "",
          "type": "address"
        }
      ],
      "stateMutability": "view",
      "type": "function"
    },
    {
      "inputs": [],
      "name": "paused",
      "outputs": [
        {
          "internalType": "bool",
          "name": "",
          "type": "bool"
        }
      ],
      "stateMutability": "view",
      "type": "function"
    },
    {
      "inputs": [
        {
          "internalType": "address[]",
          "name": "_arr",
          "type": "address[]"
        }
      ],
      "name": "removeAllowlistUser",
      "outputs": [],
      "stateMutability": "nonpayable",
      "type": "function"
    },
    {
      "inputs": [],
      "name": "renounceOwnership",
      "outputs": [],
      "stateMutability": "nonpayable",
      "type": "function"
    },
    {
      "inputs": [
        {
          "internalType": "address",
          "name": "from",
          "type": "address"
        },
        {
          "internalType": "address",
          "name": "to",
          "type": "address"
        },
        {
          "internalType": "uint256",
          "name": "tokenId",
          "type": "uint256"
        }
      ],
      "name": "safeTransferFrom",
      "outputs": [],
      "stateMutability": "nonpayable",
      "type": "function"
    },
    {
      "inputs": [
        {
          "internalType": "address",
          "name": "from",
          "type": "address"
        },
        {
          "internalType": "address",
          "name": "to",
          "type": "address"
        },
        {
          "internalType": "uint256",
          "name": "tokenId",
          "type": "uint256"
        },
        {
          "internalType": "bytes",
          "name": "data",
          "type": "bytes"
        }
      ],
      "name": "safeTransferFrom",
      "outputs": [],
      "stateMutability": "nonpayable",
      "type": "function"
    },
    {
      "inputs": [
        {
          "internalType": "address",
          "name": "operator",
          "type": "address"
        },
        {
          "internalType": "bool",
          "name": "approved",
          "type": "bool"
        }
      ],
      "name": "setApprovalForAll",
      "outputs": [],
      "stateMutability": "nonpayable",
      "type": "function"
    },
    {
      "inputs": [
        {
          "internalType": "string",
          "name": "_newBaseExtension",
          "type": "string"
        }
      ],
      "name": "setBaseExtension",
      "outputs": [],
      "stateMutability": "nonpayable",
      "type": "function"
    },
    {
      "inputs": [
        {
          "internalType": "string",
          "name": "_newBaseURI",
          "type": "string"
        }
      ],
      "name": "setBaseURI",
      "outputs": [],
      "stateMutability": "nonpayable",
      "type": "function"
    },
    {
      "inputs": [
        {
          "internalType": "uint256",
          "name": "_newCost",
          "type": "uint256"
        }
      ],
      "name": "setCost",
      "outputs": [],
      "stateMutability": "nonpayable",
      "type": "function"
    },
    {
      "inputs": [
        {
          "internalType": "uint256",
          "name": "_newMaxMintAmount",
          "type": "uint256"
        }
      ],
      "name": "setMaxMintAmount",
      "outputs": [],
      "stateMutability": "nonpayable",
      "type": "function"
    },
    {
      "inputs": [
        {
          "internalType": "bytes4",
          "name": "interfaceId",
          "type": "bytes4"
        }
      ],
      "name": "supportsInterface",
      "outputs": [
        {
          "internalType": "bool",
          "name": "",
          "type": "bool"
        }
      ],
      "stateMutability": "view",
      "type": "function"
    },
    {
      "inputs": [],
      "name": "symbol",
      "outputs": [
        {
          "internalType": "string",
          "name": "",
          "type": "string"
        }
      ],
      "stateMutability": "view",
      "type": "function"
    },
    {
      "inputs": [
        {
          "internalType": "bool",
          "name": "_state",
          "type": "bool"
        }
      ],
      "name": "togglePause",
      "outputs": [],
      "stateMutability": "nonpayable",
      "type": "function"
    },
    {
      "inputs": [
        {
          "internalType": "uint256",
          "name": "index",
          "type": "uint256"
        }
      ],
      "name": "tokenByIndex",
      "outputs": [
        {
          "internalType": "uint256",
          "name": "",
          "type": "uint256"
        }
      ],
      "stateMutability": "view",
      "type": "function"
    },
    {
      "inputs": [
        {
          "internalType": "address",
          "name": "owner",
          "type": "address"
        },
        {
          "internalType": "uint256",
          "name": "index",
          "type": "uint256"
        }
      ],
      "name": "tokenOfOwnerByIndex",
      "outputs": [
        {
          "internalType": "uint256",
          "name": "",
          "type": "uint256"
        }
      ],
      "stateMutability": "view",
      "type": "function"
    },
    {
      "inputs": [
        {
          "internalType": "uint256",
          "name": "tokenId",
          "type": "uint256"
        }
      ],
      "name": "tokenURI",
      "outputs": [
        {
          "internalType": "string",
          "name": "",
          "type": "string"
        }
      ],
      "stateMutability": "view",
      "type": "function"
    },
    {
      "inputs": [],
      "name": "totalSupply",
      "outputs": [
        {
          "internalType": "uint256",
          "name": "",
          "type": "uint256"
        }
      ],
      "stateMutability": "view",
      "type": "function"
    },
    {
      "inputs": [
        {
          "internalType": "address",
          "name": "from",
          "type": "address"
        },
        {
          "internalType": "address",
          "name": "to",
          "type": "address"
        },
        {
          "internalType": "uint256",
          "name": "tokenId",
          "type": "uint256"
        }
      ],
      "name": "transferFrom",
      "outputs": [],
      "stateMutability": "nonpayable",
      "type": "function"
    },
    {
      "inputs": [
        {
          "internalType": "address",
          "name": "newOwner",
          "type": "address"
        }
      ],
      "name": "transferOwnership",
      "outputs": [],
      "stateMutability": "nonpayable",
      "type": "function"
    },
    {
      "inputs": [
        {
          "internalType": "address",
          "name": "_owner",
          "type": "address"
        }
      ],
      "name": "walletOfOwner",
      "outputs": [
        {
          "internalType": "uint256[]",
          "name": "",
          "type": "uint256[]"
        }
      ],
      "stateMutability": "view",
      "type": "function"
    },
    {
      "inputs": [],
      "name": "withdraw",
      "outputs": [],
      "stateMutability": "payable",
      "type": "function"
    }
  ],
  "bytecode": "0x60806040526040518060400160405280600581526020017f2e6a736f6e000000000000000000000000000000000000000000000000000000815250600c90816200004a9190620013d3565b506040518060400160405280600981526020017f6d657461646174612f0000000000000000000000000000000000000000000000815250600d9081620000919190620013d3565b50662386f26fc10000600e556112ec600f55600a6010556000601160006101000a81548160ff021916908315150217905550348015620000d057600080fd5b50604051620069fa380380620069fa8339818101604052810190620000f691906200161e565b82828160009081620001099190620013d3565b5080600190816200011b9190620013d3565b5050506200013e620001326200016b60201b60201c565b6200017360201b60201c565b6200014f816200023960201b60201c565b6200016233600a6200025e60201b60201c565b50505062002009565b600033905090565b6000600a60009054906101000a900473ffffffffffffffffffffffffffffffffffffffff16905081600a60006101000a81548173ffffffffffffffffffffffffffffffffffffffff021916908373ffffffffffffffffffffffffffffffffffffffff1602179055508173ffffffffffffffffffffffffffffffffffffffff168173ffffffffffffffffffffffffffffffffffffffff167f8be0079c531659141344cd1fd0a4f28419497f9722a3daafe3b4186f6b6457e060405160405180910390a35050565b62000249620005dd60201b60201c565b80600b90816200025a9190620013d3565b5050565b6000620002706200066e60201b60201c565b9050601160009054906101000a900460ff1615620002c5576040517f08c379a0000000000000000000000000000000000000000000000000000000008152600401620002bc9062001738565b60405180910390fd5b600082116200030b576040517f08c379a00000000000000000000000000000000000000000000000000000000081526004016200030290620017aa565b60405180910390fd5b60105482111562000353576040517f08c379a00000000000000000000000000000000000000000000000000000000081526004016200034a906200181c565b60405180910390fd5b600f5482826200036491906200186d565b1115620003a8576040517f08c379a00000000000000000000000000000000000000000000000000000000081526004016200039f90620018f8565b60405180910390fd5b620003b86200067b60201b60201c565b73ffffffffffffffffffffffffffffffffffffffff163373ffffffffffffffffffffffffffffffffffffffff1614620005935760011515601260003373ffffffffffffffffffffffffffffffffffffffff1673ffffffffffffffffffffffffffffffffffffffff16815260200190815260200160002060009054906101000a900460ff161515036200048b57600182146200048a576040517f08c379a0000000000000000000000000000000000000000000000000000000008152600401620004819062001990565b60405180910390fd5b5b60011515601260003373ffffffffffffffffffffffffffffffffffffffff1673ffffffffffffffffffffffffffffffffffffffff16815260200190815260200160002060009054906101000a900460ff161515146200053a5781600e54620004f49190620019b2565b34101562000539576040517f08c379a0000000000000000000000000000000000000000000000000000000008152600401620005309062001a4d565b60405180910390fd5b5b6000601260003373ffffffffffffffffffffffffffffffffffffffff1673ffffffffffffffffffffffffffffffffffffffff16815260200190815260200160002060006101000a81548160ff0219169083151502179055505b6000600190505b828111620005d757620005c1848284620005b591906200186d565b620006a560201b60201c565b8080620005ce9062001a6f565b9150506200059a565b50505050565b620005ed6200016b60201b60201c565b73ffffffffffffffffffffffffffffffffffffffff16620006136200067b60201b60201c565b73ffffffffffffffffffffffffffffffffffffffff16146200066c576040517f08c379a0000000000000000000000000000000000000000000000000000000008152600401620006639062001b0c565b60405180910390fd5b565b6000600880549050905090565b6000600a60009054906101000a900473ffffffffffffffffffffffffffffffffffffffff16905090565b620006c7828260405180602001604052806000815250620006cb60201b60201c565b5050565b620006dd83836200073960201b60201c565b620006f260008484846200097f60201b60201c565b62000734576040517f08c379a00000000000000000000000000000000000000000000000000000000081526004016200072b9062001ba4565b60405180910390fd5b505050565b600073ffffffffffffffffffffffffffffffffffffffff168273ffffffffffffffffffffffffffffffffffffffff1603620007ab576040517f08c379a0000000000000000000000000000000000000000000000000000000008152600401620007a29062001c16565b60405180910390fd5b620007bc8162000b2860201b60201c565b15620007ff576040517f08c379a0000000000000000000000000000000000000000000000000000000008152600401620007f69062001c88565b60405180910390fd5b6200081560008383600162000b7160201b60201c565b620008268162000b2860201b60201c565b1562000869576040517f08c379a0000000000000000000000000000000000000000000000000000000008152600401620008609062001c88565b60405180910390fd5b6001600360008473ffffffffffffffffffffffffffffffffffffffff1673ffffffffffffffffffffffffffffffffffffffff16815260200190815260200160002060008282540192505081905550816002600083815260200190815260200160002060006101000a81548173ffffffffffffffffffffffffffffffffffffffff021916908373ffffffffffffffffffffffffffffffffffffffff160217905550808273ffffffffffffffffffffffffffffffffffffffff16600073ffffffffffffffffffffffffffffffffffffffff167fddf252ad1be2c89b69c2b068fc378daa952ba7f163c4a11628f55a4df523b3ef60405160405180910390a46200097b60008383600162000d0560201b60201c565b5050565b6000620009ad8473ffffffffffffffffffffffffffffffffffffffff1662000d0b60201b620019561760201c565b1562000b1b578373ffffffffffffffffffffffffffffffffffffffff1663150b7a02620009df6200016b60201b60201c565b8786866040518563ffffffff1660e01b815260040162000a03949392919062001d5d565b6020604051808303816000875af192505050801562000a4257506040513d601f19601f8201168201806040525081019062000a3f919062001e0e565b60015b62000aca573d806000811462000a75576040519150601f19603f3d011682016040523d82523d6000602084013e62000a7a565b606091505b50600081510362000ac2576040517f08c379a000000000000000000000000000000000000000000000000000000000815260040162000ab99062001ba4565b60405180910390fd5b805181602001fd5b63150b7a0260e01b7bffffffffffffffffffffffffffffffffffffffffffffffffffffffff1916817bffffffffffffffffffffffffffffffffffffffffffffffffffffffff19161491505062000b20565b600190505b949350505050565b60008073ffffffffffffffffffffffffffffffffffffffff1662000b528362000d2e60201b60201c565b73ffffffffffffffffffffffffffffffffffffffff1614159050919050565b62000b8a8484848462000d6b60201b620019791760201c565b600181111562000bd1576040517f08c379a000000000000000000000000000000000000000000000000000000000815260040162000bc89062001eb6565b60405180910390fd5b6000829050600073ffffffffffffffffffffffffffffffffffffffff168573ffffffffffffffffffffffffffffffffffffffff160362000c225762000c1c8162000d7160201b60201c565b62000c6a565b8373ffffffffffffffffffffffffffffffffffffffff168573ffffffffffffffffffffffffffffffffffffffff161462000c695762000c68858262000dba60201b60201c565b5b5b600073ffffffffffffffffffffffffffffffffffffffff168473ffffffffffffffffffffffffffffffffffffffff160362000cb65762000cb08162000f3760201b60201c565b62000cfe565b8473ffffffffffffffffffffffffffffffffffffffff168473ffffffffffffffffffffffffffffffffffffffff161462000cfd5762000cfc84826200101360201b60201c565b5b5b5050505050565b50505050565b6000808273ffffffffffffffffffffffffffffffffffffffff163b119050919050565b60006002600083815260200190815260200160002060009054906101000a900473ffffffffffffffffffffffffffffffffffffffff169050919050565b50505050565b6008805490506009600083815260200190815260200160002081905550600881908060018154018082558091505060019003906000526020600020016000909190919091505550565b6000600162000dd4846200109f60201b620012fc1760201c565b62000de0919062001ed8565b905060006007600084815260200190815260200160002054905081811462000ec6576000600660008673ffffffffffffffffffffffffffffffffffffffff1673ffffffffffffffffffffffffffffffffffffffff168152602001908152602001600020600084815260200190815260200160002054905080600660008773ffffffffffffffffffffffffffffffffffffffff1673ffffffffffffffffffffffffffffffffffffffff168152602001908152602001600020600084815260200190815260200160002081905550816007600083815260200190815260200160002081905550505b6007600084815260200190815260200160002060009055600660008573ffffffffffffffffffffffffffffffffffffffff1673ffffffffffffffffffffffffffffffffffffffff16815260200190815260200160002060008381526020019081526020016000206000905550505050565b6000600160088054905062000f4d919062001ed8565b905060006009600084815260200190815260200160002054905060006008838154811062000f805762000f7f62001f13565b5b90600052602060002001549050806008838154811062000fa55762000fa462001f13565b5b90600052602060002001819055508160096000838152602001908152602001600020819055506009600085815260200190815260200160002060009055600880548062000ff75762000ff662001f42565b5b6001900381819060005260206000200160009055905550505050565b60006200102b836200109f60201b620012fc1760201c565b905081600660008573ffffffffffffffffffffffffffffffffffffffff1673ffffffffffffffffffffffffffffffffffffffff168152602001908152602001600020600083815260200190815260200160002081905550806007600084815260200190815260200160002081905550505050565b60008073ffffffffffffffffffffffffffffffffffffffff168273ffffffffffffffffffffffffffffffffffffffff160362001112576040517f08c379a0000000000000000000000000000000000000000000000000000000008152600401620011099062001fe7565b60405180910390fd5b600360008373ffffffffffffffffffffffffffffffffffffffff1673ffffffffffffffffffffffffffffffffffffffff168152602001908152602001600020549050919050565b600081519050919050565b7f4e487b7100000000000000000000000000000000000000000000000000000000600052604160045260246000fd5b7f4e487b7100000000000000000000000000000000000000000000000000000000600052602260045260246000fd5b60006002820490506001821680620011db57607f821691505b602082108103620011f157620011f062001193565b5b50919050565b60008190508160005260206000209050919050565b60006020601f8301049050919050565b600082821b905092915050565b6000600883026200125b7fffffffffffffffffffffffffffffffffffffffffffffffffffffffffffffffff826200121c565b6200126786836200121c565b95508019841693508086168417925050509392505050565b6000819050919050565b6000819050919050565b6000620012b4620012ae620012a8846200127f565b62001289565b6200127f565b9050919050565b6000819050919050565b620012d08362001293565b620012e8620012df82620012bb565b84845462001229565b825550505050565b600090565b620012ff620012f0565b6200130c818484620012c5565b505050565b5b81811015620013345762001328600082620012f5565b60018101905062001312565b5050565b601f82111562001383576200134d81620011f7565b62001358846200120c565b8101602085101562001368578190505b6200138062001377856200120c565b83018262001311565b50505b505050565b600082821c905092915050565b6000620013a86000198460080262001388565b1980831691505092915050565b6000620013c3838362001395565b9150826002028217905092915050565b620013de8262001159565b67ffffffffffffffff811115620013fa57620013f962001164565b5b620014068254620011c2565b6200141382828562001338565b600060209050601f8311600181146200144b576000841562001436578287015190505b620014428582620013b5565b865550620014b2565b601f1984166200145b86620011f7565b60005b8281101562001485578489015182556001820191506020850194506020810190506200145e565b86831015620014a55784890151620014a1601f89168262001395565b8355505b6001600288020188555050505b505050505050565b6000604051905090565b600080fd5b600080fd5b600080fd5b600080fd5b6000601f19601f8301169050919050565b620014f482620014d8565b810181811067ffffffffffffffff8211171562001516576200151562001164565b5b80604052505050565b60006200152b620014ba565b9050620015398282620014e9565b919050565b600067ffffffffffffffff8211156200155c576200155b62001164565b5b6200156782620014d8565b9050602081019050919050565b60005b838110156200159457808201518184015260208101905062001577565b60008484015250505050565b6000620015b7620015b1846200153e565b6200151f565b905082815260208101848484011115620015d657620015d5620014d3565b5b620015e384828562001574565b509392505050565b600082601f830112620016035762001602620014ce565b5b815162001615848260208601620015a0565b91505092915050565b6000806000606084860312156200163a5762001639620014c4565b5b600084015167ffffffffffffffff8111156200165b576200165a620014c9565b5b6200166986828701620015eb565b935050602084015167ffffffffffffffff8111156200168d576200168c620014c9565b5b6200169b86828701620015eb565b925050604084015167ffffffffffffffff811115620016bf57620016be620014c9565b5b620016cd86828701620015eb565b9150509250925092565b600082825260208201905092915050565b7f436f6e7472616374206973207061757365640000000000000000000000000000600082015250565b600062001720601283620016d7565b91506200172d82620016e8565b602082019050919050565b60006020820190508181036000830152620017538162001711565b9050919050565b7f4d757374206d696e74206174206c656173742031000000000000000000000000600082015250565b600062001792601483620016d7565b91506200179f826200175a565b602082019050919050565b60006020820190508181036000830152620017c58162001783565b9050919050565b7f43616e6e6f74206d696e74206d6f7265207468616e203130206174206f6e6365600082015250565b600062001804602083620016d7565b91506200181182620017cc565b602082019050919050565b600060208201905081810360008301526200183781620017f5565b9050919050565b7f4e487b7100000000000000000000000000000000000000000000000000000000600052601160045260246000fd5b60006200187a826200127f565b915062001887836200127f565b9250828201905080821115620018a257620018a16200183e565b5b92915050565b7f4d696e7420616d6f756e742065786365656473206d617820737570706c790000600082015250565b6000620018e0601e83620016d7565b9150620018ed82620018a8565b602082019050919050565b600060208201905081810360008301526200191381620018d1565b9050919050565b7f416c6c6f776c697374206d656d626572732063616e206f6e6c79206d696e742060008201527f3120426c6f625374617200000000000000000000000000000000000000000000602082015250565b600062001978602a83620016d7565b915062001985826200191a565b604082019050919050565b60006020820190508181036000830152620019ab8162001969565b9050919050565b6000620019bf826200127f565b9150620019cc836200127f565b9250828202620019dc816200127f565b91508282048414831517620019f657620019f56200183e565b5b5092915050565b7f4e6f7420656e6f756768204554482073656e7400000000000000000000000000600082015250565b600062001a35601383620016d7565b915062001a4282620019fd565b602082019050919050565b6000602082019050818103600083015262001a688162001a26565b9050919050565b600062001a7c826200127f565b91507fffffffffffffffffffffffffffffffffffffffffffffffffffffffffffffffff820362001ab15762001ab06200183e565b5b600182019050919050565b7f4f776e61626c653a2063616c6c6572206973206e6f7420746865206f776e6572600082015250565b600062001af4602083620016d7565b915062001b018262001abc565b602082019050919050565b6000602082019050818103600083015262001b278162001ae5565b9050919050565b7f4552433732313a207472616e7366657220746f206e6f6e20455243373231526560008201527f63656976657220696d706c656d656e7465720000000000000000000000000000602082015250565b600062001b8c603283620016d7565b915062001b998262001b2e565b604082019050919050565b6000602082019050818103600083015262001bbf8162001b7d565b9050919050565b7f4552433732313a206d696e7420746f20746865207a65726f2061646472657373600082015250565b600062001bfe602083620016d7565b915062001c0b8262001bc6565b602082019050919050565b6000602082019050818103600083015262001c318162001bef565b9050919050565b7f4552433732313a20746f6b656e20616c7265616479206d696e74656400000000600082015250565b600062001c70601c83620016d7565b915062001c7d8262001c38565b602082019050919050565b6000602082019050818103600083015262001ca38162001c61565b9050919050565b600073ffffffffffffffffffffffffffffffffffffffff82169050919050565b600062001cd78262001caa565b9050919050565b62001ce98162001cca565b82525050565b62001cfa816200127f565b82525050565b600081519050919050565b600082825260208201905092915050565b600062001d298262001d00565b62001d35818562001d0b565b935062001d4781856020860162001574565b62001d5281620014d8565b840191505092915050565b600060808201905062001d74600083018762001cde565b62001d83602083018662001cde565b62001d92604083018562001cef565b818103606083015262001da6818462001d1c565b905095945050505050565b60007fffffffff0000000000000000000000000000000000000000000000000000000082169050919050565b62001de88162001db1565b811462001df457600080fd5b50565b60008151905062001e088162001ddd565b92915050565b60006020828403121562001e275762001e26620014c4565b5b600062001e378482850162001df7565b91505092915050565b7f455243373231456e756d657261626c653a20636f6e736563757469766520747260008201527f616e7366657273206e6f7420737570706f727465640000000000000000000000602082015250565b600062001e9e603583620016d7565b915062001eab8262001e40565b604082019050919050565b6000602082019050818103600083015262001ed18162001e8f565b9050919050565b600062001ee5826200127f565b915062001ef2836200127f565b925082820390508181111562001f0d5762001f0c6200183e565b5b92915050565b7f4e487b7100000000000000000000000000000000000000000000000000000000600052603260045260246000fd5b7f4e487b7100000000000000000000000000000000000000000000000000000000600052603160045260246000fd5b7f4552433732313a2061646472657373207a65726f206973206e6f74206120766160008201527f6c6964206f776e65720000000000000000000000000000000000000000000000602082015250565b600062001fcf602983620016d7565b915062001fdc8262001f71565b604082019050919050565b60006020820190508181036000830152620020028162001fc0565b9050919050565b6149e180620020196000396000f3fe60806040526004361061021a5760003560e01c80635c975abb11610123578063a7cd52cb116100ab578063d5abeb011161006f578063d5abeb01146107c9578063da3ef23f146107f4578063e25d28481461081d578063e985e9c514610846578063f2fde38b146108835761021a565b8063a7cd52cb146106d2578063b1dc79091461070f578063b88d4fde14610738578063c668286214610761578063c87b56dd1461078c5761021a565b8063715018a6116100f2578063715018a6146106115780638da5cb5b146106285780639502743d1461065357806395d89b411461067e578063a22cb465146106a95761021a565b80635c975abb146105415780636352211e1461056c5780636c0360eb146105a957806370a08231146105d45761021a565b80632f745c59116101a6578063438b630011610175578063438b63001461044c57806344a0d68a146104895780634f6ccce7146104b257806355f804b3146104ef57806357d159c6146105185761021a565b80632f745c59146103c05780633ccfd60b146103fd57806340c10f191461040757806342842e0e146104235761021a565b8063095ea7b3116101ed578063095ea7b3146102ed57806313faede61461031657806318160ddd14610341578063239c70ae1461036c57806323b872dd146103975761021a565b806301ffc9a71461021f57806306fdde031461025c578063081812fc14610287578063088a4ed0146102c4575b600080fd5b34801561022b57600080fd5b5061024660048036038101906102419190612e95565b6108ac565b6040516102539190612edd565b60405180910390f35b34801561026857600080fd5b50610271610926565b60405161027e9190612f88565b60405180910390f35b34801561029357600080fd5b506102ae60048036038101906102a99190612fe0565b6109b8565b6040516102bb919061304e565b60405180910390f35b3480156102d057600080fd5b506102eb60048036038101906102e69190612fe0565b6109fe565b005b3480156102f957600080fd5b50610314600480360381019061030f9190613095565b610a10565b005b34801561032257600080fd5b5061032b610b27565b60405161033891906130e4565b60405180910390f35b34801561034d57600080fd5b50610356610b2d565b60405161036391906130e4565b60405180910390f35b34801561037857600080fd5b50610381610b3a565b60405161038e91906130e4565b60405180910390f35b3480156103a357600080fd5b506103be60048036038101906103b991906130ff565b610b40565b005b3480156103cc57600080fd5b506103e760048036038101906103e29190613095565b610ba0565b6040516103f491906130e4565b60405180910390f35b610405610c45565b005b610421600480360381019061041c9190613095565b610cfc565b005b34801561042f57600080fd5b5061044a600480360381019061044591906130ff565b611044565b005b34801561045857600080fd5b50610473600480360381019061046e9190613152565b611064565b604051610480919061323d565b60405180910390f35b34801561049557600080fd5b506104b060048036038101906104ab9190612fe0565b611112565b005b3480156104be57600080fd5b506104d960048036038101906104d49190612fe0565b611124565b6040516104e691906130e4565b60405180910390f35b3480156104fb57600080fd5b5061051660048036038101906105119190613394565b611195565b005b34801561052457600080fd5b5061053f600480360381019061053a9190613409565b6111b0565b005b34801561054d57600080fd5b506105566111d5565b6040516105639190612edd565b60405180910390f35b34801561057857600080fd5b50610593600480360381019061058e9190612fe0565b6111e8565b6040516105a0919061304e565b60405180910390f35b3480156105b557600080fd5b506105be61126e565b6040516105cb9190612f88565b60405180910390f35b3480156105e057600080fd5b506105fb60048036038101906105f69190613152565b6112fc565b60405161060891906130e4565b60405180910390f35b34801561061d57600080fd5b506106266113b3565b005b34801561063457600080fd5b5061063d6113c7565b60405161064a919061304e565b60405180910390f35b34801561065f57600080fd5b506106686113f1565b6040516106759190612f88565b60405180910390f35b34801561068a57600080fd5b5061069361147f565b6040516106a09190612f88565b60405180910390f35b3480156106b557600080fd5b506106d060048036038101906106cb9190613436565b611511565b005b3480156106de57600080fd5b506106f960048036038101906106f49190613152565b611527565b6040516107069190612edd565b60405180910390f35b34801561071b57600080fd5b506107366004803603810190610731919061353e565b611547565b005b34801561074457600080fd5b5061075f600480360381019061075a9190613628565b6115e4565b005b34801561076d57600080fd5b50610776611646565b6040516107839190612f88565b60405180910390f35b34801561079857600080fd5b506107b360048036038101906107ae9190612fe0565b6116d4565b6040516107c09190612f88565b60405180910390f35b3480156107d557600080fd5b506107de611781565b6040516107eb91906130e4565b60405180910390f35b34801561080057600080fd5b5061081b60048036038101906108169190613394565b611787565b005b34801561082957600080fd5b50610844600480360381019061083f919061353e565b6117a2565b005b34801561085257600080fd5b5061086d600480360381019061086891906136ab565b61183f565b60405161087a9190612edd565b60405180910390f35b34801561088f57600080fd5b506108aa60048036038101906108a59190613152565b6118d3565b005b60007f780e9d63000000000000000000000000000000000000000000000000000000007bffffffffffffffffffffffffffffffffffffffffffffffffffffffff1916827bffffffffffffffffffffffffffffffffffffffffffffffffffffffff1916148061091f575061091e8261197f565b5b9050919050565b6060600080546109359061371a565b80601f01602080910402602001604051908101604052809291908181526020018280546109619061371a565b80156109ae5780601f10610983576101008083540402835291602001916109ae565b820191906000526020600020905b81548152906001019060200180831161099157829003601f168201915b5050505050905090565b60006109c382611a61565b6004600083815260200190815260200160002060009054906101000a900473ffffffffffffffffffffffffffffffffffffffff169050919050565b610a06611aac565b8060108190555050565b6000610a1b826111e8565b90508073ffffffffffffffffffffffffffffffffffffffff168373ffffffffffffffffffffffffffffffffffffffff1603610a8b576040517f08c379a0000000000000000000000000000000000000000000000000000000008152600401610a82906137bd565b60405180910390fd5b8073ffffffffffffffffffffffffffffffffffffffff16610aaa611b2a565b73ffffffffffffffffffffffffffffffffffffffff161480610ad95750610ad881610ad3611b2a565b61183f565b5b610b18576040517f08c379a0000000000000000000000000000000000000000000000000000000008152600401610b0f9061384f565b60405180910390fd5b610b228383611b32565b505050565b600e5481565b6000600880549050905090565b60105481565b610b51610b4b611b2a565b82611beb565b610b90576040517f08c379a0000000000000000000000000000000000000000000000000000000008152600401610b87906138e1565b60405180910390fd5b610b9b838383611c80565b505050565b6000610bab836112fc565b8210610bec576040517f08c379a0000000000000000000000000000000000000000000000000000000008152600401610be390613973565b60405180910390fd5b600660008473ffffffffffffffffffffffffffffffffffffffff1673ffffffffffffffffffffffffffffffffffffffff168152602001908152602001600020600083815260200190815260200160002054905092915050565b610c4d611aac565b60003373ffffffffffffffffffffffffffffffffffffffff1647604051610c73906139c4565b60006040518083038185875af1925050503d8060008114610cb0576040519150601f19603f3d011682016040523d82523d6000602084013e610cb5565b606091505b5050905080610cf9576040517f08c379a0000000000000000000000000000000000000000000000000000000008152600401610cf090613a25565b60405180910390fd5b50565b6000610d06610b2d565b9050601160009054906101000a900460ff1615610d58576040517f08c379a0000000000000000000000000000000000000000000000000000000008152600401610d4f90613a91565b60405180910390fd5b60008211610d9b576040517f08c379a0000000000000000000000000000000000000000000000000000000008152600401610d9290613afd565b60405180910390fd5b601054821115610de0576040517f08c379a0000000000000000000000000000000000000000000000000000000008152600401610dd790613b69565b60405180910390fd5b600f548282610def9190613bb8565b1115610e30576040517f08c379a0000000000000000000000000000000000000000000000000000000008152600401610e2790613c38565b60405180910390fd5b610e386113c7565b73ffffffffffffffffffffffffffffffffffffffff163373ffffffffffffffffffffffffffffffffffffffff16146110085760011515601260003373ffffffffffffffffffffffffffffffffffffffff1673ffffffffffffffffffffffffffffffffffffffff16815260200190815260200160002060009054906101000a900460ff16151503610f065760018214610f05576040517f08c379a0000000000000000000000000000000000000000000000000000000008152600401610efc90613cca565b60405180910390fd5b5b60011515601260003373ffffffffffffffffffffffffffffffffffffffff1673ffffffffffffffffffffffffffffffffffffffff16815260200190815260200160002060009054906101000a900460ff16151514610faf5781600e54610f6c9190613cea565b341015610fae576040517f08c379a0000000000000000000000000000000000000000000000000000000008152600401610fa590613d78565b60405180910390fd5b5b6000601260003373ffffffffffffffffffffffffffffffffffffffff1673ffffffffffffffffffffffffffffffffffffffff16815260200190815260200160002060006101000a81548160ff0219169083151502179055505b6000600190505b82811161103e5761102b8482846110269190613bb8565b611f79565b808061103690613d98565b91505061100f565b50505050565b61105f838383604051806020016040528060008152506115e4565b505050565b60606000611071836112fc565b905060008167ffffffffffffffff81111561108f5761108e613269565b5b6040519080825280602002602001820160405280156110bd5781602001602082028036833780820191505090505b50905060005b82811015611107576110d58582610ba0565b8282815181106110e8576110e7613de0565b5b60200260200101818152505080806110ff90613d98565b9150506110c3565b508092505050919050565b61111a611aac565b80600e8190555050565b600061112e610b2d565b821061116f576040517f08c379a000000000000000000000000000000000000000000000000000000000815260040161116690613e81565b60405180910390fd5b6008828154811061118357611182613de0565b5b90600052602060002001549050919050565b61119d611aac565b80600b90816111ac919061404d565b5050565b6111b8611aac565b80601160006101000a81548160ff02191690831515021790555050565b601160009054906101000a900460ff1681565b6000806111f483611f97565b9050600073ffffffffffffffffffffffffffffffffffffffff168173ffffffffffffffffffffffffffffffffffffffff1603611265576040517f08c379a000000000000000000000000000000000000000000000000000000000815260040161125c9061416b565b60405180910390fd5b80915050919050565b600b805461127b9061371a565b80601f01602080910402602001604051908101604052809291908181526020018280546112a79061371a565b80156112f45780601f106112c9576101008083540402835291602001916112f4565b820191906000526020600020905b8154815290600101906020018083116112d757829003601f168201915b505050505081565b60008073ffffffffffffffffffffffffffffffffffffffff168273ffffffffffffffffffffffffffffffffffffffff160361136c576040517f08c379a0000000000000000000000000000000000000000000000000000000008152600401611363906141fd565b60405180910390fd5b600360008373ffffffffffffffffffffffffffffffffffffffff1673ffffffffffffffffffffffffffffffffffffffff168152602001908152602001600020549050919050565b6113bb611aac565b6113c56000611fd4565b565b6000600a60009054906101000a900473ffffffffffffffffffffffffffffffffffffffff16905090565b600d80546113fe9061371a565b80601f016020809104026020016040519081016040528092919081815260200182805461142a9061371a565b80156114775780601f1061144c57610100808354040283529160200191611477565b820191906000526020600020905b81548152906001019060200180831161145a57829003601f168201915b505050505081565b60606001805461148e9061371a565b80601f01602080910402602001604051908101604052809291908181526020018280546114ba9061371a565b80156115075780601f106114dc57610100808354040283529160200191611507565b820191906000526020600020905b8154815290600101906020018083116114ea57829003601f168201915b5050505050905090565b61152361151c611b2a565b838361209a565b5050565b60126020528060005260406000206000915054906101000a900460ff1681565b61154f611aac565b60005b81518110156115e05760016012600084848151811061157457611573613de0565b5b602002602001015173ffffffffffffffffffffffffffffffffffffffff1673ffffffffffffffffffffffffffffffffffffffff16815260200190815260200160002060006101000a81548160ff02191690831515021790555080806115d890613d98565b915050611552565b5050565b6115f56115ef611b2a565b83611beb565b611634576040517f08c379a000000000000000000000000000000000000000000000000000000000815260040161162b906138e1565b60405180910390fd5b61164084848484612206565b50505050565b600c80546116539061371a565b80601f016020809104026020016040519081016040528092919081815260200182805461167f9061371a565b80156116cc5780601f106116a1576101008083540402835291602001916116cc565b820191906000526020600020905b8154815290600101906020018083116116af57829003601f168201915b505050505081565b60606116df82612262565b61171e576040517f08c379a00000000000000000000000000000000000000000000000000000000081526004016117159061428f565b60405180910390fd5b60006117286122a3565b905060008151116117485760405180602001604052806000815250611779565b80600d61175485612335565b600c604051602001611769949392919061436e565b6040516020818303038152906040525b915050919050565b600f5481565b61178f611aac565b80600c908161179e919061404d565b5050565b6117aa611aac565b60005b815181101561183b576000601260008484815181106117cf576117ce613de0565b5b602002602001015173ffffffffffffffffffffffffffffffffffffffff1673ffffffffffffffffffffffffffffffffffffffff16815260200190815260200160002060006101000a81548160ff021916908315150217905550808061183390613d98565b9150506117ad565b5050565b6000600560008473ffffffffffffffffffffffffffffffffffffffff1673ffffffffffffffffffffffffffffffffffffffff16815260200190815260200160002060008373ffffffffffffffffffffffffffffffffffffffff1673ffffffffffffffffffffffffffffffffffffffff16815260200190815260200160002060009054906101000a900460ff16905092915050565b6118db611aac565b600073ffffffffffffffffffffffffffffffffffffffff168173ffffffffffffffffffffffffffffffffffffffff160361194a576040517f08c379a00000000000000000000000000000000000000000000000000000000081526004016119419061441e565b60405180910390fd5b61195381611fd4565b50565b6000808273ffffffffffffffffffffffffffffffffffffffff163b119050919050565b50505050565b60007f80ac58cd000000000000000000000000000000000000000000000000000000007bffffffffffffffffffffffffffffffffffffffffffffffffffffffff1916827bffffffffffffffffffffffffffffffffffffffffffffffffffffffff19161480611a4a57507f5b5e139f000000000000000000000000000000000000000000000000000000007bffffffffffffffffffffffffffffffffffffffffffffffffffffffff1916827bffffffffffffffffffffffffffffffffffffffffffffffffffffffff1916145b80611a5a5750611a5982612403565b5b9050919050565b611a6a81612262565b611aa9576040517f08c379a0000000000000000000000000000000000000000000000000000000008152600401611aa09061416b565b60405180910390fd5b50565b611ab4611b2a565b73ffffffffffffffffffffffffffffffffffffffff16611ad26113c7565b73ffffffffffffffffffffffffffffffffffffffff1614611b28576040517f08c379a0000000000000000000000000000000000000000000000000000000008152600401611b1f9061448a565b60405180910390fd5b565b600033905090565b816004600083815260200190815260200160002060006101000a81548173ffffffffffffffffffffffffffffffffffffffff021916908373ffffffffffffffffffffffffffffffffffffffff160217905550808273ffffffffffffffffffffffffffffffffffffffff16611ba5836111e8565b73ffffffffffffffffffffffffffffffffffffffff167f8c5be1e5ebec7d5bd14f71427d1e84f3dd0314c0f7b2291e5b200ac8c7c3b92560405160405180910390a45050565b600080611bf7836111e8565b90508073ffffffffffffffffffffffffffffffffffffffff168473ffffffffffffffffffffffffffffffffffffffff161480611c395750611c38818561183f565b5b80611c7757508373ffffffffffffffffffffffffffffffffffffffff16611c5f846109b8565b73ffffffffffffffffffffffffffffffffffffffff16145b91505092915050565b8273ffffffffffffffffffffffffffffffffffffffff16611ca0826111e8565b73ffffffffffffffffffffffffffffffffffffffff1614611cf6576040517f08c379a0000000000000000000000000000000000000000000000000000000008152600401611ced9061451c565b60405180910390fd5b600073ffffffffffffffffffffffffffffffffffffffff168273ffffffffffffffffffffffffffffffffffffffff1603611d65576040517f08c379a0000000000000000000000000000000000000000000000000000000008152600401611d5c906145ae565b60405180910390fd5b611d72838383600161246d565b8273ffffffffffffffffffffffffffffffffffffffff16611d92826111e8565b73ffffffffffffffffffffffffffffffffffffffff1614611de8576040517f08c379a0000000000000000000000000000000000000000000000000000000008152600401611ddf9061451c565b60405180910390fd5b6004600082815260200190815260200160002060006101000a81549073ffffffffffffffffffffffffffffffffffffffff02191690556001600360008573ffffffffffffffffffffffffffffffffffffffff1673ffffffffffffffffffffffffffffffffffffffff168152602001908152602001600020600082825403925050819055506001600360008473ffffffffffffffffffffffffffffffffffffffff1673ffffffffffffffffffffffffffffffffffffffff16815260200190815260200160002060008282540192505081905550816002600083815260200190815260200160002060006101000a81548173ffffffffffffffffffffffffffffffffffffffff021916908373ffffffffffffffffffffffffffffffffffffffff160217905550808273ffffffffffffffffffffffffffffffffffffffff168473ffffffffffffffffffffffffffffffffffffffff167fddf252ad1be2c89b69c2b068fc378daa952ba7f163c4a11628f55a4df523b3ef60405160405180910390a4611f7483838360016125cb565b505050565b611f938282604051806020016040528060008152506125d1565b5050565b60006002600083815260200190815260200160002060009054906101000a900473ffffffffffffffffffffffffffffffffffffffff169050919050565b6000600a60009054906101000a900473ffffffffffffffffffffffffffffffffffffffff16905081600a60006101000a81548173ffffffffffffffffffffffffffffffffffffffff021916908373ffffffffffffffffffffffffffffffffffffffff1602179055508173ffffffffffffffffffffffffffffffffffffffff168173ffffffffffffffffffffffffffffffffffffffff167f8be0079c531659141344cd1fd0a4f28419497f9722a3daafe3b4186f6b6457e060405160405180910390a35050565b8173ffffffffffffffffffffffffffffffffffffffff168373ffffffffffffffffffffffffffffffffffffffff1603612108576040517f08c379a00000000000000000000000000000000000000000000000000000000081526004016120ff9061461a565b60405180910390fd5b80600560008573ffffffffffffffffffffffffffffffffffffffff1673ffffffffffffffffffffffffffffffffffffffff16815260200190815260200160002060008473ffffffffffffffffffffffffffffffffffffffff1673ffffffffffffffffffffffffffffffffffffffff16815260200190815260200160002060006101000a81548160ff0219169083151502179055508173ffffffffffffffffffffffffffffffffffffffff168373ffffffffffffffffffffffffffffffffffffffff167f17307eab39ab6107e8899845ad3d59bd9653f200f220920489ca2b5937696c31836040516121f99190612edd565b60405180910390a3505050565b612211848484611c80565b61221d8484848461262c565b61225c576040517f08c379a0000000000000000000000000000000000000000000000000000000008152600401612253906146ac565b60405180910390fd5b50505050565b60008073ffffffffffffffffffffffffffffffffffffffff1661228483611f97565b73ffffffffffffffffffffffffffffffffffffffff1614159050919050565b6060600b80546122b29061371a565b80601f01602080910402602001604051908101604052809291908181526020018280546122de9061371a565b801561232b5780601f106123005761010080835404028352916020019161232b565b820191906000526020600020905b81548152906001019060200180831161230e57829003601f168201915b5050505050905090565b606060006001612344846127b3565b01905060008167ffffffffffffffff81111561236357612362613269565b5b6040519080825280601f01601f1916602001820160405280156123955781602001600182028036833780820191505090505b509050600082602001820190505b6001156123f8578080600190039150507f3031323334353637383961626364656600000000000000000000000000000000600a86061a8153600a85816123ec576123eb6146cc565b5b049450600085036123a3575b819350505050919050565b60007f01ffc9a7000000000000000000000000000000000000000000000000000000007bffffffffffffffffffffffffffffffffffffffffffffffffffffffff1916827bffffffffffffffffffffffffffffffffffffffffffffffffffffffff1916149050919050565b61247984848484611979565b60018111156124bd576040517f08c379a00000000000000000000000000000000000000000000000000000000081526004016124b49061476d565b60405180910390fd5b6000829050600073ffffffffffffffffffffffffffffffffffffffff168573ffffffffffffffffffffffffffffffffffffffff1603612504576124ff81612906565b612543565b8373ffffffffffffffffffffffffffffffffffffffff168573ffffffffffffffffffffffffffffffffffffffff161461254257612541858261294f565b5b5b600073ffffffffffffffffffffffffffffffffffffffff168473ffffffffffffffffffffffffffffffffffffffff16036125855761258081612abc565b6125c4565b8473ffffffffffffffffffffffffffffffffffffffff168473ffffffffffffffffffffffffffffffffffffffff16146125c3576125c28482612b8d565b5b5b5050505050565b50505050565b6125db8383612c0c565b6125e8600084848461262c565b612627576040517f08c379a000000000000000000000000000000000000000000000000000000000815260040161261e906146ac565b60405180910390fd5b505050565b600061264d8473ffffffffffffffffffffffffffffffffffffffff16611956565b156127a6578373ffffffffffffffffffffffffffffffffffffffff1663150b7a02612676611b2a565b8786866040518563ffffffff1660e01b815260040161269894939291906147e2565b6020604051808303816000875af19250505080156126d457506040513d601f19601f820116820180604052508101906126d19190614843565b60015b612756573d8060008114612704576040519150601f19603f3d011682016040523d82523d6000602084013e612709565b606091505b50600081510361274e576040517f08c379a0000000000000000000000000000000000000000000000000000000008152600401612745906146ac565b60405180910390fd5b805181602001fd5b63150b7a0260e01b7bffffffffffffffffffffffffffffffffffffffffffffffffffffffff1916817bffffffffffffffffffffffffffffffffffffffffffffffffffffffff1916149150506127ab565b600190505b949350505050565b600080600090507a184f03e93ff9f4daa797ed6e38ed64bf6a1f0100000000000000008310612811577a184f03e93ff9f4daa797ed6e38ed64bf6a1f0100000000000000008381612807576128066146cc565b5b0492506040810190505b6d04ee2d6d415b85acef8100000000831061284e576d04ee2d6d415b85acef81000000008381612844576128436146cc565b5b0492506020810190505b662386f26fc10000831061287d57662386f26fc100008381612873576128726146cc565b5b0492506010810190505b6305f5e10083106128a6576305f5e100838161289c5761289b6146cc565b5b0492506008810190505b61271083106128cb5761271083816128c1576128c06146cc565b5b0492506004810190505b606483106128ee57606483816128e4576128e36146cc565b5b0492506002810190505b600a83106128fd576001810190505b80915050919050565b6008805490506009600083815260200190815260200160002081905550600881908060018154018082558091505060019003906000526020600020016000909190919091505550565b6000600161295c846112fc565b6129669190614870565b9050600060076000848152602001908152602001600020549050818114612a4b576000600660008673ffffffffffffffffffffffffffffffffffffffff1673ffffffffffffffffffffffffffffffffffffffff168152602001908152602001600020600084815260200190815260200160002054905080600660008773ffffffffffffffffffffffffffffffffffffffff1673ffffffffffffffffffffffffffffffffffffffff168152602001908152602001600020600084815260200190815260200160002081905550816007600083815260200190815260200160002081905550505b6007600084815260200190815260200160002060009055600660008573ffffffffffffffffffffffffffffffffffffffff1673ffffffffffffffffffffffffffffffffffffffff16815260200190815260200160002060008381526020019081526020016000206000905550505050565b60006001600880549050612ad09190614870565b9050600060096000848152602001908152602001600020549050600060088381548110612b0057612aff613de0565b5b906000526020600020015490508060088381548110612b2257612b21613de0565b5b906000526020600020018190555081600960008381526020019081526020016000208190555060096000858152602001908152602001600020600090556008805480612b7157612b706148a4565b5b6001900381819060005260206000200160009055905550505050565b6000612b98836112fc565b905081600660008573ffffffffffffffffffffffffffffffffffffffff1673ffffffffffffffffffffffffffffffffffffffff168152602001908152602001600020600083815260200190815260200160002081905550806007600084815260200190815260200160002081905550505050565b600073ffffffffffffffffffffffffffffffffffffffff168273ffffffffffffffffffffffffffffffffffffffff1603612c7b576040517f08c379a0000000000000000000000000000000000000000000000000000000008152600401612c729061491f565b60405180910390fd5b612c8481612262565b15612cc4576040517f08c379a0000000000000000000000000000000000000000000000000000000008152600401612cbb9061498b565b60405180910390fd5b612cd260008383600161246d565b612cdb81612262565b15612d1b576040517f08c379a0000000000000000000000000000000000000000000000000000000008152600401612d129061498b565b60405180910390fd5b6001600360008473ffffffffffffffffffffffffffffffffffffffff1673ffffffffffffffffffffffffffffffffffffffff16815260200190815260200160002060008282540192505081905550816002600083815260200190815260200160002060006101000a81548173ffffffffffffffffffffffffffffffffffffffff021916908373ffffffffffffffffffffffffffffffffffffffff160217905550808273ffffffffffffffffffffffffffffffffffffffff16600073ffffffffffffffffffffffffffffffffffffffff167fddf252ad1be2c89b69c2b068fc378daa952ba7f163c4a11628f55a4df523b3ef60405160405180910390a4612e256000838360016125cb565b5050565b6000604051905090565b600080fd5b600080fd5b60007fffffffff0000000000000000000000000000000000000000000000000000000082169050919050565b612e7281612e3d565b8114612e7d57600080fd5b50565b600081359050612e8f81612e69565b92915050565b600060208284031215612eab57612eaa612e33565b5b6000612eb984828501612e80565b91505092915050565b60008115159050919050565b612ed781612ec2565b82525050565b6000602082019050612ef26000830184612ece565b92915050565b600081519050919050565b600082825260208201905092915050565b60005b83811015612f32578082015181840152602081019050612f17565b60008484015250505050565b6000601f19601f8301169050919050565b6000612f5a82612ef8565b612f648185612f03565b9350612f74818560208601612f14565b612f7d81612f3e565b840191505092915050565b60006020820190508181036000830152612fa28184612f4f565b905092915050565b6000819050919050565b612fbd81612faa565b8114612fc857600080fd5b50565b600081359050612fda81612fb4565b92915050565b600060208284031215612ff657612ff5612e33565b5b600061300484828501612fcb565b91505092915050565b600073ffffffffffffffffffffffffffffffffffffffff82169050919050565b60006130388261300d565b9050919050565b6130488161302d565b82525050565b6000602082019050613063600083018461303f565b92915050565b6130728161302d565b811461307d57600080fd5b50565b60008135905061308f81613069565b92915050565b600080604083850312156130ac576130ab612e33565b5b60006130ba85828601613080565b92505060206130cb85828601612fcb565b9150509250929050565b6130de81612faa565b82525050565b60006020820190506130f960008301846130d5565b92915050565b60008060006060848603121561311857613117612e33565b5b600061312686828701613080565b935050602061313786828701613080565b925050604061314886828701612fcb565b9150509250925092565b60006020828403121561316857613167612e33565b5b600061317684828501613080565b91505092915050565b600081519050919050565b600082825260208201905092915050565b6000819050602082019050919050565b6131b481612faa565b82525050565b60006131c683836131ab565b60208301905092915050565b6000602082019050919050565b60006131ea8261317f565b6131f4818561318a565b93506131ff8361319b565b8060005b8381101561323057815161321788826131ba565b9750613222836131d2565b925050600181019050613203565b5085935050505092915050565b6000602082019050818103600083015261325781846131df565b905092915050565b600080fd5b600080fd5b7f4e487b7100000000000000000000000000000000000000000000000000000000600052604160045260246000fd5b6132a182612f3e565b810181811067ffffffffffffffff821117156132c0576132bf613269565b5b80604052505050565b60006132d3612e29565b90506132df8282613298565b919050565b600067ffffffffffffffff8211156132ff576132fe613269565b5b61330882612f3e565b9050602081019050919050565b82818337600083830152505050565b6000613337613332846132e4565b6132c9565b90508281526020810184848401111561335357613352613264565b5b61335e848285613315565b509392505050565b600082601f83011261337b5761337a61325f565b5b813561338b848260208601613324565b91505092915050565b6000602082840312156133aa576133a9612e33565b5b600082013567ffffffffffffffff8111156133c8576133c7612e38565b5b6133d484828501613366565b91505092915050565b6133e681612ec2565b81146133f157600080fd5b50565b600081359050613403816133dd565b92915050565b60006020828403121561341f5761341e612e33565b5b600061342d848285016133f4565b91505092915050565b6000806040838503121561344d5761344c612e33565b5b600061345b85828601613080565b925050602061346c858286016133f4565b9150509250929050565b600067ffffffffffffffff82111561349157613490613269565b5b602082029050602081019050919050565b600080fd5b60006134ba6134b584613476565b6132c9565b905080838252602082019050602084028301858111156134dd576134dc6134a2565b5b835b8181101561350657806134f28882613080565b8452602084019350506020810190506134df565b5050509392505050565b600082601f8301126135255761352461325f565b5b81356135358482602086016134a7565b91505092915050565b60006020828403121561355457613553612e33565b5b600082013567ffffffffffffffff81111561357257613571612e38565b5b61357e84828501613510565b91505092915050565b600067ffffffffffffffff8211156135a2576135a1613269565b5b6135ab82612f3e565b9050602081019050919050565b60006135cb6135c684613587565b6132c9565b9050828152602081018484840111156135e7576135e6613264565b5b6135f2848285613315565b509392505050565b600082601f83011261360f5761360e61325f565b5b813561361f8482602086016135b8565b91505092915050565b6000806000806080858703121561364257613641612e33565b5b600061365087828801613080565b945050602061366187828801613080565b935050604061367287828801612fcb565b925050606085013567ffffffffffffffff81111561369357613692612e38565b5b61369f878288016135fa565b91505092959194509250565b600080604083850312156136c2576136c1612e33565b5b60006136d085828601613080565b92505060206136e185828601613080565b9150509250929050565b7f4e487b7100000000000000000000000000000000000000000000000000000000600052602260045260246000fd5b6000600282049050600182168061373257607f821691505b602082108103613745576137446136eb565b5b50919050565b7f4552433732313a20617070726f76616c20746f2063757272656e74206f776e6560008201527f7200000000000000000000000000000000000000000000000000000000000000602082015250565b60006137a7602183612f03565b91506137b28261374b565b604082019050919050565b600060208201905081810360008301526137d68161379a565b9050919050565b7f4552433732313a20617070726f76652063616c6c6572206973206e6f7420746f60008201527f6b656e206f776e6572206f7220617070726f76656420666f7220616c6c000000602082015250565b6000613839603d83612f03565b9150613844826137dd565b604082019050919050565b600060208201905081810360008301526138688161382c565b9050919050565b7f4552433732313a2063616c6c6572206973206e6f7420746f6b656e206f776e6560008201527f72206f7220617070726f76656400000000000000000000000000000000000000602082015250565b60006138cb602d83612f03565b91506138d68261386f565b604082019050919050565b600060208201905081810360008301526138fa816138be565b9050919050565b7f455243373231456e756d657261626c653a206f776e657220696e646578206f7560008201527f74206f6620626f756e6473000000000000000000000000000000000000000000602082015250565b600061395d602b83612f03565b915061396882613901565b604082019050919050565b6000602082019050818103600083015261398c81613950565b9050919050565b600081905092915050565b50565b60006139ae600083613993565b91506139b98261399e565b600082019050919050565b60006139cf826139a1565b9150819050919050565b7f5472616e73666572206661696c65642e00000000000000000000000000000000600082015250565b6000613a0f601083612f03565b9150613a1a826139d9565b602082019050919050565b60006020820190508181036000830152613a3e81613a02565b9050919050565b7f436f6e7472616374206973207061757365640000000000000000000000000000600082015250565b6000613a7b601283612f03565b9150613a8682613a45565b602082019050919050565b60006020820190508181036000830152613aaa81613a6e565b9050919050565b7f4d757374206d696e74206174206c656173742031000000000000000000000000600082015250565b6000613ae7601483612f03565b9150613af282613ab1565b602082019050919050565b60006020820190508181036000830152613b1681613ada565b9050919050565b7f43616e6e6f74206d696e74206d6f7265207468616e203130206174206f6e6365600082015250565b6000613b53602083612f03565b9150613b5e82613b1d565b602082019050919050565b60006020820190508181036000830152613b8281613b46565b9050919050565b7f4e487b7100000000000000000000000000000000000000000000000000000000600052601160045260246000fd5b6000613bc382612faa565b9150613bce83612faa565b9250828201905080821115613be657613be5613b89565b5b92915050565b7f4d696e7420616d6f756e742065786365656473206d617820737570706c790000600082015250565b6000613c22601e83612f03565b9150613c2d82613bec565b602082019050919050565b60006020820190508181036000830152613c5181613c15565b9050919050565b7f416c6c6f776c697374206d656d626572732063616e206f6e6c79206d696e742060008201527f3120426c6f625374617200000000000000000000000000000000000000000000602082015250565b6000613cb4602a83612f03565b9150613cbf82613c58565b604082019050919050565b60006020820190508181036000830152613ce381613ca7565b9050919050565b6000613cf582612faa565b9150613d0083612faa565b9250828202613d0e81612faa565b91508282048414831517613d2557613d24613b89565b5b5092915050565b7f4e6f7420656e6f756768204554482073656e7400000000000000000000000000600082015250565b6000613d62601383612f03565b9150613d6d82613d2c565b602082019050919050565b60006020820190508181036000830152613d9181613d55565b9050919050565b6000613da382612faa565b91507fffffffffffffffffffffffffffffffffffffffffffffffffffffffffffffffff8203613dd557613dd4613b89565b5b600182019050919050565b7f4e487b7100000000000000000000000000000000000000000000000000000000600052603260045260246000fd5b7f455243373231456e756d657261626c653a20676c6f62616c20696e646578206f60008201527f7574206f6620626f756e64730000000000000000000000000000000000000000602082015250565b6000613e6b602c83612f03565b9150613e7682613e0f565b604082019050919050565b60006020820190508181036000830152613e9a81613e5e565b9050919050565b60008190508160005260206000209050919050565b60006020601f8301049050919050565b600082821b905092915050565b600060088302613f037fffffffffffffffffffffffffffffffffffffffffffffffffffffffffffffffff82613ec6565b613f0d8683613ec6565b95508019841693508086168417925050509392505050565b6000819050919050565b6000613f4a613f45613f4084612faa565b613f25565b612faa565b9050919050565b6000819050919050565b613f6483613f2f565b613f78613f7082613f51565b848454613ed3565b825550505050565b600090565b613f8d613f80565b613f98818484613f5b565b505050565b5b81811015613fbc57613fb1600082613f85565b600181019050613f9e565b5050565b601f82111561400157613fd281613ea1565b613fdb84613eb6565b81016020851015613fea578190505b613ffe613ff685613eb6565b830182613f9d565b50505b505050565b600082821c905092915050565b600061402460001984600802614006565b1980831691505092915050565b600061403d8383614013565b9150826002028217905092915050565b61405682612ef8565b67ffffffffffffffff81111561406f5761406e613269565b5b614079825461371a565b614084828285613fc0565b600060209050601f8311600181146140b757600084156140a5578287015190505b6140af8582614031565b865550614117565b601f1984166140c586613ea1565b60005b828110156140ed578489015182556001820191506020850194506020810190506140c8565b8683101561410a5784890151614106601f891682614013565b8355505b6001600288020188555050505b505050505050565b7f4552433732313a20696e76616c696420746f6b656e2049440000000000000000600082015250565b6000614155601883612f03565b91506141608261411f565b602082019050919050565b6000602082019050818103600083015261418481614148565b9050919050565b7f4552433732313a2061646472657373207a65726f206973206e6f74206120766160008201527f6c6964206f776e65720000000000000000000000000000000000000000000000602082015250565b60006141e7602983612f03565b91506141f28261418b565b604082019050919050565b60006020820190508181036000830152614216816141da565b9050919050565b7f4552433732314d657461646174613a2055524920717565727920666f72206e6f60008201527f6e6578697374656e7420746f6b656e0000000000000000000000000000000000602082015250565b6000614279602f83612f03565b91506142848261421d565b604082019050919050565b600060208201905081810360008301526142a88161426c565b9050919050565b600081905092915050565b60006142c582612ef8565b6142cf81856142af565b93506142df818560208601612f14565b80840191505092915050565b600081546142f88161371a565b61430281866142af565b9450600182166000811461431d576001811461433257614365565b60ff1983168652811515820286019350614365565b61433b85613ea1565b60005b8381101561435d5781548189015260018201915060208101905061433e565b838801955050505b50505092915050565b600061437a82876142ba565b915061438682866142eb565b915061439282856142ba565b915061439e82846142eb565b915081905095945050505050565b7f4f776e61626c653a206e6577206f776e657220697320746865207a65726f206160008201527f6464726573730000000000000000000000000000000000000000000000000000602082015250565b6000614408602683612f03565b9150614413826143ac565b604082019050919050565b60006020820190508181036000830152614437816143fb565b9050919050565b7f4f776e61626c653a2063616c6c6572206973206e6f7420746865206f776e6572600082015250565b6000614474602083612f03565b915061447f8261443e565b602082019050919050565b600060208201905081810360008301526144a381614467565b9050919050565b7f4552433732313a207472616e736665722066726f6d20696e636f72726563742060008201527f6f776e6572000000000000000000000000000000000000000000000000000000602082015250565b6000614506602583612f03565b9150614511826144aa565b604082019050919050565b60006020820190508181036000830152614535816144f9565b9050919050565b7f4552433732313a207472616e7366657220746f20746865207a65726f2061646460008201527f7265737300000000000000000000000000000000000000000000000000000000602082015250565b6000614598602483612f03565b91506145a38261453c565b604082019050919050565b600060208201905081810360008301526145c78161458b565b9050919050565b7f4552433732313a20617070726f766520746f2063616c6c657200000000000000600082015250565b6000614604601983612f03565b915061460f826145ce565b602082019050919050565b60006020820190508181036000830152614633816145f7565b9050919050565b7f4552433732313a207472616e7366657220746f206e6f6e20455243373231526560008201527f63656976657220696d706c656d656e7465720000000000000000000000000000602082015250565b6000614696603283612f03565b91506146a18261463a565b604082019050919050565b600060208201905081810360008301526146c581614689565b9050919050565b7f4e487b7100000000000000000000000000000000000000000000000000000000600052601260045260246000fd5b7f455243373231456e756d657261626c653a20636f6e736563757469766520747260008201527f616e7366657273206e6f7420737570706f727465640000000000000000000000602082015250565b6000614757603583612f03565b9150614762826146fb565b604082019050919050565b600060208201905081810360008301526147868161474a565b9050919050565b600081519050919050565b600082825260208201905092915050565b60006147b48261478d565b6147be8185614798565b93506147ce818560208601612f14565b6147d781612f3e565b840191505092915050565b60006080820190506147f7600083018761303f565b614804602083018661303f565b61481160408301856130d5565b818103606083015261482381846147a9565b905095945050505050565b60008151905061483d81612e69565b92915050565b60006020828403121561485957614858612e33565b5b60006148678482850161482e565b91505092915050565b600061487b82612faa565b915061488683612faa565b925082820390508181111561489e5761489d613b89565b5b92915050565b7f4e487b7100000000000000000000000000000000000000000000000000000000600052603160045260246000fd5b7f4552433732313a206d696e7420746f20746865207a65726f2061646472657373600082015250565b6000614909602083612f03565b9150614914826148d3565b602082019050919050565b60006020820190508181036000830152614938816148fc565b9050919050565b7f4552433732313a20746f6b656e20616c7265616479206d696e74656400000000600082015250565b6000614975601c83612f03565b91506149808261493f565b602082019050919050565b600060208201905081810360008301526149a481614968565b905091905056fea26469706673582212203a63def11a215f36919d86eb7dbd986184f92a65ce855f7049260ba4656fe23564736f6c63430008110033",
  "linkReferences": {},
  "deployedLinkReferences": {}
}