{
  "contractName": "BlobStars_dev",
  "abi": [
    {
      "inputs": [
        {
          "internalType": "string",
          "name": "_name",
          "type": "string"
        },
        {
          "internalType": "string",
          "name": "_symbol",
          "type": "string"
        },
        {
          "internalType": "string",
          "name": "_initBaseURI",
          "type": "string"
        }
      ],
      "stateMutability": "nonpayable",
      "type": "constructor"
    },
    {
      "anonymous": false,
      "inputs": [
        {
          "indexed": true,
          "internalType": "address",
          "name": "owner",
          "type": "address"
        },
        {
          "indexed": true,
          "internalType": "address",
          "name": "approved",
          "type": "address"
        },
        {
          "indexed": true,
          "internalType": "uint256",
          "name": "tokenId",
          "type": "uint256"
        }
      ],
      "name": "Approval",
      "type": "event"
    },
    {
      "anonymous": false,
      "inputs": [
        {
          "indexed": true,
          "internalType": "address",
          "name": "owner",
          "type": "address"
        },
        {
          "indexed": true,
          "internalType": "address",
          "name": "operator",
          "type": "address"
        },
        {
          "indexed": false,
          "internalType": "bool",
          "name": "approved",
          "type": "bool"
        }
      ],
      "name": "ApprovalForAll",
      "type": "event"
    },
    {
      "anonymous": false,
      "inputs": [
        {
          "indexed": true,
          "internalType": "address",
          "name": "previousOwner",
          "type": "address"
        },
        {
          "indexed": true,
          "internalType": "address",
          "name": "newOwner",
          "type": "address"
        }
      ],
      "name": "OwnershipTransferred",
      "type": "event"
    },
    {
      "anonymous": false,
      "inputs": [
        {
          "indexed": true,
          "internalType": "address",
          "name": "from",
          "type": "address"
        },
        {
          "indexed": true,
          "internalType": "address",
          "name": "to",
          "type": "address"
        },
        {
          "indexed": true,
          "internalType": "uint256",
          "name": "tokenId",
          "type": "uint256"
        }
      ],
      "name": "Transfer",
      "type": "event"
    },
    {
      "inputs": [
        {
          "internalType": "address",
          "name": "",
          "type": "address"
        }
      ],
      "name": "allowlist",
      "outputs": [
        {
          "internalType": "bool",
          "name": "",
          "type": "bool"
        }
      ],
      "stateMutability": "view",
      "type": "function"
    },
    {
      "inputs": [
        {
          "internalType": "address",
          "name": "to",
          "type": "address"
        },
        {
          "internalType": "uint256",
          "name": "tokenId",
          "type": "uint256"
        }
      ],
      "name": "approve",
      "outputs": [],
      "stateMutability": "nonpayable",
      "type": "function"
    },
    {
      "inputs": [
        {
          "internalType": "address",
          "name": "owner",
          "type": "address"
        }
      ],
      "name": "balanceOf",
      "outputs": [
        {
          "internalType": "uint256",
          "name": "",
          "type": "uint256"
        }
      ],
      "stateMutability": "view",
      "type": "function"
    },
    {
      "inputs": [],
      "name": "baseExtension",
      "outputs": [
        {
          "internalType": "string",
          "name": "",
          "type": "string"
        }
      ],
      "stateMutability": "view",
      "type": "function"
    },
    {
      "inputs": [],
      "name": "baseURI",
      "outputs": [
        {
          "internalType": "string",
          "name": "",
          "type": "string"
        }
      ],
      "stateMutability": "view",
      "type": "function"
    },
    {
      "inputs": [],
      "name": "cost",
      "outputs": [
        {
          "internalType": "uint256",
          "name": "",
          "type": "uint256"
        }
      ],
      "stateMutability": "view",
      "type": "function"
    },
    {
      "inputs": [
        {
          "internalType": "uint256",
          "name": "tokenId",
          "type": "uint256"
        }
      ],
      "name": "getApproved",
      "outputs": [
        {
          "internalType": "address",
          "name": "",
          "type": "address"
        }
      ],
      "stateMutability": "view",
      "type": "function"
    },
    {
      "inputs": [
        {
          "internalType": "address",
          "name": "owner",
          "type": "address"
        },
        {
          "internalType": "address",
          "name": "operator",
          "type": "address"
        }
      ],
      "name": "isApprovedForAll",
      "outputs": [
        {
          "internalType": "bool",
          "name": "",
          "type": "bool"
        }
      ],
      "stateMutability": "view",
      "type": "function"
    },
    {
      "inputs": [],
      "name": "maxMintAmount",
      "outputs": [
        {
          "internalType": "uint256",
          "name": "",
          "type": "uint256"
        }
      ],
      "stateMutability": "view",
      "type": "function"
    },
    {
      "inputs": [],
      "name": "maxSupply",
      "outputs": [
        {
          "internalType": "uint256",
          "name": "",
          "type": "uint256"
        }
      ],
      "stateMutability": "view",
      "type": "function"
    },
    {
      "inputs": [],
      "name": "metaDataFolder",
      "outputs": [
        {
          "internalType": "string",
          "name": "",
          "type": "string"
        }
      ],
      "stateMutability": "view",
      "type": "function"
    },
    {
      "inputs": [],
      "name": "name",
      "outputs": [
        {
          "internalType": "string",
          "name": "",
          "type": "string"
        }
      ],
      "stateMutability": "view",
      "type": "function"
    },
    {
      "inputs": [],
      "name": "owner",
      "outputs": [
        {
          "internalType": "address",
          "name": "",
          "type": "address"
        }
      ],
      "stateMutability": "view",
      "type": "function"
    },
    {
      "inputs": [
        {
          "internalType": "uint256",
          "name": "tokenId",
          "type": "uint256"
        }
      ],
      "name": "ownerOf",
      "outputs": [
        {
          "internalType": "address",
          "name": "",
          "type": "address"
        }
      ],
      "stateMutability": "view",
      "type": "function"
    },
    {
      "inputs": [],
      "name": "paused",
      "outputs": [
        {
          "internalType": "bool",
          "name": "",
          "type": "bool"
        }
      ],
      "stateMutability": "view",
      "type": "function"
    },
    {
      "inputs": [],
      "name": "presale",
      "outputs": [
        {
          "internalType": "bool",
          "name": "",
          "type": "bool"
        }
      ],
      "stateMutability": "view",
      "type": "function"
    },
    {
      "inputs": [],
      "name": "renounceOwnership",
      "outputs": [],
      "stateMutability": "nonpayable",
      "type": "function"
    },
    {
      "inputs": [
        {
          "internalType": "address",
          "name": "from",
          "type": "address"
        },
        {
          "internalType": "address",
          "name": "to",
          "type": "address"
        },
        {
          "internalType": "uint256",
          "name": "tokenId",
          "type": "uint256"
        }
      ],
      "name": "safeTransferFrom",
      "outputs": [],
      "stateMutability": "nonpayable",
      "type": "function"
    },
    {
      "inputs": [
        {
          "internalType": "address",
          "name": "from",
          "type": "address"
        },
        {
          "internalType": "address",
          "name": "to",
          "type": "address"
        },
        {
          "internalType": "uint256",
          "name": "tokenId",
          "type": "uint256"
        },
        {
          "internalType": "bytes",
          "name": "_data",
          "type": "bytes"
        }
      ],
      "name": "safeTransferFrom",
      "outputs": [],
      "stateMutability": "nonpayable",
      "type": "function"
    },
    {
      "inputs": [
        {
          "internalType": "address",
          "name": "operator",
          "type": "address"
        },
        {
          "internalType": "bool",
          "name": "approved",
          "type": "bool"
        }
      ],
      "name": "setApprovalForAll",
      "outputs": [],
      "stateMutability": "nonpayable",
      "type": "function"
    },
    {
      "inputs": [
        {
          "internalType": "bytes4",
          "name": "interfaceId",
          "type": "bytes4"
        }
      ],
      "name": "supportsInterface",
      "outputs": [
        {
          "internalType": "bool",
          "name": "",
          "type": "bool"
        }
      ],
      "stateMutability": "view",
      "type": "function"
    },
    {
      "inputs": [],
      "name": "symbol",
      "outputs": [
        {
          "internalType": "string",
          "name": "",
          "type": "string"
        }
      ],
      "stateMutability": "view",
      "type": "function"
    },
    {
      "inputs": [
        {
          "internalType": "uint256",
          "name": "index",
          "type": "uint256"
        }
      ],
      "name": "tokenByIndex",
      "outputs": [
        {
          "internalType": "uint256",
          "name": "",
          "type": "uint256"
        }
      ],
      "stateMutability": "view",
      "type": "function"
    },
    {
      "inputs": [
        {
          "internalType": "address",
          "name": "owner",
          "type": "address"
        },
        {
          "internalType": "uint256",
          "name": "index",
          "type": "uint256"
        }
      ],
      "name": "tokenOfOwnerByIndex",
      "outputs": [
        {
          "internalType": "uint256",
          "name": "",
          "type": "uint256"
        }
      ],
      "stateMutability": "view",
      "type": "function"
    },
    {
      "inputs": [],
      "name": "totalSupply",
      "outputs": [
        {
          "internalType": "uint256",
          "name": "",
          "type": "uint256"
        }
      ],
      "stateMutability": "view",
      "type": "function"
    },
    {
      "inputs": [
        {
          "internalType": "address",
          "name": "from",
          "type": "address"
        },
        {
          "internalType": "address",
          "name": "to",
          "type": "address"
        },
        {
          "internalType": "uint256",
          "name": "tokenId",
          "type": "uint256"
        }
      ],
      "name": "transferFrom",
      "outputs": [],
      "stateMutability": "nonpayable",
      "type": "function"
    },
    {
      "inputs": [
        {
          "internalType": "address",
          "name": "newOwner",
          "type": "address"
        }
      ],
      "name": "transferOwnership",
      "outputs": [],
      "stateMutability": "nonpayable",
      "type": "function"
    },
    {
      "inputs": [
        {
          "internalType": "address",
          "name": "_to",
          "type": "address"
        },
        {
          "internalType": "uint256",
          "name": "_mintAmount",
          "type": "uint256"
        }
      ],
      "name": "mint",
      "outputs": [],
      "stateMutability": "payable",
      "type": "function"
    },
    {
      "inputs": [
        {
          "internalType": "address",
          "name": "_owner",
          "type": "address"
        }
      ],
      "name": "walletOfOwner",
      "outputs": [
        {
          "internalType": "uint256[]",
          "name": "",
          "type": "uint256[]"
        }
      ],
      "stateMutability": "view",
      "type": "function"
    },
    {
      "inputs": [
        {
          "internalType": "uint256",
          "name": "tokenId",
          "type": "uint256"
        }
      ],
      "name": "tokenURI",
      "outputs": [
        {
          "internalType": "string",
          "name": "",
          "type": "string"
        }
      ],
      "stateMutability": "view",
      "type": "function"
    },
    {
      "inputs": [
        {
          "internalType": "uint256",
          "name": "_newCost",
          "type": "uint256"
        }
      ],
      "name": "setCost",
      "outputs": [],
      "stateMutability": "nonpayable",
      "type": "function"
    },
    {
      "inputs": [
        {
          "internalType": "uint256",
          "name": "_newMaxMintAmount",
          "type": "uint256"
        }
      ],
      "name": "setMaxMintAmount",
      "outputs": [],
      "stateMutability": "nonpayable",
      "type": "function"
    },
    {
      "inputs": [
        {
          "internalType": "string",
          "name": "_newBaseURI",
          "type": "string"
        }
      ],
      "name": "setBaseURI",
      "outputs": [],
      "stateMutability": "nonpayable",
      "type": "function"
    },
    {
      "inputs": [
        {
          "internalType": "string",
          "name": "_newBaseExtension",
          "type": "string"
        }
      ],
      "name": "setBaseExtension",
      "outputs": [],
      "stateMutability": "nonpayable",
      "type": "function"
    },
    {
      "inputs": [
        {
          "internalType": "bool",
          "name": "_state",
          "type": "bool"
        }
      ],
      "name": "togglePause",
      "outputs": [],
      "stateMutability": "nonpayable",
      "type": "function"
    },
    {
      "inputs": [
        {
          "internalType": "bool",
          "name": "_state",
          "type": "bool"
        }
      ],
      "name": "togglePresale",
      "outputs": [],
      "stateMutability": "nonpayable",
      "type": "function"
    },
    {
      "inputs": [
        {
          "internalType": "address[]",
          "name": "_arr",
          "type": "address[]"
        }
      ],
      "name": "allowlistUser",
      "outputs": [],
      "stateMutability": "nonpayable",
      "type": "function"
    },
    {
      "inputs": [
        {
          "internalType": "address[]",
          "name": "_arr",
          "type": "address[]"
        }
      ],
      "name": "removeAllowlistUser",
      "outputs": [],
      "stateMutability": "nonpayable",
      "type": "function"
    },
    {
      "inputs": [],
      "name": "withdraw",
      "outputs": [],
      "stateMutability": "payable",
      "type": "function"
    }
  ],
  "bytecode": "0x60806040526040518060400160405280600581526020017f2e6a736f6e000000000000000000000000000000000000000000000000000000815250600c90805190602001906200005192919062001187565b506040518060400160405280600981526020017f6d657461646174612f0000000000000000000000000000000000000000000000815250600d90805190602001906200009f92919062001187565b5066b1a2bc2ec50000600e55612710600f5560056010556000601160006101000a81548160ff0219169083151502179055506000601160016101000a81548160ff021916908315150217905550348015620000f957600080fd5b50604051620069313803806200693183398181016040528101906200011f9190620012ec565b828281600090805190602001906200013992919062001187565b5080600190805190602001906200015292919062001187565b5050506200017562000169620001a260201b60201c565b620001aa60201b60201c565b62000186816200027060201b60201c565b620001993360056200031b60201b60201c565b50505062001c6b565b600033905090565b6000600a60009054906101000a900473ffffffffffffffffffffffffffffffffffffffff16905081600a60006101000a81548173ffffffffffffffffffffffffffffffffffffffff021916908373ffffffffffffffffffffffffffffffffffffffff1602179055508173ffffffffffffffffffffffffffffffffffffffff168173ffffffffffffffffffffffffffffffffffffffff167f8be0079c531659141344cd1fd0a4f28419497f9722a3daafe3b4186f6b6457e060405160405180910390a35050565b62000280620001a260201b60201c565b73ffffffffffffffffffffffffffffffffffffffff16620002a6620006fc60201b60201c565b73ffffffffffffffffffffffffffffffffffffffff1614620002ff576040517f08c379a0000000000000000000000000000000000000000000000000000000008152600401620002f6906200187a565b60405180910390fd5b80600b90805190602001906200031792919062001187565b5050565b60006200032d6200072660201b60201c565b9050601160019054906101000a900460ff161562000382576040517f08c379a00000000000000000000000000000000000000000000000000000000081526004016200037990620018e0565b60405180910390fd5b60008211620003c8576040517f08c379a0000000000000000000000000000000000000000000000000000000008152600401620003bf90620018be565b60405180910390fd5b60105482111562000410576040517f08c379a00000000000000000000000000000000000000000000000000000000081526004016200040790620017f2565b60405180910390fd5b600f54828262000421919062001996565b111562000465576040517f08c379a00000000000000000000000000000000000000000000000000000000081526004016200045c9062001836565b60405180910390fd5b62000475620006fc60201b60201c565b73ffffffffffffffffffffffffffffffffffffffff163373ffffffffffffffffffffffffffffffffffffffff1614620006b257601160009054906101000a900460ff1615620005aa5760011515601260003373ffffffffffffffffffffffffffffffffffffffff1673ffffffffffffffffffffffffffffffffffffffff16815260200190815260200160002060009054906101000a900460ff1615151462000554576040517f08c379a00000000000000000000000000000000000000000000000000000000081526004016200054b90620017ae565b60405180910390fd5b81600e54620005649190620019f3565b341015620005a9576040517f08c379a0000000000000000000000000000000000000000000000000000000008152600401620005a0906200189c565b60405180910390fd5b5b60011515601260003373ffffffffffffffffffffffffffffffffffffffff1673ffffffffffffffffffffffffffffffffffffffff16815260200190815260200160002060009054906101000a900460ff16151514620006595781600e54620006139190620019f3565b34101562000658576040517f08c379a00000000000000000000000000000000000000000000000000000000081526004016200064f906200189c565b60405180910390fd5b5b6000601260003373ffffffffffffffffffffffffffffffffffffffff1673ffffffffffffffffffffffffffffffffffffffff16815260200190815260200160002060006101000a81548160ff0219169083151502179055505b6000600190505b828111620006f657620006e0848284620006d4919062001996565b6200073360201b60201c565b8080620006ed9062001b65565b915050620006b9565b50505050565b6000600a60009054906101000a900473ffffffffffffffffffffffffffffffffffffffff16905090565b6000600880549050905090565b620007558282604051806020016040528060008152506200075960201b60201c565b5050565b6200076b8383620007c760201b60201c565b620007806000848484620009ad60201b60201c565b620007c2576040517f08c379a0000000000000000000000000000000000000000000000000000000008152600401620007b9906200178c565b60405180910390fd5b505050565b600073ffffffffffffffffffffffffffffffffffffffff168273ffffffffffffffffffffffffffffffffffffffff1614156200083a576040517f08c379a0000000000000000000000000000000000000000000000000000000008152600401620008319062001858565b60405180910390fd5b6200084b8162000b6760201b60201c565b156200088e576040517f08c379a00000000000000000000000000000000000000000000000000000000081526004016200088590620017d0565b60405180910390fd5b620008a26000838362000bd360201b60201c565b6001600360008473ffffffffffffffffffffffffffffffffffffffff1673ffffffffffffffffffffffffffffffffffffffff1681526020019081526020016000206000828254620008f4919062001996565b92505081905550816002600083815260200190815260200160002060006101000a81548173ffffffffffffffffffffffffffffffffffffffff021916908373ffffffffffffffffffffffffffffffffffffffff160217905550808273ffffffffffffffffffffffffffffffffffffffff16600073ffffffffffffffffffffffffffffffffffffffff167fddf252ad1be2c89b69c2b068fc378daa952ba7f163c4a11628f55a4df523b3ef60405160405180910390a45050565b6000620009db8473ffffffffffffffffffffffffffffffffffffffff1662000d1a60201b620021f61760201c565b1562000b5a578373ffffffffffffffffffffffffffffffffffffffff1663150b7a0262000a0d620001a260201b60201c565b8786866040518563ffffffff1660e01b815260040162000a31949392919062001738565b602060405180830381600087803b15801562000a4c57600080fd5b505af192505050801562000a8057506040513d601f19601f8201168201806040525081019062000a7d9190620012c0565b60015b62000b09573d806000811462000ab3576040519150601f19603f3d011682016040523d82523d6000602084013e62000ab8565b606091505b5060008151141562000b01576040517f08c379a000000000000000000000000000000000000000000000000000000000815260040162000af8906200178c565b60405180910390fd5b805181602001fd5b63150b7a0260e01b7bffffffffffffffffffffffffffffffffffffffffffffffffffffffff1916817bffffffffffffffffffffffffffffffffffffffffffffffffffffffff19161491505062000b5f565b600190505b949350505050565b60008073ffffffffffffffffffffffffffffffffffffffff166002600084815260200190815260200160002060009054906101000a900473ffffffffffffffffffffffffffffffffffffffff1673ffffffffffffffffffffffffffffffffffffffff1614159050919050565b62000beb83838362000d2d60201b620022091760201c565b600073ffffffffffffffffffffffffffffffffffffffff168373ffffffffffffffffffffffffffffffffffffffff16141562000c385762000c328162000d3260201b60201c565b62000c80565b8173ffffffffffffffffffffffffffffffffffffffff168373ffffffffffffffffffffffffffffffffffffffff161462000c7f5762000c7e838262000d7b60201b60201c565b5b5b600073ffffffffffffffffffffffffffffffffffffffff168273ffffffffffffffffffffffffffffffffffffffff16141562000ccd5762000cc78162000ef860201b60201c565b62000d15565b8273ffffffffffffffffffffffffffffffffffffffff168273ffffffffffffffffffffffffffffffffffffffff161462000d145762000d1382826200104060201b60201c565b5b5b505050565b600080823b905060008111915050919050565b505050565b6008805490506009600083815260200190815260200160002081905550600881908060018154018082558091505060019003906000526020600020016000909190919091505550565b6000600162000d9584620010cc60201b620017851760201c565b62000da1919062001a54565b905060006007600084815260200190815260200160002054905081811462000e87576000600660008673ffffffffffffffffffffffffffffffffffffffff1673ffffffffffffffffffffffffffffffffffffffff168152602001908152602001600020600084815260200190815260200160002054905080600660008773ffffffffffffffffffffffffffffffffffffffff1673ffffffffffffffffffffffffffffffffffffffff168152602001908152602001600020600084815260200190815260200160002081905550816007600083815260200190815260200160002081905550505b6007600084815260200190815260200160002060009055600660008573ffffffffffffffffffffffffffffffffffffffff1673ffffffffffffffffffffffffffffffffffffffff16815260200190815260200160002060008381526020019081526020016000206000905550505050565b6000600160088054905062000f0e919062001a54565b905060006009600084815260200190815260200160002054905060006008838154811062000f65577f4e487b7100000000000000000000000000000000000000000000000000000000600052603260045260246000fd5b90600052602060002001549050806008838154811062000fae577f4e487b7100000000000000000000000000000000000000000000000000000000600052603260045260246000fd5b90600052602060002001819055508160096000838152602001908152602001600020819055506009600085815260200190815260200160002060009055600880548062001024577f4e487b7100000000000000000000000000000000000000000000000000000000600052603160045260246000fd5b6001900381819060005260206000200160009055905550505050565b60006200105883620010cc60201b620017851760201c565b905081600660008573ffffffffffffffffffffffffffffffffffffffff1673ffffffffffffffffffffffffffffffffffffffff168152602001908152602001600020600083815260200190815260200160002081905550806007600084815260200190815260200160002081905550505050565b60008073ffffffffffffffffffffffffffffffffffffffff168273ffffffffffffffffffffffffffffffffffffffff16141562001140576040517f08c379a0000000000000000000000000000000000000000000000000000000008152600401620011379062001814565b60405180910390fd5b600360008373ffffffffffffffffffffffffffffffffffffffff1673ffffffffffffffffffffffffffffffffffffffff168152602001908152602001600020549050919050565b828054620011959062001b2f565b90600052602060002090601f016020900481019282620011b9576000855562001205565b82601f10620011d457805160ff191683800117855562001205565b8280016001018555821562001205579182015b8281111562001204578251825591602001919060010190620011e7565b5b50905062001214919062001218565b5090565b5b808211156200123357600081600090555060010162001219565b5090565b60006200124e620012488462001936565b62001902565b9050828152602081018484840111156200126757600080fd5b6200127484828562001af9565b509392505050565b6000815190506200128d8162001c51565b92915050565b600082601f830112620012a557600080fd5b8151620012b784826020860162001237565b91505092915050565b600060208284031215620012d357600080fd5b6000620012e3848285016200127c565b91505092915050565b6000806000606084860312156200130257600080fd5b600084015167ffffffffffffffff8111156200131d57600080fd5b6200132b8682870162001293565b935050602084015167ffffffffffffffff8111156200134957600080fd5b620013578682870162001293565b925050604084015167ffffffffffffffff8111156200137557600080fd5b620013838682870162001293565b9150509250925092565b620013988162001a8f565b82525050565b6000620013ab8262001969565b620013b7818562001974565b9350620013c981856020860162001af9565b620013d48162001c40565b840191505092915050565b6000620013ee60328362001985565b91507f4552433732313a207472616e7366657220746f206e6f6e20455243373231526560008301527f63656976657220696d706c656d656e74657200000000000000000000000000006020830152604082019050919050565b60006200145660238362001985565b91507f41646472657373206e6f7420616c6c6f776c697374656420666f72207072657360008301527f616c6500000000000000000000000000000000000000000000000000000000006020830152604082019050919050565b6000620014be601c8362001985565b91507f4552433732313a20746f6b656e20616c7265616479206d696e746564000000006000830152602082019050919050565b600062001500601f8362001985565b91507f43616e6e6f74206d696e74206d6f7265207468616e2035206174206f6e6365006000830152602082019050919050565b600062001542602a8362001985565b91507f4552433732313a2062616c616e636520717565727920666f7220746865207a6560008301527f726f2061646472657373000000000000000000000000000000000000000000006020830152604082019050919050565b6000620015aa601e8362001985565b91507f4d696e7420616d6f756e742065786365656473206d617820737570706c7900006000830152602082019050919050565b6000620015ec60208362001985565b91507f4552433732313a206d696e7420746f20746865207a65726f20616464726573736000830152602082019050919050565b60006200162e60208362001985565b91507f4f776e61626c653a2063616c6c6572206973206e6f7420746865206f776e65726000830152602082019050919050565b60006200167060138362001985565b91507f4e6f7420656e6f756768204554482073656e74000000000000000000000000006000830152602082019050919050565b6000620016b260148362001985565b91507f4d757374206d696e74206174206c6561737420310000000000000000000000006000830152602082019050919050565b6000620016f460128362001985565b91507f436f6e74726163742069732070617573656400000000000000000000000000006000830152602082019050919050565b620017328162001aef565b82525050565b60006080820190506200174f60008301876200138d565b6200175e60208301866200138d565b6200176d604083018562001727565b81810360608301526200178181846200139e565b905095945050505050565b60006020820190508181036000830152620017a781620013df565b9050919050565b60006020820190508181036000830152620017c98162001447565b9050919050565b60006020820190508181036000830152620017eb81620014af565b9050919050565b600060208201905081810360008301526200180d81620014f1565b9050919050565b600060208201905081810360008301526200182f8162001533565b9050919050565b6000602082019050818103600083015262001851816200159b565b9050919050565b600060208201905081810360008301526200187381620015dd565b9050919050565b6000602082019050818103600083015262001895816200161f565b9050919050565b60006020820190508181036000830152620018b78162001661565b9050919050565b60006020820190508181036000830152620018d981620016a3565b9050919050565b60006020820190508181036000830152620018fb81620016e5565b9050919050565b6000604051905081810181811067ffffffffffffffff821117156200192c576200192b62001c11565b5b8060405250919050565b600067ffffffffffffffff82111562001954576200195362001c11565b5b601f19601f8301169050602081019050919050565b600081519050919050565b600082825260208201905092915050565b600082825260208201905092915050565b6000620019a38262001aef565b9150620019b08362001aef565b9250827fffffffffffffffffffffffffffffffffffffffffffffffffffffffffffffffff03821115620019e857620019e762001bb3565b5b828201905092915050565b600062001a008262001aef565b915062001a0d8362001aef565b9250817fffffffffffffffffffffffffffffffffffffffffffffffffffffffffffffffff048311821515161562001a495762001a4862001bb3565b5b828202905092915050565b600062001a618262001aef565b915062001a6e8362001aef565b92508282101562001a845762001a8362001bb3565b5b828203905092915050565b600062001a9c8262001acf565b9050919050565b60007fffffffff0000000000000000000000000000000000000000000000000000000082169050919050565b600073ffffffffffffffffffffffffffffffffffffffff82169050919050565b6000819050919050565b60005b8381101562001b1957808201518184015260208101905062001afc565b8381111562001b29576000848401525b50505050565b6000600282049050600182168062001b4857607f821691505b6020821081141562001b5f5762001b5e62001be2565b5b50919050565b600062001b728262001aef565b91507fffffffffffffffffffffffffffffffffffffffffffffffffffffffffffffffff82141562001ba85762001ba762001bb3565b5b600182019050919050565b7f4e487b7100000000000000000000000000000000000000000000000000000000600052601160045260246000fd5b7f4e487b7100000000000000000000000000000000000000000000000000000000600052602260045260246000fd5b7f4e487b7100000000000000000000000000000000000000000000000000000000600052604160045260246000fd5b6000601f19601f8301169050919050565b62001c5c8162001aa3565b811462001c6857600080fd5b50565b614cb68062001c7b6000396000f3fe6080604052600436106102305760003560e01c80636352211e1161012e578063b1dc7909116100ab578063da3ef23f1161006f578063da3ef23f14610833578063e25d28481461085c578063e985e9c514610885578063f2fde38b146108c2578063fdea8e0b146108eb57610230565b8063b1dc79091461074e578063b88d4fde14610777578063c6682862146107a0578063c87b56dd146107cb578063d5abeb011461080857610230565b80638da5cb5b116100f25780638da5cb5b146106675780639502743d1461069257806395d89b41146106bd578063a22cb465146106e8578063a7cd52cb1461071157610230565b80636352211e146105825780636b2ce7f1146105bf5780636c0360eb146105e857806370a0823114610613578063715018a61461065057610230565b80632f745c59116101bc57806344a0d68a1161018057806344a0d68a1461049f5780634f6ccce7146104c857806355f804b31461050557806357d159c61461052e5780635c975abb1461055757610230565b80632f745c59146103d65780633ccfd60b1461041357806340c10f191461041d57806342842e0e14610439578063438b63001461046257610230565b8063095ea7b311610203578063095ea7b31461030357806313faede61461032c57806318160ddd14610357578063239c70ae1461038257806323b872dd146103ad57610230565b806301ffc9a71461023557806306fdde0314610272578063081812fc1461029d578063088a4ed0146102da575b600080fd5b34801561024157600080fd5b5061025c6004803603810190610257919061380f565b610916565b604051610269919061440f565b60405180910390f35b34801561027e57600080fd5b50610287610990565b604051610294919061442a565b60405180910390f35b3480156102a957600080fd5b506102c460048036038101906102bf91906138a2565b610a22565b6040516102d19190614386565b60405180910390f35b3480156102e657600080fd5b5061030160048036038101906102fc91906138a2565b610aa7565b005b34801561030f57600080fd5b5061032a60048036038101906103259190613769565b610b2d565b005b34801561033857600080fd5b50610341610c45565b60405161034e919061476c565b60405180910390f35b34801561036357600080fd5b5061036c610c4b565b604051610379919061476c565b60405180910390f35b34801561038e57600080fd5b50610397610c58565b6040516103a4919061476c565b60405180910390f35b3480156103b957600080fd5b506103d460048036038101906103cf9190613663565b610c5e565b005b3480156103e257600080fd5b506103fd60048036038101906103f89190613769565b610cbe565b60405161040a919061476c565b60405180910390f35b61041b610d63565b005b61043760048036038101906104329190613769565b610e8e565b005b34801561044557600080fd5b50610460600480360381019061045b9190613663565b611233565b005b34801561046e57600080fd5b50610489600480360381019061048491906135fe565b611253565b60405161049691906143ed565b60405180910390f35b3480156104ab57600080fd5b506104c660048036038101906104c191906138a2565b61134d565b005b3480156104d457600080fd5b506104ef60048036038101906104ea91906138a2565b6113d3565b6040516104fc919061476c565b60405180910390f35b34801561051157600080fd5b5061052c60048036038101906105279190613861565b61146a565b005b34801561053a57600080fd5b50610555600480360381019061055091906137e6565b611500565b005b34801561056357600080fd5b5061056c611599565b604051610579919061440f565b60405180910390f35b34801561058e57600080fd5b506105a960048036038101906105a491906138a2565b6115ac565b6040516105b69190614386565b60405180910390f35b3480156105cb57600080fd5b506105e660048036038101906105e191906137e6565b61165e565b005b3480156105f457600080fd5b506105fd6116f7565b60405161060a919061442a565b60405180910390f35b34801561061f57600080fd5b5061063a600480360381019061063591906135fe565b611785565b604051610647919061476c565b60405180910390f35b34801561065c57600080fd5b5061066561183d565b005b34801561067357600080fd5b5061067c6118c5565b6040516106899190614386565b60405180910390f35b34801561069e57600080fd5b506106a76118ef565b6040516106b4919061442a565b60405180910390f35b3480156106c957600080fd5b506106d261197d565b6040516106df919061442a565b60405180910390f35b3480156106f457600080fd5b5061070f600480360381019061070a919061372d565b611a0f565b005b34801561071d57600080fd5b50610738600480360381019061073391906135fe565b611b90565b604051610745919061440f565b60405180910390f35b34801561075a57600080fd5b50610775600480360381019061077091906137a5565b611bb0565b005b34801561078357600080fd5b5061079e600480360381019061079991906136b2565b611ce7565b005b3480156107ac57600080fd5b506107b5611d49565b6040516107c2919061442a565b60405180910390f35b3480156107d757600080fd5b506107f260048036038101906107ed91906138a2565b611dd7565b6040516107ff919061442a565b60405180910390f35b34801561081457600080fd5b5061081d611e84565b60405161082a919061476c565b60405180910390f35b34801561083f57600080fd5b5061085a60048036038101906108559190613861565b611e8a565b005b34801561086857600080fd5b50610883600480360381019061087e91906137a5565b611f20565b005b34801561089157600080fd5b506108ac60048036038101906108a79190613627565b612057565b6040516108b9919061440f565b60405180910390f35b3480156108ce57600080fd5b506108e960048036038101906108e491906135fe565b6120eb565b005b3480156108f757600080fd5b506109006121e3565b60405161090d919061440f565b60405180910390f35b60007f780e9d63000000000000000000000000000000000000000000000000000000007bffffffffffffffffffffffffffffffffffffffffffffffffffffffff1916827bffffffffffffffffffffffffffffffffffffffffffffffffffffffff1916148061098957506109888261220e565b5b9050919050565b60606000805461099f90614aab565b80601f01602080910402602001604051908101604052809291908181526020018280546109cb90614aab565b8015610a185780601f106109ed57610100808354040283529160200191610a18565b820191906000526020600020905b8154815290600101906020018083116109fb57829003601f168201915b5050505050905090565b6000610a2d826122f0565b610a6c576040517f08c379a0000000000000000000000000000000000000000000000000000000008152600401610a639061460c565b60405180910390fd5b6004600083815260200190815260200160002060009054906101000a900473ffffffffffffffffffffffffffffffffffffffff169050919050565b610aaf61235c565b73ffffffffffffffffffffffffffffffffffffffff16610acd6118c5565b73ffffffffffffffffffffffffffffffffffffffff1614610b23576040517f08c379a0000000000000000000000000000000000000000000000000000000008152600401610b1a9061462c565b60405180910390fd5b8060108190555050565b6000610b38826115ac565b90508073ffffffffffffffffffffffffffffffffffffffff168373ffffffffffffffffffffffffffffffffffffffff161415610ba9576040517f08c379a0000000000000000000000000000000000000000000000000000000008152600401610ba0906146ac565b60405180910390fd5b8073ffffffffffffffffffffffffffffffffffffffff16610bc861235c565b73ffffffffffffffffffffffffffffffffffffffff161480610bf75750610bf681610bf161235c565b612057565b5b610c36576040517f08c379a0000000000000000000000000000000000000000000000000000000008152600401610c2d9061456c565b60405180910390fd5b610c408383612364565b505050565b600e5481565b6000600880549050905090565b60105481565b610c6f610c6961235c565b8261241d565b610cae576040517f08c379a0000000000000000000000000000000000000000000000000000000008152600401610ca59061470c565b60405180910390fd5b610cb98383836124fb565b505050565b6000610cc983611785565b8210610d0a576040517f08c379a0000000000000000000000000000000000000000000000000000000008152600401610d019061444c565b60405180910390fd5b600660008473ffffffffffffffffffffffffffffffffffffffff1673ffffffffffffffffffffffffffffffffffffffff168152602001908152602001600020600083815260200190815260200160002054905092915050565b610d6b61235c565b73ffffffffffffffffffffffffffffffffffffffff16610d896118c5565b73ffffffffffffffffffffffffffffffffffffffff1614610ddf576040517f08c379a0000000000000000000000000000000000000000000000000000000008152600401610dd69061462c565b60405180910390fd5b60003373ffffffffffffffffffffffffffffffffffffffff1647604051610e0590614371565b60006040518083038185875af1925050503d8060008114610e42576040519150601f19603f3d011682016040523d82523d6000602084013e610e47565b606091505b5050905080610e8b576040517f08c379a0000000000000000000000000000000000000000000000000000000008152600401610e82906146ec565b60405180910390fd5b50565b6000610e98610c4b565b9050601160019054906101000a900460ff1615610eea576040517f08c379a0000000000000000000000000000000000000000000000000000000008152600401610ee19061474c565b60405180910390fd5b60008211610f2d576040517f08c379a0000000000000000000000000000000000000000000000000000000008152600401610f24906146cc565b60405180910390fd5b601054821115610f72576040517f08c379a0000000000000000000000000000000000000000000000000000000008152600401610f699061454c565b60405180910390fd5b600f548282610f8191906148e0565b1115610fc2576040517f08c379a0000000000000000000000000000000000000000000000000000000008152600401610fb9906145cc565b60405180910390fd5b610fca6118c5565b73ffffffffffffffffffffffffffffffffffffffff163373ffffffffffffffffffffffffffffffffffffffff16146111f757601160009054906101000a900460ff16156110f55760011515601260003373ffffffffffffffffffffffffffffffffffffffff1673ffffffffffffffffffffffffffffffffffffffff16815260200190815260200160002060009054906101000a900460ff161515146110a4576040517f08c379a000000000000000000000000000000000000000000000000000000000815260040161109b906144ac565b60405180910390fd5b81600e546110b29190614967565b3410156110f4576040517f08c379a00000000000000000000000000000000000000000000000000000000081526004016110eb9061468c565b60405180910390fd5b5b60011515601260003373ffffffffffffffffffffffffffffffffffffffff1673ffffffffffffffffffffffffffffffffffffffff16815260200190815260200160002060009054906101000a900460ff1615151461119e5781600e5461115b9190614967565b34101561119d576040517f08c379a00000000000000000000000000000000000000000000000000000000081526004016111949061468c565b60405180910390fd5b5b6000601260003373ffffffffffffffffffffffffffffffffffffffff1673ffffffffffffffffffffffffffffffffffffffff16815260200190815260200160002060006101000a81548160ff0219169083151502179055505b6000600190505b82811161122d5761121a84828461121591906148e0565b612757565b808061122590614add565b9150506111fe565b50505050565b61124e83838360405180602001604052806000815250611ce7565b505050565b6060600061126083611785565b905060008167ffffffffffffffff8111156112a4577f4e487b7100000000000000000000000000000000000000000000000000000000600052604160045260246000fd5b6040519080825280602002602001820160405280156112d25781602001602082028036833780820191505090505b50905060005b82811015611342576112ea8582610cbe565b828281518110611323577f4e487b7100000000000000000000000000000000000000000000000000000000600052603260045260246000fd5b602002602001018181525050808061133a90614add565b9150506112d8565b508092505050919050565b61135561235c565b73ffffffffffffffffffffffffffffffffffffffff166113736118c5565b73ffffffffffffffffffffffffffffffffffffffff16146113c9576040517f08c379a00000000000000000000000000000000000000000000000000000000081526004016113c09061462c565b60405180910390fd5b80600e8190555050565b60006113dd610c4b565b821061141e576040517f08c379a00000000000000000000000000000000000000000000000000000000081526004016114159061472c565b60405180910390fd5b60088281548110611458577f4e487b7100000000000000000000000000000000000000000000000000000000600052603260045260246000fd5b90600052602060002001549050919050565b61147261235c565b73ffffffffffffffffffffffffffffffffffffffff166114906118c5565b73ffffffffffffffffffffffffffffffffffffffff16146114e6576040517f08c379a00000000000000000000000000000000000000000000000000000000081526004016114dd9061462c565b60405180910390fd5b80600b90805190602001906114fc92919061338c565b5050565b61150861235c565b73ffffffffffffffffffffffffffffffffffffffff166115266118c5565b73ffffffffffffffffffffffffffffffffffffffff161461157c576040517f08c379a00000000000000000000000000000000000000000000000000000000081526004016115739061462c565b60405180910390fd5b80601160016101000a81548160ff02191690831515021790555050565b601160019054906101000a900460ff1681565b6000806002600084815260200190815260200160002060009054906101000a900473ffffffffffffffffffffffffffffffffffffffff169050600073ffffffffffffffffffffffffffffffffffffffff168173ffffffffffffffffffffffffffffffffffffffff161415611655576040517f08c379a000000000000000000000000000000000000000000000000000000000815260040161164c906145ac565b60405180910390fd5b80915050919050565b61166661235c565b73ffffffffffffffffffffffffffffffffffffffff166116846118c5565b73ffffffffffffffffffffffffffffffffffffffff16146116da576040517f08c379a00000000000000000000000000000000000000000000000000000000081526004016116d19061462c565b60405180910390fd5b80601160006101000a81548160ff02191690831515021790555050565b600b805461170490614aab565b80601f016020809104026020016040519081016040528092919081815260200182805461173090614aab565b801561177d5780601f106117525761010080835404028352916020019161177d565b820191906000526020600020905b81548152906001019060200180831161176057829003601f168201915b505050505081565b60008073ffffffffffffffffffffffffffffffffffffffff168273ffffffffffffffffffffffffffffffffffffffff1614156117f6576040517f08c379a00000000000000000000000000000000000000000000000000000000081526004016117ed9061458c565b60405180910390fd5b600360008373ffffffffffffffffffffffffffffffffffffffff1673ffffffffffffffffffffffffffffffffffffffff168152602001908152602001600020549050919050565b61184561235c565b73ffffffffffffffffffffffffffffffffffffffff166118636118c5565b73ffffffffffffffffffffffffffffffffffffffff16146118b9576040517f08c379a00000000000000000000000000000000000000000000000000000000081526004016118b09061462c565b60405180910390fd5b6118c36000612775565b565b6000600a60009054906101000a900473ffffffffffffffffffffffffffffffffffffffff16905090565b600d80546118fc90614aab565b80601f016020809104026020016040519081016040528092919081815260200182805461192890614aab565b80156119755780601f1061194a57610100808354040283529160200191611975565b820191906000526020600020905b81548152906001019060200180831161195857829003601f168201915b505050505081565b60606001805461198c90614aab565b80601f01602080910402602001604051908101604052809291908181526020018280546119b890614aab565b8015611a055780601f106119da57610100808354040283529160200191611a05565b820191906000526020600020905b8154815290600101906020018083116119e857829003601f168201915b5050505050905090565b611a1761235c565b73ffffffffffffffffffffffffffffffffffffffff168273ffffffffffffffffffffffffffffffffffffffff161415611a85576040517f08c379a0000000000000000000000000000000000000000000000000000000008152600401611a7c9061450c565b60405180910390fd5b8060056000611a9261235c565b73ffffffffffffffffffffffffffffffffffffffff1673ffffffffffffffffffffffffffffffffffffffff16815260200190815260200160002060008473ffffffffffffffffffffffffffffffffffffffff1673ffffffffffffffffffffffffffffffffffffffff16815260200190815260200160002060006101000a81548160ff0219169083151502179055508173ffffffffffffffffffffffffffffffffffffffff16611b3f61235c565b73ffffffffffffffffffffffffffffffffffffffff167f17307eab39ab6107e8899845ad3d59bd9653f200f220920489ca2b5937696c3183604051611b84919061440f565b60405180910390a35050565b60126020528060005260406000206000915054906101000a900460ff1681565b611bb861235c565b73ffffffffffffffffffffffffffffffffffffffff16611bd66118c5565b73ffffffffffffffffffffffffffffffffffffffff1614611c2c576040517f08c379a0000000000000000000000000000000000000000000000000000000008152600401611c239061462c565b60405180910390fd5b60005b8151811015611ce357600160126000848481518110611c77577f4e487b7100000000000000000000000000000000000000000000000000000000600052603260045260246000fd5b602002602001015173ffffffffffffffffffffffffffffffffffffffff1673ffffffffffffffffffffffffffffffffffffffff16815260200190815260200160002060006101000a81548160ff0219169083151502179055508080611cdb90614add565b915050611c2f565b5050565b611cf8611cf261235c565b8361241d565b611d37576040517f08c379a0000000000000000000000000000000000000000000000000000000008152600401611d2e9061470c565b60405180910390fd5b611d438484848461283b565b50505050565b600c8054611d5690614aab565b80601f0160208091040260200160405190810160405280929190818152602001828054611d8290614aab565b8015611dcf5780601f10611da457610100808354040283529160200191611dcf565b820191906000526020600020905b815481529060010190602001808311611db257829003601f168201915b505050505081565b6060611de2826122f0565b611e21576040517f08c379a0000000000000000000000000000000000000000000000000000000008152600401611e189061466c565b60405180910390fd5b6000611e2b612897565b90506000815111611e4b5760405180602001604052806000815250611e7c565b80600d611e5785612929565b600c604051602001611e6c9493929190614333565b6040516020818303038152906040525b915050919050565b600f5481565b611e9261235c565b73ffffffffffffffffffffffffffffffffffffffff16611eb06118c5565b73ffffffffffffffffffffffffffffffffffffffff1614611f06576040517f08c379a0000000000000000000000000000000000000000000000000000000008152600401611efd9061462c565b60405180910390fd5b80600c9080519060200190611f1c92919061338c565b5050565b611f2861235c565b73ffffffffffffffffffffffffffffffffffffffff16611f466118c5565b73ffffffffffffffffffffffffffffffffffffffff1614611f9c576040517f08c379a0000000000000000000000000000000000000000000000000000000008152600401611f939061462c565b60405180910390fd5b60005b815181101561205357600060126000848481518110611fe7577f4e487b7100000000000000000000000000000000000000000000000000000000600052603260045260246000fd5b602002602001015173ffffffffffffffffffffffffffffffffffffffff1673ffffffffffffffffffffffffffffffffffffffff16815260200190815260200160002060006101000a81548160ff021916908315150217905550808061204b90614add565b915050611f9f565b5050565b6000600560008473ffffffffffffffffffffffffffffffffffffffff1673ffffffffffffffffffffffffffffffffffffffff16815260200190815260200160002060008373ffffffffffffffffffffffffffffffffffffffff1673ffffffffffffffffffffffffffffffffffffffff16815260200190815260200160002060009054906101000a900460ff16905092915050565b6120f361235c565b73ffffffffffffffffffffffffffffffffffffffff166121116118c5565b73ffffffffffffffffffffffffffffffffffffffff1614612167576040517f08c379a000000000000000000000000000000000000000000000000000000000815260040161215e9061462c565b60405180910390fd5b600073ffffffffffffffffffffffffffffffffffffffff168173ffffffffffffffffffffffffffffffffffffffff1614156121d7576040517f08c379a00000000000000000000000000000000000000000000000000000000081526004016121ce9061448c565b60405180910390fd5b6121e081612775565b50565b601160009054906101000a900460ff1681565b600080823b905060008111915050919050565b505050565b60007f80ac58cd000000000000000000000000000000000000000000000000000000007bffffffffffffffffffffffffffffffffffffffffffffffffffffffff1916827bffffffffffffffffffffffffffffffffffffffffffffffffffffffff191614806122d957507f5b5e139f000000000000000000000000000000000000000000000000000000007bffffffffffffffffffffffffffffffffffffffffffffffffffffffff1916827bffffffffffffffffffffffffffffffffffffffffffffffffffffffff1916145b806122e957506122e882612ad6565b5b9050919050565b60008073ffffffffffffffffffffffffffffffffffffffff166002600084815260200190815260200160002060009054906101000a900473ffffffffffffffffffffffffffffffffffffffff1673ffffffffffffffffffffffffffffffffffffffff1614159050919050565b600033905090565b816004600083815260200190815260200160002060006101000a81548173ffffffffffffffffffffffffffffffffffffffff021916908373ffffffffffffffffffffffffffffffffffffffff160217905550808273ffffffffffffffffffffffffffffffffffffffff166123d7836115ac565b73ffffffffffffffffffffffffffffffffffffffff167f8c5be1e5ebec7d5bd14f71427d1e84f3dd0314c0f7b2291e5b200ac8c7c3b92560405160405180910390a45050565b6000612428826122f0565b612467576040517f08c379a000000000000000000000000000000000000000000000000000000000815260040161245e9061452c565b60405180910390fd5b6000612472836115ac565b90508073ffffffffffffffffffffffffffffffffffffffff168473ffffffffffffffffffffffffffffffffffffffff1614806124e157508373ffffffffffffffffffffffffffffffffffffffff166124c984610a22565b73ffffffffffffffffffffffffffffffffffffffff16145b806124f257506124f18185612057565b5b91505092915050565b8273ffffffffffffffffffffffffffffffffffffffff1661251b826115ac565b73ffffffffffffffffffffffffffffffffffffffff1614612571576040517f08c379a00000000000000000000000000000000000000000000000000000000081526004016125689061464c565b60405180910390fd5b600073ffffffffffffffffffffffffffffffffffffffff168273ffffffffffffffffffffffffffffffffffffffff1614156125e1576040517f08c379a00000000000000000000000000000000000000000000000000000000081526004016125d8906144ec565b60405180910390fd5b6125ec838383612b40565b6125f7600082612364565b6001600360008573ffffffffffffffffffffffffffffffffffffffff1673ffffffffffffffffffffffffffffffffffffffff168152602001908152602001600020600082825461264791906149c1565b925050819055506001600360008473ffffffffffffffffffffffffffffffffffffffff1673ffffffffffffffffffffffffffffffffffffffff168152602001908152602001600020600082825461269e91906148e0565b92505081905550816002600083815260200190815260200160002060006101000a81548173ffffffffffffffffffffffffffffffffffffffff021916908373ffffffffffffffffffffffffffffffffffffffff160217905550808273ffffffffffffffffffffffffffffffffffffffff168473ffffffffffffffffffffffffffffffffffffffff167fddf252ad1be2c89b69c2b068fc378daa952ba7f163c4a11628f55a4df523b3ef60405160405180910390a4505050565b612771828260405180602001604052806000815250612c54565b5050565b6000600a60009054906101000a900473ffffffffffffffffffffffffffffffffffffffff16905081600a60006101000a81548173ffffffffffffffffffffffffffffffffffffffff021916908373ffffffffffffffffffffffffffffffffffffffff1602179055508173ffffffffffffffffffffffffffffffffffffffff168173ffffffffffffffffffffffffffffffffffffffff167f8be0079c531659141344cd1fd0a4f28419497f9722a3daafe3b4186f6b6457e060405160405180910390a35050565b6128468484846124fb565b61285284848484612caf565b612891576040517f08c379a00000000000000000000000000000000000000000000000000000000081526004016128889061446c565b60405180910390fd5b50505050565b6060600b80546128a690614aab565b80601f01602080910402602001604051908101604052809291908181526020018280546128d290614aab565b801561291f5780601f106128f45761010080835404028352916020019161291f565b820191906000526020600020905b81548152906001019060200180831161290257829003601f168201915b5050505050905090565b60606000821415612971576040518060400160405280600181526020017f30000000000000000000000000000000000000000000000000000000000000008152509050612ad1565b600082905060005b600082146129a357808061298c90614add565b915050600a8261299c9190614936565b9150612979565b60008167ffffffffffffffff8111156129e5577f4e487b7100000000000000000000000000000000000000000000000000000000600052604160045260246000fd5b6040519080825280601f01601f191660200182016040528015612a175781602001600182028036833780820191505090505b5090505b60008514612aca57600182612a3091906149c1565b9150600a85612a3f9190614b26565b6030612a4b91906148e0565b60f81b818381518110612a87577f4e487b7100000000000000000000000000000000000000000000000000000000600052603260045260246000fd5b60200101907effffffffffffffffffffffffffffffffffffffffffffffffffffffffffffff1916908160001a905350600a85612ac39190614936565b9450612a1b565b8093505050505b919050565b60007f01ffc9a7000000000000000000000000000000000000000000000000000000007bffffffffffffffffffffffffffffffffffffffffffffffffffffffff1916827bffffffffffffffffffffffffffffffffffffffffffffffffffffffff1916149050919050565b612b4b838383612209565b600073ffffffffffffffffffffffffffffffffffffffff168373ffffffffffffffffffffffffffffffffffffffff161415612b8e57612b8981612e46565b612bcd565b8173ffffffffffffffffffffffffffffffffffffffff168373ffffffffffffffffffffffffffffffffffffffff1614612bcc57612bcb8382612e8f565b5b5b600073ffffffffffffffffffffffffffffffffffffffff168273ffffffffffffffffffffffffffffffffffffffff161415612c1057612c0b81612ffc565b612c4f565b8273ffffffffffffffffffffffffffffffffffffffff168273ffffffffffffffffffffffffffffffffffffffff1614612c4e57612c4d828261313f565b5b5b505050565b612c5e83836131be565b612c6b6000848484612caf565b612caa576040517f08c379a0000000000000000000000000000000000000000000000000000000008152600401612ca19061446c565b60405180910390fd5b505050565b6000612cd08473ffffffffffffffffffffffffffffffffffffffff166121f6565b15612e39578373ffffffffffffffffffffffffffffffffffffffff1663150b7a02612cf961235c565b8786866040518563ffffffff1660e01b8152600401612d1b94939291906143a1565b602060405180830381600087803b158015612d3557600080fd5b505af1925050508015612d6657506040513d601f19601f82011682018060405250810190612d639190613838565b60015b612de9573d8060008114612d96576040519150601f19603f3d011682016040523d82523d6000602084013e612d9b565b606091505b50600081511415612de1576040517f08c379a0000000000000000000000000000000000000000000000000000000008152600401612dd89061446c565b60405180910390fd5b805181602001fd5b63150b7a0260e01b7bffffffffffffffffffffffffffffffffffffffffffffffffffffffff1916817bffffffffffffffffffffffffffffffffffffffffffffffffffffffff191614915050612e3e565b600190505b949350505050565b6008805490506009600083815260200190815260200160002081905550600881908060018154018082558091505060019003906000526020600020016000909190919091505550565b60006001612e9c84611785565b612ea691906149c1565b9050600060076000848152602001908152602001600020549050818114612f8b576000600660008673ffffffffffffffffffffffffffffffffffffffff1673ffffffffffffffffffffffffffffffffffffffff168152602001908152602001600020600084815260200190815260200160002054905080600660008773ffffffffffffffffffffffffffffffffffffffff1673ffffffffffffffffffffffffffffffffffffffff168152602001908152602001600020600084815260200190815260200160002081905550816007600083815260200190815260200160002081905550505b6007600084815260200190815260200160002060009055600660008573ffffffffffffffffffffffffffffffffffffffff1673ffffffffffffffffffffffffffffffffffffffff16815260200190815260200160002060008381526020019081526020016000206000905550505050565b6000600160088054905061301091906149c1565b9050600060096000848152602001908152602001600020549050600060088381548110613066577f4e487b7100000000000000000000000000000000000000000000000000000000600052603260045260246000fd5b9060005260206000200154905080600883815481106130ae577f4e487b7100000000000000000000000000000000000000000000000000000000600052603260045260246000fd5b906000526020600020018190555081600960008381526020019081526020016000208190555060096000858152602001908152602001600020600090556008805480613123577f4e487b7100000000000000000000000000000000000000000000000000000000600052603160045260246000fd5b6001900381819060005260206000200160009055905550505050565b600061314a83611785565b905081600660008573ffffffffffffffffffffffffffffffffffffffff1673ffffffffffffffffffffffffffffffffffffffff168152602001908152602001600020600083815260200190815260200160002081905550806007600084815260200190815260200160002081905550505050565b600073ffffffffffffffffffffffffffffffffffffffff168273ffffffffffffffffffffffffffffffffffffffff16141561322e576040517f08c379a0000000000000000000000000000000000000000000000000000000008152600401613225906145ec565b60405180910390fd5b613237816122f0565b15613277576040517f08c379a000000000000000000000000000000000000000000000000000000000815260040161326e906144cc565b60405180910390fd5b61328360008383612b40565b6001600360008473ffffffffffffffffffffffffffffffffffffffff1673ffffffffffffffffffffffffffffffffffffffff16815260200190815260200160002060008282546132d391906148e0565b92505081905550816002600083815260200190815260200160002060006101000a81548173ffffffffffffffffffffffffffffffffffffffff021916908373ffffffffffffffffffffffffffffffffffffffff160217905550808273ffffffffffffffffffffffffffffffffffffffff16600073ffffffffffffffffffffffffffffffffffffffff167fddf252ad1be2c89b69c2b068fc378daa952ba7f163c4a11628f55a4df523b3ef60405160405180910390a45050565b82805461339890614aab565b90600052602060002090601f0160209004810192826133ba5760008555613401565b82601f106133d357805160ff1916838001178555613401565b82800160010185558215613401579182015b828111156134005782518255916020019190600101906133e5565b5b50905061340e9190613412565b5090565b5b8082111561342b576000816000905550600101613413565b5090565b600061344261343d846147b8565b614787565b9050808382526020820190508285602086028201111561346157600080fd5b60005b8581101561349157816134778882613517565b845260208401935060208301925050600181019050613464565b5050509392505050565b60006134ae6134a9846147e4565b614787565b9050828152602081018484840111156134c657600080fd5b6134d1848285614a69565b509392505050565b60006134ec6134e784614814565b614787565b90508281526020810184848401111561350457600080fd5b61350f848285614a69565b509392505050565b60008135905061352681614c24565b92915050565b600082601f83011261353d57600080fd5b813561354d84826020860161342f565b91505092915050565b60008135905061356581614c3b565b92915050565b60008135905061357a81614c52565b92915050565b60008151905061358f81614c52565b92915050565b600082601f8301126135a657600080fd5b81356135b684826020860161349b565b91505092915050565b600082601f8301126135d057600080fd5b81356135e08482602086016134d9565b91505092915050565b6000813590506135f881614c69565b92915050565b60006020828403121561361057600080fd5b600061361e84828501613517565b91505092915050565b6000806040838503121561363a57600080fd5b600061364885828601613517565b925050602061365985828601613517565b9150509250929050565b60008060006060848603121561367857600080fd5b600061368686828701613517565b935050602061369786828701613517565b92505060406136a8868287016135e9565b9150509250925092565b600080600080608085870312156136c857600080fd5b60006136d687828801613517565b94505060206136e787828801613517565b93505060406136f8878288016135e9565b925050606085013567ffffffffffffffff81111561371557600080fd5b61372187828801613595565b91505092959194509250565b6000806040838503121561374057600080fd5b600061374e85828601613517565b925050602061375f85828601613556565b9150509250929050565b6000806040838503121561377c57600080fd5b600061378a85828601613517565b925050602061379b858286016135e9565b9150509250929050565b6000602082840312156137b757600080fd5b600082013567ffffffffffffffff8111156137d157600080fd5b6137dd8482850161352c565b91505092915050565b6000602082840312156137f857600080fd5b600061380684828501613556565b91505092915050565b60006020828403121561382157600080fd5b600061382f8482850161356b565b91505092915050565b60006020828403121561384a57600080fd5b600061385884828501613580565b91505092915050565b60006020828403121561387357600080fd5b600082013567ffffffffffffffff81111561388d57600080fd5b613899848285016135bf565b91505092915050565b6000602082840312156138b457600080fd5b60006138c2848285016135e9565b91505092915050565b60006138d78383614315565b60208301905092915050565b6138ec816149f5565b82525050565b60006138fd82614869565b6139078185614897565b935061391283614844565b8060005b8381101561394357815161392a88826138cb565b97506139358361488a565b925050600181019050613916565b5085935050505092915050565b61395981614a07565b82525050565b600061396a82614874565b61397481856148a8565b9350613984818560208601614a78565b61398d81614c13565b840191505092915050565b60006139a38261487f565b6139ad81856148c4565b93506139bd818560208601614a78565b6139c681614c13565b840191505092915050565b60006139dc8261487f565b6139e681856148d5565b93506139f6818560208601614a78565b80840191505092915050565b60008154613a0f81614aab565b613a1981866148d5565b94506001821660008114613a345760018114613a4557613a78565b60ff19831686528186019350613a78565b613a4e85614854565b60005b83811015613a7057815481890152600182019150602081019050613a51565b838801955050505b50505092915050565b6000613a8e602b836148c4565b91507f455243373231456e756d657261626c653a206f776e657220696e646578206f7560008301527f74206f6620626f756e64730000000000000000000000000000000000000000006020830152604082019050919050565b6000613af46032836148c4565b91507f4552433732313a207472616e7366657220746f206e6f6e20455243373231526560008301527f63656976657220696d706c656d656e74657200000000000000000000000000006020830152604082019050919050565b6000613b5a6026836148c4565b91507f4f776e61626c653a206e6577206f776e657220697320746865207a65726f206160008301527f64647265737300000000000000000000000000000000000000000000000000006020830152604082019050919050565b6000613bc06023836148c4565b91507f41646472657373206e6f7420616c6c6f776c697374656420666f72207072657360008301527f616c6500000000000000000000000000000000000000000000000000000000006020830152604082019050919050565b6000613c26601c836148c4565b91507f4552433732313a20746f6b656e20616c7265616479206d696e746564000000006000830152602082019050919050565b6000613c666024836148c4565b91507f4552433732313a207472616e7366657220746f20746865207a65726f2061646460008301527f72657373000000000000000000000000000000000000000000000000000000006020830152604082019050919050565b6000613ccc6019836148c4565b91507f4552433732313a20617070726f766520746f2063616c6c6572000000000000006000830152602082019050919050565b6000613d0c602c836148c4565b91507f4552433732313a206f70657261746f7220717565727920666f72206e6f6e657860008301527f697374656e7420746f6b656e00000000000000000000000000000000000000006020830152604082019050919050565b6000613d72601f836148c4565b91507f43616e6e6f74206d696e74206d6f7265207468616e2035206174206f6e6365006000830152602082019050919050565b6000613db26038836148c4565b91507f4552433732313a20617070726f76652063616c6c6572206973206e6f74206f7760008301527f6e6572206e6f7220617070726f76656420666f7220616c6c00000000000000006020830152604082019050919050565b6000613e18602a836148c4565b91507f4552433732313a2062616c616e636520717565727920666f7220746865207a6560008301527f726f2061646472657373000000000000000000000000000000000000000000006020830152604082019050919050565b6000613e7e6029836148c4565b91507f4552433732313a206f776e657220717565727920666f72206e6f6e657869737460008301527f656e7420746f6b656e00000000000000000000000000000000000000000000006020830152604082019050919050565b6000613ee4601e836148c4565b91507f4d696e7420616d6f756e742065786365656473206d617820737570706c7900006000830152602082019050919050565b6000613f246020836148c4565b91507f4552433732313a206d696e7420746f20746865207a65726f20616464726573736000830152602082019050919050565b6000613f64602c836148c4565b91507f4552433732313a20617070726f76656420717565727920666f72206e6f6e657860008301527f697374656e7420746f6b656e00000000000000000000000000000000000000006020830152604082019050919050565b6000613fca6020836148c4565b91507f4f776e61626c653a2063616c6c6572206973206e6f7420746865206f776e65726000830152602082019050919050565b600061400a6029836148c4565b91507f4552433732313a207472616e73666572206f6620746f6b656e2074686174206960008301527f73206e6f74206f776e00000000000000000000000000000000000000000000006020830152604082019050919050565b6000614070602f836148c4565b91507f4552433732314d657461646174613a2055524920717565727920666f72206e6f60008301527f6e6578697374656e7420746f6b656e00000000000000000000000000000000006020830152604082019050919050565b60006140d66013836148c4565b91507f4e6f7420656e6f756768204554482073656e74000000000000000000000000006000830152602082019050919050565b60006141166021836148c4565b91507f4552433732313a20617070726f76616c20746f2063757272656e74206f776e6560008301527f72000000000000000000000000000000000000000000000000000000000000006020830152604082019050919050565b600061417c6014836148c4565b91507f4d757374206d696e74206174206c6561737420310000000000000000000000006000830152602082019050919050565b60006141bc6000836148b9565b9150600082019050919050565b60006141d66010836148c4565b91507f5472616e73666572206661696c65642e000000000000000000000000000000006000830152602082019050919050565b60006142166031836148c4565b91507f4552433732313a207472616e736665722063616c6c6572206973206e6f74206f60008301527f776e6572206e6f7220617070726f7665640000000000000000000000000000006020830152604082019050919050565b600061427c602c836148c4565b91507f455243373231456e756d657261626c653a20676c6f62616c20696e646578206f60008301527f7574206f6620626f756e647300000000000000000000000000000000000000006020830152604082019050919050565b60006142e26012836148c4565b91507f436f6e74726163742069732070617573656400000000000000000000000000006000830152602082019050919050565b61431e81614a5f565b82525050565b61432d81614a5f565b82525050565b600061433f82876139d1565b915061434b8286613a02565b915061435782856139d1565b91506143638284613a02565b915081905095945050505050565b600061437c826141af565b9150819050919050565b600060208201905061439b60008301846138e3565b92915050565b60006080820190506143b660008301876138e3565b6143c360208301866138e3565b6143d06040830185614324565b81810360608301526143e2818461395f565b905095945050505050565b6000602082019050818103600083015261440781846138f2565b905092915050565b60006020820190506144246000830184613950565b92915050565b600060208201905081810360008301526144448184613998565b905092915050565b6000602082019050818103600083015261446581613a81565b9050919050565b6000602082019050818103600083015261448581613ae7565b9050919050565b600060208201905081810360008301526144a581613b4d565b9050919050565b600060208201905081810360008301526144c581613bb3565b9050919050565b600060208201905081810360008301526144e581613c19565b9050919050565b6000602082019050818103600083015261450581613c59565b9050919050565b6000602082019050818103600083015261452581613cbf565b9050919050565b6000602082019050818103600083015261454581613cff565b9050919050565b6000602082019050818103600083015261456581613d65565b9050919050565b6000602082019050818103600083015261458581613da5565b9050919050565b600060208201905081810360008301526145a581613e0b565b9050919050565b600060208201905081810360008301526145c581613e71565b9050919050565b600060208201905081810360008301526145e581613ed7565b9050919050565b6000602082019050818103600083015261460581613f17565b9050919050565b6000602082019050818103600083015261462581613f57565b9050919050565b6000602082019050818103600083015261464581613fbd565b9050919050565b6000602082019050818103600083015261466581613ffd565b9050919050565b6000602082019050818103600083015261468581614063565b9050919050565b600060208201905081810360008301526146a5816140c9565b9050919050565b600060208201905081810360008301526146c581614109565b9050919050565b600060208201905081810360008301526146e58161416f565b9050919050565b60006020820190508181036000830152614705816141c9565b9050919050565b6000602082019050818103600083015261472581614209565b9050919050565b600060208201905081810360008301526147458161426f565b9050919050565b60006020820190508181036000830152614765816142d5565b9050919050565b60006020820190506147816000830184614324565b92915050565b6000604051905081810181811067ffffffffffffffff821117156147ae576147ad614be4565b5b8060405250919050565b600067ffffffffffffffff8211156147d3576147d2614be4565b5b602082029050602081019050919050565b600067ffffffffffffffff8211156147ff576147fe614be4565b5b601f19601f8301169050602081019050919050565b600067ffffffffffffffff82111561482f5761482e614be4565b5b601f19601f8301169050602081019050919050565b6000819050602082019050919050565b60008190508160005260206000209050919050565b600081519050919050565b600081519050919050565b600081519050919050565b6000602082019050919050565b600082825260208201905092915050565b600082825260208201905092915050565b600081905092915050565b600082825260208201905092915050565b600081905092915050565b60006148eb82614a5f565b91506148f683614a5f565b9250827fffffffffffffffffffffffffffffffffffffffffffffffffffffffffffffffff0382111561492b5761492a614b57565b5b828201905092915050565b600061494182614a5f565b915061494c83614a5f565b92508261495c5761495b614b86565b5b828204905092915050565b600061497282614a5f565b915061497d83614a5f565b9250817fffffffffffffffffffffffffffffffffffffffffffffffffffffffffffffffff04831182151516156149b6576149b5614b57565b5b828202905092915050565b60006149cc82614a5f565b91506149d783614a5f565b9250828210156149ea576149e9614b57565b5b828203905092915050565b6000614a0082614a3f565b9050919050565b60008115159050919050565b60007fffffffff0000000000000000000000000000000000000000000000000000000082169050919050565b600073ffffffffffffffffffffffffffffffffffffffff82169050919050565b6000819050919050565b82818337600083830152505050565b60005b83811015614a96578082015181840152602081019050614a7b565b83811115614aa5576000848401525b50505050565b60006002820490506001821680614ac357607f821691505b60208210811415614ad757614ad6614bb5565b5b50919050565b6000614ae882614a5f565b91507fffffffffffffffffffffffffffffffffffffffffffffffffffffffffffffffff821415614b1b57614b1a614b57565b5b600182019050919050565b6000614b3182614a5f565b9150614b3c83614a5f565b925082614b4c57614b4b614b86565b5b828206905092915050565b7f4e487b7100000000000000000000000000000000000000000000000000000000600052601160045260246000fd5b7f4e487b7100000000000000000000000000000000000000000000000000000000600052601260045260246000fd5b7f4e487b7100000000000000000000000000000000000000000000000000000000600052602260045260246000fd5b7f4e487b7100000000000000000000000000000000000000000000000000000000600052604160045260246000fd5b6000601f19601f8301169050919050565b614c2d816149f5565b8114614c3857600080fd5b50565b614c4481614a07565b8114614c4f57600080fd5b50565b614c5b81614a13565b8114614c6657600080fd5b50565b614c7281614a5f565b8114614c7d57600080fd5b5056fea2646970667358221220f416bc95777852cac86b0881a3b94f663b3c57baca030267bd11d65474cddded64736f6c63430008000033",
  "immutableReferences": {},
  "source": "// SPDX-License-Identifier: GPL-3.0\n\npragma solidity ^0.8.0;\n\n/**\n * @dev Interface of the ERC165 standard, as defined in the\n * https://eips.ethereum.org/EIPS/eip-165[EIP].\n *\n * Implementers can declare support of contract interfaces, which can then be\n * queried by others ({ERC165Checker}).\n *\n * For an implementation, see {ERC165}.\n */\ninterface IERC165 {\n    /**\n     * @dev Returns true if this contract implements the interface defined by\n     * `interfaceId`. See the corresponding\n     * https://eips.ethereum.org/EIPS/eip-165#how-interfaces-are-identified[EIP section]\n     * to learn more about how these ids are created.\n     *\n     * This function call must use less than 30 000 gas.\n     */\n    function supportsInterface(bytes4 interfaceId) external view returns (bool);\n}\n\n\n\n\n/**\n * @dev Required interface of an ERC721 compliant contract.\n */\ninterface IERC721 is IERC165 {\n    /**\n     * @dev Emitted when `tokenId` token is transferred from `from` to `to`.\n     */\n    event Transfer(address indexed from, address indexed to, uint256 indexed tokenId);\n\n    /**\n     * @dev Emitted when `owner` enables `approved` to manage the `tokenId` token.\n     */\n    event Approval(address indexed owner, address indexed approved, uint256 indexed tokenId);\n\n    /**\n     * @dev Emitted when `owner` enables or disables (`approved`) `operator` to manage all of its assets.\n     */\n    event ApprovalForAll(address indexed owner, address indexed operator, bool approved);\n\n    /**\n     * @dev Returns the number of tokens in ``owner``'s account.\n     */\n    function balanceOf(address owner) external view returns (uint256 balance);\n\n    /**\n     * @dev Returns the owner of the `tokenId` token.\n     *\n     * Requirements:\n     *\n     * - `tokenId` must exist.\n     */\n    function ownerOf(uint256 tokenId) external view returns (address owner);\n\n    /**\n     * @dev Safely transfers `tokenId` token from `from` to `to`, checking first that contract recipients\n     * are aware of the ERC721 protocol to prevent tokens from being forever locked.\n     *\n     * Requirements:\n     *\n     * - `from` cannot be the zero address.\n     * - `to` cannot be the zero address.\n     * - `tokenId` token must exist and be owned by `from`.\n     * - If the caller is not `from`, it must be have been allowed to move this token by either {approve} or {setApprovalForAll}.\n     * - If `to` refers to a smart contract, it must implement {IERC721Receiver-onERC721Received}, which is called upon a safe transfer.\n     *\n     * Emits a {Transfer} event.\n     */\n    function safeTransferFrom(\n        address from,\n        address to,\n        uint256 tokenId\n    ) external;\n\n    /**\n     * @dev Transfers `tokenId` token from `from` to `to`.\n     *\n     * WARNING: Usage of this method is discouraged, use {safeTransferFrom} whenever possible.\n     *\n     * Requirements:\n     *\n     * - `from` cannot be the zero address.\n     * - `to` cannot be the zero address.\n     * - `tokenId` token must be owned by `from`.\n     * - If the caller is not `from`, it must be approved to move this token by either {approve} or {setApprovalForAll}.\n     *\n     * Emits a {Transfer} event.\n     */\n    function transferFrom(\n        address from,\n        address to,\n        uint256 tokenId\n    ) external;\n\n    /**\n     * @dev Gives permission to `to` to transfer `tokenId` token to another account.\n     * The approval is cleared when the token is transferred.\n     *\n     * Only a single account can be approved at a time, so approving the zero address clears previous approvals.\n     *\n     * Requirements:\n     *\n     * - The caller must own the token or be an approved operator.\n     * - `tokenId` must exist.\n     *\n     * Emits an {Approval} event.\n     */\n    function approve(address to, uint256 tokenId) external;\n\n    /**\n     * @dev Returns the account approved for `tokenId` token.\n     *\n     * Requirements:\n     *\n     * - `tokenId` must exist.\n     */\n    function getApproved(uint256 tokenId) external view returns (address operator);\n\n    /**\n     * @dev Approve or remove `operator` as an operator for the caller.\n     * Operators can call {transferFrom} or {safeTransferFrom} for any token owned by the caller.\n     *\n     * Requirements:\n     *\n     * - The `operator` cannot be the caller.\n     *\n     * Emits an {ApprovalForAll} event.\n     */\n    function setApprovalForAll(address operator, bool _approved) external;\n\n    /**\n     * @dev Returns if the `operator` is allowed to manage all of the assets of `owner`.\n     *\n     * See {setApprovalForAll}\n     */\n    function isApprovedForAll(address owner, address operator) external view returns (bool);\n\n    /**\n     * @dev Safely transfers `tokenId` token from `from` to `to`.\n     *\n     * Requirements:\n     *\n     * - `from` cannot be the zero address.\n     * - `to` cannot be the zero address.\n     * - `tokenId` token must exist and be owned by `from`.\n     * - If the caller is not `from`, it must be approved to move this token by either {approve} or {setApprovalForAll}.\n     * - If `to` refers to a smart contract, it must implement {IERC721Receiver-onERC721Received}, which is called upon a safe transfer.\n     *\n     * Emits a {Transfer} event.\n     */\n    function safeTransferFrom(\n        address from,\n        address to,\n        uint256 tokenId,\n        bytes calldata data\n    ) external;\n}\n\n\n\n/**\n * @title ERC721 token receiver interface\n * @dev Interface for any contract that wants to support safeTransfers\n * from ERC721 asset contracts.\n */\ninterface IERC721Receiver {\n    /**\n     * @dev Whenever an {IERC721} `tokenId` token is transferred to this contract via {IERC721-safeTransferFrom}\n     * by `operator` from `from`, this function is called.\n     *\n     * It must return its Solidity selector to confirm the token transfer.\n     * If any other value is returned or the interface is not implemented by the recipient, the transfer will be reverted.\n     *\n     * The selector can be obtained in Solidity with `IERC721.onERC721Received.selector`.\n     */\n    function onERC721Received(\n        address operator,\n        address from,\n        uint256 tokenId,\n        bytes calldata data\n    ) external returns (bytes4);\n}\n\n\n\n\n/**\n * @title ERC-721 Non-Fungible Token Standard, optional metadata extension\n * @dev See https://eips.ethereum.org/EIPS/eip-721\n */\ninterface IERC721Metadata is IERC721 {\n    /**\n     * @dev Returns the token collection name.\n     */\n    function name() external view returns (string memory);\n\n    /**\n     * @dev Returns the token collection symbol.\n     */\n    function symbol() external view returns (string memory);\n\n    /**\n     * @dev Returns the Uniform Resource Identifier (URI) for `tokenId` token.\n     */\n    function tokenURI(uint256 tokenId) external view returns (string memory);\n}\n\n\n\n/**\n * @dev Collection of functions related to the address type\n */\nlibrary Address {\n    /**\n     * @dev Returns true if `account` is a contract.\n     *\n     * [IMPORTANT]\n     * ====\n     * It is unsafe to assume that an address for which this function returns\n     * false is an externally-owned account (EOA) and not a contract.\n     *\n     * Among others, `isContract` will return false for the following\n     * types of addresses:\n     *\n     *  - an externally-owned account\n     *  - a contract in construction\n     *  - an address where a contract will be created\n     *  - an address where a contract lived, but was destroyed\n     * ====\n     */\n    function isContract(address account) internal view returns (bool) {\n        // This method relies on extcodesize, which returns 0 for contracts in\n        // construction, since the code is only stored at the end of the\n        // constructor execution.\n\n        uint256 size;\n        assembly {\n            size := extcodesize(account)\n        }\n        return size > 0;\n    }\n\n    /**\n     * @dev Replacement for Solidity's `transfer`: sends `amount` wei to\n     * `recipient`, forwarding all available gas and reverting on errors.\n     *\n     * https://eips.ethereum.org/EIPS/eip-1884[EIP1884] increases the gas cost\n     * of certain opcodes, possibly making contracts go over the 2300 gas limit\n     * imposed by `transfer`, making them unable to receive funds via\n     * `transfer`. {sendValue} removes this limitation.\n     *\n     * https://diligence.consensys.net/posts/2019/09/stop-using-soliditys-transfer-now/[Learn more].\n     *\n     * IMPORTANT: because control is transferred to `recipient`, care must be\n     * taken to not create reentrancy vulnerabilities. Consider using\n     * {ReentrancyGuard} or the\n     * https://solidity.readthedocs.io/en/v0.5.11/security-considerations.html#use-the-checks-effects-interactions-pattern[checks-effects-interactions pattern].\n     */\n    function sendValue(address payable recipient, uint256 amount) internal {\n        require(address(this).balance >= amount, \"Address: insufficient balance\");\n\n        (bool success, ) = recipient.call{value: amount}(\"\");\n        require(success, \"Address: unable to send value, recipient may have reverted\");\n    }\n\n    /**\n     * @dev Performs a Solidity function call using a low level `call`. A\n     * plain `call` is an unsafe replacement for a function call: use this\n     * function instead.\n     *\n     * If `target` reverts with a revert reason, it is bubbled up by this\n     * function (like regular Solidity function calls).\n     *\n     * Returns the raw returned data. To convert to the expected return value,\n     * use https://solidity.readthedocs.io/en/latest/units-and-global-variables.html?highlight=abi.decode#abi-encoding-and-decoding-functions[`abi.decode`].\n     *\n     * Requirements:\n     *\n     * - `target` must be a contract.\n     * - calling `target` with `data` must not revert.\n     *\n     * _Available since v3.1._\n     */\n    function functionCall(address target, bytes memory data) internal returns (bytes memory) {\n        return functionCall(target, data, \"Address: low-level call failed\");\n    }\n\n    /**\n     * @dev Same as {xref-Address-functionCall-address-bytes-}[`functionCall`], but with\n     * `errorMessage` as a fallback revert reason when `target` reverts.\n     *\n     * _Available since v3.1._\n     */\n    function functionCall(\n        address target,\n        bytes memory data,\n        string memory errorMessage\n    ) internal returns (bytes memory) {\n        return functionCallWithValue(target, data, 0, errorMessage);\n    }\n\n    /**\n     * @dev Same as {xref-Address-functionCall-address-bytes-}[`functionCall`],\n     * but also transferring `value` wei to `target`.\n     *\n     * Requirements:\n     *\n     * - the calling contract must have an ETH balance of at least `value`.\n     * - the called Solidity function must be `payable`.\n     *\n     * _Available since v3.1._\n     */\n    function functionCallWithValue(\n        address target,\n        bytes memory data,\n        uint256 value\n    ) internal returns (bytes memory) {\n        return functionCallWithValue(target, data, value, \"Address: low-level call with value failed\");\n    }\n\n    /**\n     * @dev Same as {xref-Address-functionCallWithValue-address-bytes-uint256-}[`functionCallWithValue`], but\n     * with `errorMessage` as a fallback revert reason when `target` reverts.\n     *\n     * _Available since v3.1._\n     */\n    function functionCallWithValue(\n        address target,\n        bytes memory data,\n        uint256 value,\n        string memory errorMessage\n    ) internal returns (bytes memory) {\n        require(address(this).balance >= value, \"Address: insufficient balance for call\");\n        require(isContract(target), \"Address: call to non-contract\");\n\n        (bool success, bytes memory returndata) = target.call{value: value}(data);\n        return verifyCallResult(success, returndata, errorMessage);\n    }\n\n    /**\n     * @dev Same as {xref-Address-functionCall-address-bytes-}[`functionCall`],\n     * but performing a static call.\n     *\n     * _Available since v3.3._\n     */\n    function functionStaticCall(address target, bytes memory data) internal view returns (bytes memory) {\n        return functionStaticCall(target, data, \"Address: low-level static call failed\");\n    }\n\n    /**\n     * @dev Same as {xref-Address-functionCall-address-bytes-string-}[`functionCall`],\n     * but performing a static call.\n     *\n     * _Available since v3.3._\n     */\n    function functionStaticCall(\n        address target,\n        bytes memory data,\n        string memory errorMessage\n    ) internal view returns (bytes memory) {\n        require(isContract(target), \"Address: static call to non-contract\");\n\n        (bool success, bytes memory returndata) = target.staticcall(data);\n        return verifyCallResult(success, returndata, errorMessage);\n    }\n\n    /**\n     * @dev Same as {xref-Address-functionCall-address-bytes-}[`functionCall`],\n     * but performing a delegate call.\n     *\n     * _Available since v3.4._\n     */\n    function functionDelegateCall(address target, bytes memory data) internal returns (bytes memory) {\n        return functionDelegateCall(target, data, \"Address: low-level delegate call failed\");\n    }\n\n    /**\n     * @dev Same as {xref-Address-functionCall-address-bytes-string-}[`functionCall`],\n     * but performing a delegate call.\n     *\n     * _Available since v3.4._\n     */\n    function functionDelegateCall(\n        address target,\n        bytes memory data,\n        string memory errorMessage\n    ) internal returns (bytes memory) {\n        require(isContract(target), \"Address: delegate call to non-contract\");\n\n        (bool success, bytes memory returndata) = target.delegatecall(data);\n        return verifyCallResult(success, returndata, errorMessage);\n    }\n\n    /**\n     * @dev Tool to verifies that a low level call was successful, and revert if it wasn't, either by bubbling the\n     * revert reason using the provided one.\n     *\n     * _Available since v4.3._\n     */\n    function verifyCallResult(\n        bool success,\n        bytes memory returndata,\n        string memory errorMessage\n    ) internal pure returns (bytes memory) {\n        if (success) {\n            return returndata;\n        } else {\n            // Look for revert reason and bubble it up if present\n            if (returndata.length > 0) {\n                // The easiest way to bubble the revert reason is using memory via assembly\n\n                assembly {\n                    let returndata_size := mload(returndata)\n                    revert(add(32, returndata), returndata_size)\n                }\n            } else {\n                revert(errorMessage);\n            }\n        }\n    }\n}\n\n\n\n/**\n * @dev Provides information about the current execution context, including the\n * sender of the transaction and its data. While these are generally available\n * via msg.sender and msg.data, they should not be accessed in such a direct\n * manner, since when dealing with meta-transactions the account sending and\n * paying for execution may not be the actual sender (as far as an application\n * is concerned).\n *\n * This contract is only required for intermediate, library-like contracts.\n */\nabstract contract Context {\n    function _msgSender() internal view virtual returns (address) {\n        return msg.sender;\n    }\n\n    function _msgData() internal view virtual returns (bytes calldata) {\n        return msg.data;\n    }\n}\n\n\n\n/**\n * @dev String operations.\n */\nlibrary Strings {\n    bytes16 private constant _HEX_SYMBOLS = \"0123456789abcdef\";\n\n    /**\n     * @dev Converts a `uint256` to its ASCII `string` decimal representation.\n     */\n    function toString(uint256 value) internal pure returns (string memory) {\n        // Inspired by OraclizeAPI's implementation - MIT licence\n        // https://github.com/oraclize/ethereum-api/blob/b42146b063c7d6ee1358846c198246239e9360e8/oraclizeAPI_0.4.25.sol\n\n        if (value == 0) {\n            return \"0\";\n        }\n        uint256 temp = value;\n        uint256 digits;\n        while (temp != 0) {\n            digits++;\n            temp /= 10;\n        }\n        bytes memory buffer = new bytes(digits);\n        while (value != 0) {\n            digits -= 1;\n            buffer[digits] = bytes1(uint8(48 + uint256(value % 10)));\n            value /= 10;\n        }\n        return string(buffer);\n    }\n\n    /**\n     * @dev Converts a `uint256` to its ASCII `string` hexadecimal representation.\n     */\n    function toHexString(uint256 value) internal pure returns (string memory) {\n        if (value == 0) {\n            return \"0x00\";\n        }\n        uint256 temp = value;\n        uint256 length = 0;\n        while (temp != 0) {\n            length++;\n            temp >>= 8;\n        }\n        return toHexString(value, length);\n    }\n\n    /**\n     * @dev Converts a `uint256` to its ASCII `string` hexadecimal representation with fixed length.\n     */\n    function toHexString(uint256 value, uint256 length) internal pure returns (string memory) {\n        bytes memory buffer = new bytes(2 * length + 2);\n        buffer[0] = \"0\";\n        buffer[1] = \"x\";\n        for (uint256 i = 2 * length + 1; i > 1; --i) {\n            buffer[i] = _HEX_SYMBOLS[value & 0xf];\n            value >>= 4;\n        }\n        require(value == 0, \"Strings: hex length insufficient\");\n        return string(buffer);\n    }\n}\n\n\n\n\n/**\n * @dev Implementation of the {IERC165} interface.\n *\n * Contracts that want to implement ERC165 should inherit from this contract and override {supportsInterface} to check\n * for the additional interface id that will be supported. For example:\n *\n * ```solidity\n * function supportsInterface(bytes4 interfaceId) public view virtual override returns (bool) {\n *     return interfaceId == type(MyInterface).interfaceId || super.supportsInterface(interfaceId);\n * }\n * ```\n *\n * Alternatively, {ERC165Storage} provides an easier to use but more expensive implementation.\n */\nabstract contract ERC165 is IERC165 {\n    /**\n     * @dev See {IERC165-supportsInterface}.\n     */\n    function supportsInterface(bytes4 interfaceId) public view virtual override returns (bool) {\n        return interfaceId == type(IERC165).interfaceId;\n    }\n}\n\n\n\n\n\n\n\n\n\n\n/**\n * @dev Implementation of https://eips.ethereum.org/EIPS/eip-721[ERC721] Non-Fungible Token Standard, including\n * the Metadata extension, but not including the Enumerable extension, which is available separately as\n * {ERC721Enumerable}.\n */\ncontract ERC721 is Context, ERC165, IERC721, IERC721Metadata {\n    using Address for address;\n    using Strings for uint256;\n\n    // Token name\n    string private _name;\n\n    // Token symbol\n    string private _symbol;\n\n    // Mapping from token ID to owner address\n    mapping(uint256 => address) private _owners;\n\n    // Mapping owner address to token count\n    mapping(address => uint256) private _balances;\n\n    // Mapping from token ID to approved address\n    mapping(uint256 => address) private _tokenApprovals;\n\n    // Mapping from owner to operator approvals\n    mapping(address => mapping(address => bool)) private _operatorApprovals;\n\n    /**\n     * @dev Initializes the contract by setting a `name` and a `symbol` to the token collection.\n     */\n    constructor(string memory name_, string memory symbol_) {\n        _name = name_;\n        _symbol = symbol_;\n    }\n\n    /**\n     * @dev See {IERC165-supportsInterface}.\n     */\n    function supportsInterface(bytes4 interfaceId) public view virtual override(ERC165, IERC165) returns (bool) {\n        return\n            interfaceId == type(IERC721).interfaceId ||\n            interfaceId == type(IERC721Metadata).interfaceId ||\n            super.supportsInterface(interfaceId);\n    }\n\n    /**\n     * @dev See {IERC721-balanceOf}.\n     */\n    function balanceOf(address owner) public view virtual override returns (uint256) {\n        require(owner != address(0), \"ERC721: balance query for the zero address\");\n        return _balances[owner];\n    }\n\n    /**\n     * @dev See {IERC721-ownerOf}.\n     */\n    function ownerOf(uint256 tokenId) public view virtual override returns (address) {\n        address owner = _owners[tokenId];\n        require(owner != address(0), \"ERC721: owner query for nonexistent token\");\n        return owner;\n    }\n\n    /**\n     * @dev See {IERC721Metadata-name}.\n     */\n    function name() public view virtual override returns (string memory) {\n        return _name;\n    }\n\n    /**\n     * @dev See {IERC721Metadata-symbol}.\n     */\n    function symbol() public view virtual override returns (string memory) {\n        return _symbol;\n    }\n\n    /**\n     * @dev See {IERC721Metadata-tokenURI}.\n     */\n    function tokenURI(uint256 tokenId) public view virtual override returns (string memory) {\n        require(_exists(tokenId), \"ERC721Metadata: URI query for nonexistent token\");\n\n        string memory baseURI = _baseURI();\n        return bytes(baseURI).length > 0 ? string(abi.encodePacked(baseURI, tokenId.toString())) : \"\";\n    }\n\n    /**\n     * @dev Base URI for computing {tokenURI}. If set, the resulting URI for each\n     * token will be the concatenation of the `baseURI` and the `tokenId`. Empty\n     * by default, can be overriden in child contracts.\n     */\n    function _baseURI() internal view virtual returns (string memory) {\n        return \"\";\n    }\n\n    /**\n     * @dev See {IERC721-approve}.\n     */\n    function approve(address to, uint256 tokenId) public virtual override {\n        address owner = ERC721.ownerOf(tokenId);\n        require(to != owner, \"ERC721: approval to current owner\");\n\n        require(\n            _msgSender() == owner || isApprovedForAll(owner, _msgSender()),\n            \"ERC721: approve caller is not owner nor approved for all\"\n        );\n\n        _approve(to, tokenId);\n    }\n\n    /**\n     * @dev See {IERC721-getApproved}.\n     */\n    function getApproved(uint256 tokenId) public view virtual override returns (address) {\n        require(_exists(tokenId), \"ERC721: approved query for nonexistent token\");\n\n        return _tokenApprovals[tokenId];\n    }\n\n    /**\n     * @dev See {IERC721-setApprovalForAll}.\n     */\n    function setApprovalForAll(address operator, bool approved) public virtual override {\n        require(operator != _msgSender(), \"ERC721: approve to caller\");\n\n        _operatorApprovals[_msgSender()][operator] = approved;\n        emit ApprovalForAll(_msgSender(), operator, approved);\n    }\n\n    /**\n     * @dev See {IERC721-isApprovedForAll}.\n     */\n    function isApprovedForAll(address owner, address operator) public view virtual override returns (bool) {\n        return _operatorApprovals[owner][operator];\n    }\n\n    /**\n     * @dev See {IERC721-transferFrom}.\n     */\n    function transferFrom(\n        address from,\n        address to,\n        uint256 tokenId\n    ) public virtual override {\n        //solhint-disable-next-line max-line-length\n        require(_isApprovedOrOwner(_msgSender(), tokenId), \"ERC721: transfer caller is not owner nor approved\");\n\n        _transfer(from, to, tokenId);\n    }\n\n    /**\n     * @dev See {IERC721-safeTransferFrom}.\n     */\n    function safeTransferFrom(\n        address from,\n        address to,\n        uint256 tokenId\n    ) public virtual override {\n        safeTransferFrom(from, to, tokenId, \"\");\n    }\n\n    /**\n     * @dev See {IERC721-safeTransferFrom}.\n     */\n    function safeTransferFrom(\n        address from,\n        address to,\n        uint256 tokenId,\n        bytes memory _data\n    ) public virtual override {\n        require(_isApprovedOrOwner(_msgSender(), tokenId), \"ERC721: transfer caller is not owner nor approved\");\n        _safeTransfer(from, to, tokenId, _data);\n    }\n\n    /**\n     * @dev Safely transfers `tokenId` token from `from` to `to`, checking first that contract recipients\n     * are aware of the ERC721 protocol to prevent tokens from being forever locked.\n     *\n     * `_data` is additional data, it has no specified format and it is sent in call to `to`.\n     *\n     * This internal function is equivalent to {safeTransferFrom}, and can be used to e.g.\n     * implement alternative mechanisms to perform token transfer, such as signature-based.\n     *\n     * Requirements:\n     *\n     * - `from` cannot be the zero address.\n     * - `to` cannot be the zero address.\n     * - `tokenId` token must exist and be owned by `from`.\n     * - If `to` refers to a smart contract, it must implement {IERC721Receiver-onERC721Received}, which is called upon a safe transfer.\n     *\n     * Emits a {Transfer} event.\n     */\n    function _safeTransfer(\n        address from,\n        address to,\n        uint256 tokenId,\n        bytes memory _data\n    ) internal virtual {\n        _transfer(from, to, tokenId);\n        require(_checkOnERC721Received(from, to, tokenId, _data), \"ERC721: transfer to non ERC721Receiver implementer\");\n    }\n\n    /**\n     * @dev Returns whether `tokenId` exists.\n     *\n     * Tokens can be managed by their owner or approved accounts via {approve} or {setApprovalForAll}.\n     *\n     * Tokens start existing when they are minted (`_mint`),\n     * and stop existing when they are burned (`_burn`).\n     */\n    function _exists(uint256 tokenId) internal view virtual returns (bool) {\n        return _owners[tokenId] != address(0);\n    }\n\n    /**\n     * @dev Returns whether `spender` is allowed to manage `tokenId`.\n     *\n     * Requirements:\n     *\n     * - `tokenId` must exist.\n     */\n    function _isApprovedOrOwner(address spender, uint256 tokenId) internal view virtual returns (bool) {\n        require(_exists(tokenId), \"ERC721: operator query for nonexistent token\");\n        address owner = ERC721.ownerOf(tokenId);\n        return (spender == owner || getApproved(tokenId) == spender || isApprovedForAll(owner, spender));\n    }\n\n    /**\n     * @dev Safely mints `tokenId` and transfers it to `to`.\n     *\n     * Requirements:\n     *\n     * - `tokenId` must not exist.\n     * - If `to` refers to a smart contract, it must implement {IERC721Receiver-onERC721Received}, which is called upon a safe transfer.\n     *\n     * Emits a {Transfer} event.\n     */\n    function _safeMint(address to, uint256 tokenId) internal virtual {\n        _safeMint(to, tokenId, \"\");\n    }\n\n    /**\n     * @dev Same as {xref-ERC721-_safeMint-address-uint256-}[`_safeMint`], with an additional `data` parameter which is\n     * forwarded in {IERC721Receiver-onERC721Received} to contract recipients.\n     */\n    function _safeMint(\n        address to,\n        uint256 tokenId,\n        bytes memory _data\n    ) internal virtual {\n        _mint(to, tokenId);\n        require(\n            _checkOnERC721Received(address(0), to, tokenId, _data),\n            \"ERC721: transfer to non ERC721Receiver implementer\"\n        );\n    }\n\n    /**\n     * @dev Mints `tokenId` and transfers it to `to`.\n     *\n     * WARNING: Usage of this method is discouraged, use {_safeMint} whenever possible\n     *\n     * Requirements:\n     *\n     * - `tokenId` must not exist.\n     * - `to` cannot be the zero address.\n     *\n     * Emits a {Transfer} event.\n     */\n    function _mint(address to, uint256 tokenId) internal virtual {\n        require(to != address(0), \"ERC721: mint to the zero address\");\n        require(!_exists(tokenId), \"ERC721: token already minted\");\n\n        _beforeTokenTransfer(address(0), to, tokenId);\n\n        _balances[to] += 1;\n        _owners[tokenId] = to;\n\n        emit Transfer(address(0), to, tokenId);\n    }\n\n    /**\n     * @dev Destroys `tokenId`.\n     * The approval is cleared when the token is burned.\n     *\n     * Requirements:\n     *\n     * - `tokenId` must exist.\n     *\n     * Emits a {Transfer} event.\n     */\n    function _burn(uint256 tokenId) internal virtual {\n        address owner = ERC721.ownerOf(tokenId);\n\n        _beforeTokenTransfer(owner, address(0), tokenId);\n\n        // Clear approvals\n        _approve(address(0), tokenId);\n\n        _balances[owner] -= 1;\n        delete _owners[tokenId];\n\n        emit Transfer(owner, address(0), tokenId);\n    }\n\n    /**\n     * @dev Transfers `tokenId` from `from` to `to`.\n     *  As opposed to {transferFrom}, this imposes no restrictions on msg.sender.\n     *\n     * Requirements:\n     *\n     * - `to` cannot be the zero address.\n     * - `tokenId` token must be owned by `from`.\n     *\n     * Emits a {Transfer} event.\n     */\n    function _transfer(\n        address from,\n        address to,\n        uint256 tokenId\n    ) internal virtual {\n        require(ERC721.ownerOf(tokenId) == from, \"ERC721: transfer of token that is not own\");\n        require(to != address(0), \"ERC721: transfer to the zero address\");\n\n        _beforeTokenTransfer(from, to, tokenId);\n\n        // Clear approvals from the previous owner\n        _approve(address(0), tokenId);\n\n        _balances[from] -= 1;\n        _balances[to] += 1;\n        _owners[tokenId] = to;\n\n        emit Transfer(from, to, tokenId);\n    }\n\n    /**\n     * @dev Approve `to` to operate on `tokenId`\n     *\n     * Emits a {Approval} event.\n     */\n    function _approve(address to, uint256 tokenId) internal virtual {\n        _tokenApprovals[tokenId] = to;\n        emit Approval(ERC721.ownerOf(tokenId), to, tokenId);\n    }\n\n    /**\n     * @dev Internal function to invoke {IERC721Receiver-onERC721Received} on a target address.\n     * The call is not executed if the target address is not a contract.\n     *\n     * @param from address representing the previous owner of the given token ID\n     * @param to target address that will receive the tokens\n     * @param tokenId uint256 ID of the token to be transferred\n     * @param _data bytes optional data to send along with the call\n     * @return bool whether the call correctly returned the expected magic value\n     */\n    function _checkOnERC721Received(\n        address from,\n        address to,\n        uint256 tokenId,\n        bytes memory _data\n    ) private returns (bool) {\n        if (to.isContract()) {\n            try IERC721Receiver(to).onERC721Received(_msgSender(), from, tokenId, _data) returns (bytes4 retval) {\n                return retval == IERC721Receiver.onERC721Received.selector;\n            } catch (bytes memory reason) {\n                if (reason.length == 0) {\n                    revert(\"ERC721: transfer to non ERC721Receiver implementer\");\n                } else {\n                    assembly {\n                        revert(add(32, reason), mload(reason))\n                    }\n                }\n            }\n        } else {\n            return true;\n        }\n    }\n\n    /**\n     * @dev Hook that is called before any token transfer. This includes minting\n     * and burning.\n     *\n     * Calling conditions:\n     *\n     * - When `from` and `to` are both non-zero, ``from``'s `tokenId` will be\n     * transferred to `to`.\n     * - When `from` is zero, `tokenId` will be minted for `to`.\n     * - When `to` is zero, ``from``'s `tokenId` will be burned.\n     * - `from` and `to` are never both zero.\n     *\n     * To learn more about hooks, head to xref:ROOT:extending-contracts.adoc#using-hooks[Using Hooks].\n     */\n    function _beforeTokenTransfer(\n        address from,\n        address to,\n        uint256 tokenId\n    ) internal virtual {}\n}\n\n\n\n\n/**\n * @title ERC-721 Non-Fungible Token Standard, optional enumeration extension\n * @dev See https://eips.ethereum.org/EIPS/eip-721\n */\ninterface IERC721Enumerable is IERC721 {\n    /**\n     * @dev Returns the total amount of tokens stored by the contract.\n     */\n    function totalSupply() external view returns (uint256);\n\n    /**\n     * @dev Returns a token ID owned by `owner` at a given `index` of its token list.\n     * Use along with {balanceOf} to enumerate all of ``owner``'s tokens.\n     */\n    function tokenOfOwnerByIndex(address owner, uint256 index) external view returns (uint256 tokenId);\n\n    /**\n     * @dev Returns a token ID at a given `index` of all the tokens stored by the contract.\n     * Use along with {totalSupply} to enumerate all tokens.\n     */\n    function tokenByIndex(uint256 index) external view returns (uint256);\n}\n\n\n\n\n\n/**\n * @dev This implements an optional extension of {ERC721} defined in the EIP that adds\n * enumerability of all the token ids in the contract as well as all token ids owned by each\n * account.\n */\nabstract contract ERC721Enumerable is ERC721, IERC721Enumerable {\n    // Mapping from owner to list of owned token IDs\n    mapping(address => mapping(uint256 => uint256)) private _ownedTokens;\n\n    // Mapping from token ID to index of the owner tokens list\n    mapping(uint256 => uint256) private _ownedTokensIndex;\n\n    // Array with all token ids, used for enumeration\n    uint256[] private _allTokens;\n\n    // Mapping from token id to position in the allTokens array\n    mapping(uint256 => uint256) private _allTokensIndex;\n\n    /**\n     * @dev See {IERC165-supportsInterface}.\n     */\n    function supportsInterface(bytes4 interfaceId) public view virtual override(IERC165, ERC721) returns (bool) {\n        return interfaceId == type(IERC721Enumerable).interfaceId || super.supportsInterface(interfaceId);\n    }\n\n    /**\n     * @dev See {IERC721Enumerable-tokenOfOwnerByIndex}.\n     */\n    function tokenOfOwnerByIndex(address owner, uint256 index) public view virtual override returns (uint256) {\n        require(index < ERC721.balanceOf(owner), \"ERC721Enumerable: owner index out of bounds\");\n        return _ownedTokens[owner][index];\n    }\n\n    /**\n     * @dev See {IERC721Enumerable-totalSupply}.\n     */\n    function totalSupply() public view virtual override returns (uint256) {\n        return _allTokens.length;\n    }\n\n    /**\n     * @dev See {IERC721Enumerable-tokenByIndex}.\n     */\n    function tokenByIndex(uint256 index) public view virtual override returns (uint256) {\n        require(index < ERC721Enumerable.totalSupply(), \"ERC721Enumerable: global index out of bounds\");\n        return _allTokens[index];\n    }\n\n    /**\n     * @dev Hook that is called before any token transfer. This includes minting\n     * and burning.\n     *\n     * Calling conditions:\n     *\n     * - When `from` and `to` are both non-zero, ``from``'s `tokenId` will be\n     * transferred to `to`.\n     * - When `from` is zero, `tokenId` will be minted for `to`.\n     * - When `to` is zero, ``from``'s `tokenId` will be burned.\n     * - `from` cannot be the zero address.\n     * - `to` cannot be the zero address.\n     *\n     * To learn more about hooks, head to xref:ROOT:extending-contracts.adoc#using-hooks[Using Hooks].\n     */\n    function _beforeTokenTransfer(\n        address from,\n        address to,\n        uint256 tokenId\n    ) internal virtual override {\n        super._beforeTokenTransfer(from, to, tokenId);\n\n        if (from == address(0)) {\n            _addTokenToAllTokensEnumeration(tokenId);\n        } else if (from != to) {\n            _removeTokenFromOwnerEnumeration(from, tokenId);\n        }\n        if (to == address(0)) {\n            _removeTokenFromAllTokensEnumeration(tokenId);\n        } else if (to != from) {\n            _addTokenToOwnerEnumeration(to, tokenId);\n        }\n    }\n\n    /**\n     * @dev Private function to add a token to this extension's ownership-tracking data structures.\n     * @param to address representing the new owner of the given token ID\n     * @param tokenId uint256 ID of the token to be added to the tokens list of the given address\n     */\n    function _addTokenToOwnerEnumeration(address to, uint256 tokenId) private {\n        uint256 length = ERC721.balanceOf(to);\n        _ownedTokens[to][length] = tokenId;\n        _ownedTokensIndex[tokenId] = length;\n    }\n\n    /**\n     * @dev Private function to add a token to this extension's token tracking data structures.\n     * @param tokenId uint256 ID of the token to be added to the tokens list\n     */\n    function _addTokenToAllTokensEnumeration(uint256 tokenId) private {\n        _allTokensIndex[tokenId] = _allTokens.length;\n        _allTokens.push(tokenId);\n    }\n\n    /**\n     * @dev Private function to remove a token from this extension's ownership-tracking data structures. Note that\n     * while the token is not assigned a new owner, the `_ownedTokensIndex` mapping is _not_ updated: this allows for\n     * gas optimizations e.g. when performing a transfer operation (avoiding double writes).\n     * This has O(1) time complexity, but alters the order of the _ownedTokens array.\n     * @param from address representing the previous owner of the given token ID\n     * @param tokenId uint256 ID of the token to be removed from the tokens list of the given address\n     */\n    function _removeTokenFromOwnerEnumeration(address from, uint256 tokenId) private {\n        // To prevent a gap in from's tokens array, we store the last token in the index of the token to delete, and\n        // then delete the last slot (swap and pop).\n\n        uint256 lastTokenIndex = ERC721.balanceOf(from) - 1;\n        uint256 tokenIndex = _ownedTokensIndex[tokenId];\n\n        // When the token to delete is the last token, the swap operation is unnecessary\n        if (tokenIndex != lastTokenIndex) {\n            uint256 lastTokenId = _ownedTokens[from][lastTokenIndex];\n\n            _ownedTokens[from][tokenIndex] = lastTokenId; // Move the last token to the slot of the to-delete token\n            _ownedTokensIndex[lastTokenId] = tokenIndex; // Update the moved token's index\n        }\n\n        // This also deletes the contents at the last position of the array\n        delete _ownedTokensIndex[tokenId];\n        delete _ownedTokens[from][lastTokenIndex];\n    }\n\n    /**\n     * @dev Private function to remove a token from this extension's token tracking data structures.\n     * This has O(1) time complexity, but alters the order of the _allTokens array.\n     * @param tokenId uint256 ID of the token to be removed from the tokens list\n     */\n    function _removeTokenFromAllTokensEnumeration(uint256 tokenId) private {\n        // To prevent a gap in the tokens array, we store the last token in the index of the token to delete, and\n        // then delete the last slot (swap and pop).\n\n        uint256 lastTokenIndex = _allTokens.length - 1;\n        uint256 tokenIndex = _allTokensIndex[tokenId];\n\n        // When the token to delete is the last token, the swap operation is unnecessary. However, since this occurs so\n        // rarely (when the last minted token is burnt) that we still do the swap here to avoid the gas cost of adding\n        // an 'if' statement (like in _removeTokenFromOwnerEnumeration)\n        uint256 lastTokenId = _allTokens[lastTokenIndex];\n\n        _allTokens[tokenIndex] = lastTokenId; // Move the last token to the slot of the to-delete token\n        _allTokensIndex[lastTokenId] = tokenIndex; // Update the moved token's index\n\n        // This also deletes the contents at the last position of the array\n        delete _allTokensIndex[tokenId];\n        _allTokens.pop();\n    }\n}\n\n\n\n\n/**\n * @dev Contract module which provides a basic access control mechanism, where\n * there is an account (an owner) that can be granted exclusive access to\n * specific functions.\n *\n * By default, the owner account will be the one that deploys the contract. This\n * can later be changed with {transferOwnership}.\n *\n * This module is used through inheritance. It will make available the modifier\n * `onlyOwner`, which can be applied to your functions to restrict their use to\n * the owner.\n */\nabstract contract Ownable is Context {\n    address private _owner;\n\n    event OwnershipTransferred(address indexed previousOwner, address indexed newOwner);\n\n    /**\n     * @dev Initializes the contract setting the deployer as the initial owner.\n     */\n    constructor() {\n        _setOwner(_msgSender());\n    }\n\n    /**\n     * @dev Returns the address of the current owner.\n     */\n    function owner() public view virtual returns (address) {\n        return _owner;\n    }\n\n    /**\n     * @dev Throws if called by any account other than the owner.\n     */\n    modifier onlyOwner() {\n        require(owner() == _msgSender(), \"Ownable: caller is not the owner\");\n        _;\n    }\n\n    /**\n     * @dev Leaves the contract without owner. It will not be possible to call\n     * `onlyOwner` functions anymore. Can only be called by the current owner.\n     *\n     * NOTE: Renouncing ownership will leave the contract without an owner,\n     * thereby removing any functionality that is only available to the owner.\n     */\n    function renounceOwnership() public virtual onlyOwner {\n        _setOwner(address(0));\n    }\n\n    /**\n     * @dev Transfers ownership of the contract to a new account (`newOwner`).\n     * Can only be called by the current owner.\n     */\n    function transferOwnership(address newOwner) public virtual onlyOwner {\n        require(newOwner != address(0), \"Ownable: new owner is the zero address\");\n        _setOwner(newOwner);\n    }\n\n    function _setOwner(address newOwner) private {\n        address oldOwner = _owner;\n        _owner = newOwner;\n        emit OwnershipTransferred(oldOwner, newOwner);\n    }\n}\n\ncontract BlobStars_dev is ERC721Enumerable, Ownable {\n  using Strings for uint256;\n\n  string public baseURI;\n  string public baseExtension = \".json\";\n  string public metaDataFolder = \"metadata/\";\n  uint256 public cost = .05 ether;\n  uint256 public maxSupply = 10000;\n  uint256 public maxMintAmount = 5;\n  bool public presale = false;\n  bool public paused = false;\n  mapping(address => bool) public allowlist;\n\n  constructor(\n    string memory _name,\n    string memory _symbol,\n    string memory _initBaseURI\n  ) ERC721(_name, _symbol) {\n    setBaseURI(_initBaseURI);\n    mint(msg.sender, 5);\n  }\n\n  // internal\n  function _baseURI() internal view virtual override returns (string memory) {\n    return baseURI;\n  }\n\n  // public\n  function mint(address _to, uint256 _mintAmount) public payable {\n    uint256 supply = totalSupply();\n    require(!paused, \"Contract is paused\");\n    require(_mintAmount > 0, \"Must mint at least 1\");\n    require(_mintAmount <= maxMintAmount, \"Cannot mint more than 5 at once\");\n    require(supply + _mintAmount <= maxSupply, \"Mint amount exceeds max supply\");\n\n\n    if (msg.sender != owner()) {\n        if (presale) {\n          require(allowlist[msg.sender] == true, \"Address not allowlisted for presale\");\n          require(msg.value >= cost * _mintAmount, \"Not enough ETH sent\");\n        }\n        // after the presale, the allowlist functions as a \"free mint\" list\n        if (allowlist[msg.sender] != true) {\n          require(msg.value >= cost * _mintAmount, \"Not enough ETH sent\");\n        }\n        allowlist[msg.sender] = false;\n    }\n\n    for (uint256 i = 1; i <= _mintAmount; i++) {\n      _safeMint(_to, supply + i);\n    }\n  }\n\n  function walletOfOwner(address _owner)\n    public\n    view\n    returns (uint256[] memory)\n  {\n    uint256 ownerTokenCount = balanceOf(_owner);\n    uint256[] memory tokenIds = new uint256[](ownerTokenCount);\n    for (uint256 i; i < ownerTokenCount; i++) {\n      tokenIds[i] = tokenOfOwnerByIndex(_owner, i);\n    }\n    return tokenIds;\n  }\n\n  function tokenURI(uint256 tokenId)\n    public\n    view\n    virtual\n    override\n    returns (string memory)\n  {\n    require(\n      _exists(tokenId),\n      \"ERC721Metadata: URI query for nonexistent token\"\n    );\n\n    string memory currentBaseURI = _baseURI();\n    return bytes(currentBaseURI).length > 0\n        ? string(abi.encodePacked(currentBaseURI, metaDataFolder, tokenId.toString(), baseExtension))\n        : \"\";\n  }\n\n  //only owner\n  function setCost(uint256 _newCost) public onlyOwner() {\n    cost = _newCost;\n  }\n\n  function setMaxMintAmount(uint256 _newMaxMintAmount) public onlyOwner() {\n    maxMintAmount = _newMaxMintAmount;\n  }\n\n  function setBaseURI(string memory _newBaseURI) public onlyOwner {\n    baseURI = _newBaseURI;\n  }\n\n  function setBaseExtension(string memory _newBaseExtension) public onlyOwner {\n    baseExtension = _newBaseExtension;\n  }\n\n  function togglePause(bool _state) public onlyOwner {\n    paused = _state;\n  }\n\n  function togglePresale(bool _state) public onlyOwner {\n    presale = _state;\n  }\n\n  function allowlistUser(address[] memory _arr) public onlyOwner {\n    for (uint256 i; i < _arr.length; i++) {\n      allowlist[_arr[i]] = true;\n    }\n  }\n\n  function removeAllowlistUser(address[] memory _arr) public onlyOwner {\n    for (uint256 i; i < _arr.length; i++) {\n      allowlist[_arr[i]] = false;\n    }\n  }\n\n  function withdraw() public payable onlyOwner {\n    (bool success, ) = msg.sender.call{value: address(this).balance}(\"\");\n    require(success, \"Transfer failed.\");\n  }\n}\n",
  "sourcePath": "/Users/zackwilder/code/blobstars/contracts/BlobStars.sol",
  "compiler": {
    "name": "solc",
    "version": "0.8.0+commit.c7dfd78e.Emscripten.clang"
  },
  "schemaVersion": "3.4.11",
  "updatedAt": "2023-02-03T16:30:31.574Z",
  "devdoc": {
    "kind": "dev",
    "methods": {
      "approve(address,uint256)": {
        "details": "See {IERC721-approve}."
      },
      "balanceOf(address)": {
        "details": "See {IERC721-balanceOf}."
      },
      "getApproved(uint256)": {
        "details": "See {IERC721-getApproved}."
      },
      "isApprovedForAll(address,address)": {
        "details": "See {IERC721-isApprovedForAll}."
      },
      "name()": {
        "details": "See {IERC721Metadata-name}."
      },
      "owner()": {
        "details": "Returns the address of the current owner."
      },
      "ownerOf(uint256)": {
        "details": "See {IERC721-ownerOf}."
      },
      "renounceOwnership()": {
        "details": "Leaves the contract without owner. It will not be possible to call `onlyOwner` functions anymore. Can only be called by the current owner. NOTE: Renouncing ownership will leave the contract without an owner, thereby removing any functionality that is only available to the owner."
      },
      "safeTransferFrom(address,address,uint256)": {
        "details": "See {IERC721-safeTransferFrom}."
      },
      "safeTransferFrom(address,address,uint256,bytes)": {
        "details": "See {IERC721-safeTransferFrom}."
      },
      "setApprovalForAll(address,bool)": {
        "details": "See {IERC721-setApprovalForAll}."
      },
      "supportsInterface(bytes4)": {
        "details": "See {IERC165-supportsInterface}."
      },
      "symbol()": {
        "details": "See {IERC721Metadata-symbol}."
      },
      "tokenByIndex(uint256)": {
        "details": "See {IERC721Enumerable-tokenByIndex}."
      },
      "tokenOfOwnerByIndex(address,uint256)": {
        "details": "See {IERC721Enumerable-tokenOfOwnerByIndex}."
      },
      "tokenURI(uint256)": {
        "details": "See {IERC721Metadata-tokenURI}."
      },
      "totalSupply()": {
        "details": "See {IERC721Enumerable-totalSupply}."
      },
      "transferFrom(address,address,uint256)": {
        "details": "See {IERC721-transferFrom}."
      },
      "transferOwnership(address)": {
        "details": "Transfers ownership of the contract to a new account (`newOwner`). Can only be called by the current owner."
      }
    },
    "version": 1
  },
  "userdoc": {
    "kind": "user",
    "methods": {},
    "version": 1
  }
}