{
  "_format": "hh-sol-artifact-1",
  "contractName": "BlobStars_dev",
  "sourceName": "contracts/BlobStars_dev.sol",
  "abi": [
    {
      "inputs": [
        {
          "internalType": "string",
          "name": "_name",
          "type": "string"
        },
        {
          "internalType": "string",
          "name": "_symbol",
          "type": "string"
        },
        {
          "internalType": "string",
          "name": "_initBaseURI",
          "type": "string"
        }
      ],
      "stateMutability": "nonpayable",
      "type": "constructor"
    },
    {
      "anonymous": false,
      "inputs": [
        {
          "indexed": true,
          "internalType": "address",
          "name": "owner",
          "type": "address"
        },
        {
          "indexed": true,
          "internalType": "address",
          "name": "approved",
          "type": "address"
        },
        {
          "indexed": true,
          "internalType": "uint256",
          "name": "tokenId",
          "type": "uint256"
        }
      ],
      "name": "Approval",
      "type": "event"
    },
    {
      "anonymous": false,
      "inputs": [
        {
          "indexed": true,
          "internalType": "address",
          "name": "owner",
          "type": "address"
        },
        {
          "indexed": true,
          "internalType": "address",
          "name": "operator",
          "type": "address"
        },
        {
          "indexed": false,
          "internalType": "bool",
          "name": "approved",
          "type": "bool"
        }
      ],
      "name": "ApprovalForAll",
      "type": "event"
    },
    {
      "anonymous": false,
      "inputs": [
        {
          "indexed": true,
          "internalType": "address",
          "name": "previousOwner",
          "type": "address"
        },
        {
          "indexed": true,
          "internalType": "address",
          "name": "newOwner",
          "type": "address"
        }
      ],
      "name": "OwnershipTransferred",
      "type": "event"
    },
    {
      "anonymous": false,
      "inputs": [
        {
          "indexed": true,
          "internalType": "address",
          "name": "from",
          "type": "address"
        },
        {
          "indexed": true,
          "internalType": "address",
          "name": "to",
          "type": "address"
        },
        {
          "indexed": true,
          "internalType": "uint256",
          "name": "tokenId",
          "type": "uint256"
        }
      ],
      "name": "Transfer",
      "type": "event"
    },
    {
      "inputs": [
        {
          "internalType": "address",
          "name": "",
          "type": "address"
        }
      ],
      "name": "allowlist",
      "outputs": [
        {
          "internalType": "bool",
          "name": "",
          "type": "bool"
        }
      ],
      "stateMutability": "view",
      "type": "function"
    },
    {
      "inputs": [
        {
          "internalType": "address[]",
          "name": "_arr",
          "type": "address[]"
        }
      ],
      "name": "allowlistUser",
      "outputs": [],
      "stateMutability": "nonpayable",
      "type": "function"
    },
    {
      "inputs": [
        {
          "internalType": "address",
          "name": "to",
          "type": "address"
        },
        {
          "internalType": "uint256",
          "name": "tokenId",
          "type": "uint256"
        }
      ],
      "name": "approve",
      "outputs": [],
      "stateMutability": "nonpayable",
      "type": "function"
    },
    {
      "inputs": [
        {
          "internalType": "address",
          "name": "owner",
          "type": "address"
        }
      ],
      "name": "balanceOf",
      "outputs": [
        {
          "internalType": "uint256",
          "name": "",
          "type": "uint256"
        }
      ],
      "stateMutability": "view",
      "type": "function"
    },
    {
      "inputs": [],
      "name": "baseExtension",
      "outputs": [
        {
          "internalType": "string",
          "name": "",
          "type": "string"
        }
      ],
      "stateMutability": "view",
      "type": "function"
    },
    {
      "inputs": [],
      "name": "baseURI",
      "outputs": [
        {
          "internalType": "string",
          "name": "",
          "type": "string"
        }
      ],
      "stateMutability": "view",
      "type": "function"
    },
    {
      "inputs": [],
      "name": "cost",
      "outputs": [
        {
          "internalType": "uint256",
          "name": "",
          "type": "uint256"
        }
      ],
      "stateMutability": "view",
      "type": "function"
    },
    {
      "inputs": [
        {
          "internalType": "uint256",
          "name": "tokenId",
          "type": "uint256"
        }
      ],
      "name": "getApproved",
      "outputs": [
        {
          "internalType": "address",
          "name": "",
          "type": "address"
        }
      ],
      "stateMutability": "view",
      "type": "function"
    },
    {
      "inputs": [
        {
          "internalType": "address",
          "name": "owner",
          "type": "address"
        },
        {
          "internalType": "address",
          "name": "operator",
          "type": "address"
        }
      ],
      "name": "isApprovedForAll",
      "outputs": [
        {
          "internalType": "bool",
          "name": "",
          "type": "bool"
        }
      ],
      "stateMutability": "view",
      "type": "function"
    },
    {
      "inputs": [],
      "name": "maxMintAmount",
      "outputs": [
        {
          "internalType": "uint256",
          "name": "",
          "type": "uint256"
        }
      ],
      "stateMutability": "view",
      "type": "function"
    },
    {
      "inputs": [],
      "name": "maxSupply",
      "outputs": [
        {
          "internalType": "uint256",
          "name": "",
          "type": "uint256"
        }
      ],
      "stateMutability": "view",
      "type": "function"
    },
    {
      "inputs": [],
      "name": "metaDataFolder",
      "outputs": [
        {
          "internalType": "string",
          "name": "",
          "type": "string"
        }
      ],
      "stateMutability": "view",
      "type": "function"
    },
    {
      "inputs": [
        {
          "internalType": "address",
          "name": "_to",
          "type": "address"
        },
        {
          "internalType": "uint256",
          "name": "_mintAmount",
          "type": "uint256"
        }
      ],
      "name": "mint",
      "outputs": [],
      "stateMutability": "payable",
      "type": "function"
    },
    {
      "inputs": [],
      "name": "name",
      "outputs": [
        {
          "internalType": "string",
          "name": "",
          "type": "string"
        }
      ],
      "stateMutability": "view",
      "type": "function"
    },
    {
      "inputs": [],
      "name": "owner",
      "outputs": [
        {
          "internalType": "address",
          "name": "",
          "type": "address"
        }
      ],
      "stateMutability": "view",
      "type": "function"
    },
    {
      "inputs": [
        {
          "internalType": "uint256",
          "name": "tokenId",
          "type": "uint256"
        }
      ],
      "name": "ownerOf",
      "outputs": [
        {
          "internalType": "address",
          "name": "",
          "type": "address"
        }
      ],
      "stateMutability": "view",
      "type": "function"
    },
    {
      "inputs": [],
      "name": "paused",
      "outputs": [
        {
          "internalType": "bool",
          "name": "",
          "type": "bool"
        }
      ],
      "stateMutability": "view",
      "type": "function"
    },
    {
      "inputs": [
        {
          "internalType": "address[]",
          "name": "_arr",
          "type": "address[]"
        }
      ],
      "name": "removeAllowlistUser",
      "outputs": [],
      "stateMutability": "nonpayable",
      "type": "function"
    },
    {
      "inputs": [],
      "name": "renounceOwnership",
      "outputs": [],
      "stateMutability": "nonpayable",
      "type": "function"
    },
    {
      "inputs": [
        {
          "internalType": "address",
          "name": "from",
          "type": "address"
        },
        {
          "internalType": "address",
          "name": "to",
          "type": "address"
        },
        {
          "internalType": "uint256",
          "name": "tokenId",
          "type": "uint256"
        }
      ],
      "name": "safeTransferFrom",
      "outputs": [],
      "stateMutability": "nonpayable",
      "type": "function"
    },
    {
      "inputs": [
        {
          "internalType": "address",
          "name": "from",
          "type": "address"
        },
        {
          "internalType": "address",
          "name": "to",
          "type": "address"
        },
        {
          "internalType": "uint256",
          "name": "tokenId",
          "type": "uint256"
        },
        {
          "internalType": "bytes",
          "name": "data",
          "type": "bytes"
        }
      ],
      "name": "safeTransferFrom",
      "outputs": [],
      "stateMutability": "nonpayable",
      "type": "function"
    },
    {
      "inputs": [
        {
          "internalType": "address",
          "name": "operator",
          "type": "address"
        },
        {
          "internalType": "bool",
          "name": "approved",
          "type": "bool"
        }
      ],
      "name": "setApprovalForAll",
      "outputs": [],
      "stateMutability": "nonpayable",
      "type": "function"
    },
    {
      "inputs": [
        {
          "internalType": "string",
          "name": "_newBaseExtension",
          "type": "string"
        }
      ],
      "name": "setBaseExtension",
      "outputs": [],
      "stateMutability": "nonpayable",
      "type": "function"
    },
    {
      "inputs": [
        {
          "internalType": "string",
          "name": "_newBaseURI",
          "type": "string"
        }
      ],
      "name": "setBaseURI",
      "outputs": [],
      "stateMutability": "nonpayable",
      "type": "function"
    },
    {
      "inputs": [
        {
          "internalType": "uint256",
          "name": "_newCost",
          "type": "uint256"
        }
      ],
      "name": "setCost",
      "outputs": [],
      "stateMutability": "nonpayable",
      "type": "function"
    },
    {
      "inputs": [
        {
          "internalType": "uint256",
          "name": "_newMaxMintAmount",
          "type": "uint256"
        }
      ],
      "name": "setMaxMintAmount",
      "outputs": [],
      "stateMutability": "nonpayable",
      "type": "function"
    },
    {
      "inputs": [
        {
          "internalType": "bytes4",
          "name": "interfaceId",
          "type": "bytes4"
        }
      ],
      "name": "supportsInterface",
      "outputs": [
        {
          "internalType": "bool",
          "name": "",
          "type": "bool"
        }
      ],
      "stateMutability": "view",
      "type": "function"
    },
    {
      "inputs": [],
      "name": "symbol",
      "outputs": [
        {
          "internalType": "string",
          "name": "",
          "type": "string"
        }
      ],
      "stateMutability": "view",
      "type": "function"
    },
    {
      "inputs": [
        {
          "internalType": "bool",
          "name": "_state",
          "type": "bool"
        }
      ],
      "name": "togglePause",
      "outputs": [],
      "stateMutability": "nonpayable",
      "type": "function"
    },
    {
      "inputs": [
        {
          "internalType": "uint256",
          "name": "index",
          "type": "uint256"
        }
      ],
      "name": "tokenByIndex",
      "outputs": [
        {
          "internalType": "uint256",
          "name": "",
          "type": "uint256"
        }
      ],
      "stateMutability": "view",
      "type": "function"
    },
    {
      "inputs": [
        {
          "internalType": "address",
          "name": "owner",
          "type": "address"
        },
        {
          "internalType": "uint256",
          "name": "index",
          "type": "uint256"
        }
      ],
      "name": "tokenOfOwnerByIndex",
      "outputs": [
        {
          "internalType": "uint256",
          "name": "",
          "type": "uint256"
        }
      ],
      "stateMutability": "view",
      "type": "function"
    },
    {
      "inputs": [
        {
          "internalType": "uint256",
          "name": "tokenId",
          "type": "uint256"
        }
      ],
      "name": "tokenURI",
      "outputs": [
        {
          "internalType": "string",
          "name": "",
          "type": "string"
        }
      ],
      "stateMutability": "view",
      "type": "function"
    },
    {
      "inputs": [],
      "name": "totalSupply",
      "outputs": [
        {
          "internalType": "uint256",
          "name": "",
          "type": "uint256"
        }
      ],
      "stateMutability": "view",
      "type": "function"
    },
    {
      "inputs": [
        {
          "internalType": "address",
          "name": "from",
          "type": "address"
        },
        {
          "internalType": "address",
          "name": "to",
          "type": "address"
        },
        {
          "internalType": "uint256",
          "name": "tokenId",
          "type": "uint256"
        }
      ],
      "name": "transferFrom",
      "outputs": [],
      "stateMutability": "nonpayable",
      "type": "function"
    },
    {
      "inputs": [
        {
          "internalType": "address",
          "name": "newOwner",
          "type": "address"
        }
      ],
      "name": "transferOwnership",
      "outputs": [],
      "stateMutability": "nonpayable",
      "type": "function"
    },
    {
      "inputs": [
        {
          "internalType": "address",
          "name": "_owner",
          "type": "address"
        }
      ],
      "name": "walletOfOwner",
      "outputs": [
        {
          "internalType": "uint256[]",
          "name": "",
          "type": "uint256[]"
        }
      ],
      "stateMutability": "view",
      "type": "function"
    },
    {
      "inputs": [],
      "name": "withdraw",
      "outputs": [],
      "stateMutability": "payable",
      "type": "function"
    }
  ],
  "bytecode": "0x60806040526040518060400160405280600581526020017f2e6a736f6e000000000000000000000000000000000000000000000000000000815250600c908051906020019062000051929190620012a3565b506040518060400160405280600981526020017f6d657461646174612f0000000000000000000000000000000000000000000000815250600d90805190602001906200009f929190620012a3565b50662386f26fc10000600e556112ec600f55600a6010556000601160006101000a81548160ff021916908315150217905550348015620000de57600080fd5b5060405162006919380380620069198339818101604052810190620001049190620014f0565b828281600090805190602001906200011e929190620012a3565b50806001908051906020019062000137929190620012a3565b5050506200015a6200014e6200018760201b60201c565b6200018f60201b60201c565b6200016b816200025560201b60201c565b6200017e33600a6200028160201b60201c565b50505062001f81565b600033905090565b6000600a60009054906101000a900473ffffffffffffffffffffffffffffffffffffffff16905081600a60006101000a81548173ffffffffffffffffffffffffffffffffffffffff021916908373ffffffffffffffffffffffffffffffffffffffff1602179055508173ffffffffffffffffffffffffffffffffffffffff168173ffffffffffffffffffffffffffffffffffffffff167f8be0079c531659141344cd1fd0a4f28419497f9722a3daafe3b4186f6b6457e060405160405180910390a35050565b620002656200060060201b60201c565b80600b90805190602001906200027d929190620012a3565b5050565b6000620002936200069160201b60201c565b9050601160009054906101000a900460ff1615620002e8576040517f08c379a0000000000000000000000000000000000000000000000000000000008152600401620002df906200160a565b60405180910390fd5b600082116200032e576040517f08c379a000000000000000000000000000000000000000000000000000000000815260040162000325906200167c565b60405180910390fd5b60105482111562000376576040517f08c379a00000000000000000000000000000000000000000000000000000000081526004016200036d90620016ee565b60405180910390fd5b600f54828262000387919062001749565b1115620003cb576040517f08c379a0000000000000000000000000000000000000000000000000000000008152600401620003c290620017f6565b60405180910390fd5b620003db6200069e60201b60201c565b73ffffffffffffffffffffffffffffffffffffffff163373ffffffffffffffffffffffffffffffffffffffff1614620005b65760011515601260003373ffffffffffffffffffffffffffffffffffffffff1673ffffffffffffffffffffffffffffffffffffffff16815260200190815260200160002060009054906101000a900460ff16151503620004ae5760018214620004ad576040517f08c379a0000000000000000000000000000000000000000000000000000000008152600401620004a4906200188e565b60405180910390fd5b5b60011515601260003373ffffffffffffffffffffffffffffffffffffffff1673ffffffffffffffffffffffffffffffffffffffff16815260200190815260200160002060009054906101000a900460ff161515146200055d5781600e54620005179190620018b0565b3410156200055c576040517f08c379a0000000000000000000000000000000000000000000000000000000008152600401620005539062001961565b60405180910390fd5b5b6000601260003373ffffffffffffffffffffffffffffffffffffffff1673ffffffffffffffffffffffffffffffffffffffff16815260200190815260200160002060006101000a81548160ff0219169083151502179055505b6000600190505b828111620005fa57620005e4848284620005d8919062001749565b620006c860201b60201c565b8080620005f19062001983565b915050620005bd565b50505050565b620006106200018760201b60201c565b73ffffffffffffffffffffffffffffffffffffffff16620006366200069e60201b60201c565b73ffffffffffffffffffffffffffffffffffffffff16146200068f576040517f08c379a0000000000000000000000000000000000000000000000000000000008152600401620006869062001a20565b60405180910390fd5b565b6000600880549050905090565b6000600a60009054906101000a900473ffffffffffffffffffffffffffffffffffffffff16905090565b620006ea828260405180602001604052806000815250620006ee60201b60201c565b5050565b6200070083836200075c60201b60201c565b620007156000848484620009a260201b60201c565b62000757576040517f08c379a00000000000000000000000000000000000000000000000000000000081526004016200074e9062001ab8565b60405180910390fd5b505050565b600073ffffffffffffffffffffffffffffffffffffffff168273ffffffffffffffffffffffffffffffffffffffff1603620007ce576040517f08c379a0000000000000000000000000000000000000000000000000000000008152600401620007c59062001b2a565b60405180910390fd5b620007df8162000b4b60201b60201c565b1562000822576040517f08c379a0000000000000000000000000000000000000000000000000000000008152600401620008199062001b9c565b60405180910390fd5b6200083860008383600162000b9460201b60201c565b620008498162000b4b60201b60201c565b156200088c576040517f08c379a0000000000000000000000000000000000000000000000000000000008152600401620008839062001b9c565b60405180910390fd5b6001600360008473ffffffffffffffffffffffffffffffffffffffff1673ffffffffffffffffffffffffffffffffffffffff16815260200190815260200160002060008282540192505081905550816002600083815260200190815260200160002060006101000a81548173ffffffffffffffffffffffffffffffffffffffff021916908373ffffffffffffffffffffffffffffffffffffffff160217905550808273ffffffffffffffffffffffffffffffffffffffff16600073ffffffffffffffffffffffffffffffffffffffff167fddf252ad1be2c89b69c2b068fc378daa952ba7f163c4a11628f55a4df523b3ef60405160405180910390a46200099e60008383600162000d2860201b60201c565b5050565b6000620009d08473ffffffffffffffffffffffffffffffffffffffff1662000d2e60201b620019641760201c565b1562000b3e578373ffffffffffffffffffffffffffffffffffffffff1663150b7a0262000a026200018760201b60201c565b8786866040518563ffffffff1660e01b815260040162000a26949392919062001c71565b6020604051808303816000875af192505050801562000a6557506040513d601f19601f8201168201806040525081019062000a62919062001d22565b60015b62000aed573d806000811462000a98576040519150601f19603f3d011682016040523d82523d6000602084013e62000a9d565b606091505b50600081510362000ae5576040517f08c379a000000000000000000000000000000000000000000000000000000000815260040162000adc9062001ab8565b60405180910390fd5b805181602001fd5b63150b7a0260e01b7bffffffffffffffffffffffffffffffffffffffffffffffffffffffff1916817bffffffffffffffffffffffffffffffffffffffffffffffffffffffff19161491505062000b43565b600190505b949350505050565b60008073ffffffffffffffffffffffffffffffffffffffff1662000b758362000d5160201b60201c565b73ffffffffffffffffffffffffffffffffffffffff1614159050919050565b62000bad8484848462000d8e60201b620019871760201c565b600181111562000bf4576040517f08c379a000000000000000000000000000000000000000000000000000000000815260040162000beb9062001dca565b60405180910390fd5b6000829050600073ffffffffffffffffffffffffffffffffffffffff168573ffffffffffffffffffffffffffffffffffffffff160362000c455762000c3f8162000ebb60201b60201c565b62000c8d565b8373ffffffffffffffffffffffffffffffffffffffff168573ffffffffffffffffffffffffffffffffffffffff161462000c8c5762000c8b858262000f0460201b60201c565b5b5b600073ffffffffffffffffffffffffffffffffffffffff168473ffffffffffffffffffffffffffffffffffffffff160362000cd95762000cd3816200108160201b60201c565b62000d21565b8473ffffffffffffffffffffffffffffffffffffffff168473ffffffffffffffffffffffffffffffffffffffff161462000d205762000d1f84826200115d60201b60201c565b5b5b5050505050565b50505050565b6000808273ffffffffffffffffffffffffffffffffffffffff163b119050919050565b60006002600083815260200190815260200160002060009054906101000a900473ffffffffffffffffffffffffffffffffffffffff169050919050565b600181111562000eb557600073ffffffffffffffffffffffffffffffffffffffff168473ffffffffffffffffffffffffffffffffffffffff161462000e265780600360008673ffffffffffffffffffffffffffffffffffffffff1673ffffffffffffffffffffffffffffffffffffffff168152602001908152602001600020600082825462000e1e919062001dec565b925050819055505b600073ffffffffffffffffffffffffffffffffffffffff168373ffffffffffffffffffffffffffffffffffffffff161462000eb45780600360008573ffffffffffffffffffffffffffffffffffffffff1673ffffffffffffffffffffffffffffffffffffffff168152602001908152602001600020600082825462000eac919062001749565b925050819055505b5b50505050565b6008805490506009600083815260200190815260200160002081905550600881908060018154018082558091505060019003906000526020600020016000909190919091505550565b6000600162000f1e84620011e960201b620013031760201c565b62000f2a919062001dec565b905060006007600084815260200190815260200160002054905081811462001010576000600660008673ffffffffffffffffffffffffffffffffffffffff1673ffffffffffffffffffffffffffffffffffffffff168152602001908152602001600020600084815260200190815260200160002054905080600660008773ffffffffffffffffffffffffffffffffffffffff1673ffffffffffffffffffffffffffffffffffffffff168152602001908152602001600020600084815260200190815260200160002081905550816007600083815260200190815260200160002081905550505b6007600084815260200190815260200160002060009055600660008573ffffffffffffffffffffffffffffffffffffffff1673ffffffffffffffffffffffffffffffffffffffff16815260200190815260200160002060008381526020019081526020016000206000905550505050565b6000600160088054905062001097919062001dec565b9050600060096000848152602001908152602001600020549050600060088381548110620010ca57620010c962001e27565b5b906000526020600020015490508060088381548110620010ef57620010ee62001e27565b5b90600052602060002001819055508160096000838152602001908152602001600020819055506009600085815260200190815260200160002060009055600880548062001141576200114062001e56565b5b6001900381819060005260206000200160009055905550505050565b60006200117583620011e960201b620013031760201c565b905081600660008573ffffffffffffffffffffffffffffffffffffffff1673ffffffffffffffffffffffffffffffffffffffff168152602001908152602001600020600083815260200190815260200160002081905550806007600084815260200190815260200160002081905550505050565b60008073ffffffffffffffffffffffffffffffffffffffff168273ffffffffffffffffffffffffffffffffffffffff16036200125c576040517f08c379a0000000000000000000000000000000000000000000000000000000008152600401620012539062001efb565b60405180910390fd5b600360008373ffffffffffffffffffffffffffffffffffffffff1673ffffffffffffffffffffffffffffffffffffffff168152602001908152602001600020549050919050565b828054620012b19062001f4c565b90600052602060002090601f016020900481019282620012d5576000855562001321565b82601f10620012f057805160ff191683800117855562001321565b8280016001018555821562001321579182015b828111156200132057825182559160200191906001019062001303565b5b50905062001330919062001334565b5090565b5b808211156200134f57600081600090555060010162001335565b5090565b6000604051905090565b600080fd5b600080fd5b600080fd5b600080fd5b6000601f19601f8301169050919050565b7f4e487b7100000000000000000000000000000000000000000000000000000000600052604160045260246000fd5b620013bc8262001371565b810181811067ffffffffffffffff82111715620013de57620013dd62001382565b5b80604052505050565b6000620013f362001353565b9050620014018282620013b1565b919050565b600067ffffffffffffffff82111562001424576200142362001382565b5b6200142f8262001371565b9050602081019050919050565b60005b838110156200145c5780820151818401526020810190506200143f565b838111156200146c576000848401525b50505050565b600062001489620014838462001406565b620013e7565b905082815260208101848484011115620014a857620014a76200136c565b5b620014b58482856200143c565b509392505050565b600082601f830112620014d557620014d462001367565b5b8151620014e784826020860162001472565b91505092915050565b6000806000606084860312156200150c576200150b6200135d565b5b600084015167ffffffffffffffff8111156200152d576200152c62001362565b5b6200153b86828701620014bd565b935050602084015167ffffffffffffffff8111156200155f576200155e62001362565b5b6200156d86828701620014bd565b925050604084015167ffffffffffffffff81111562001591576200159062001362565b5b6200159f86828701620014bd565b9150509250925092565b600082825260208201905092915050565b7f436f6e7472616374206973207061757365640000000000000000000000000000600082015250565b6000620015f2601283620015a9565b9150620015ff82620015ba565b602082019050919050565b600060208201905081810360008301526200162581620015e3565b9050919050565b7f4d757374206d696e74206174206c656173742031000000000000000000000000600082015250565b600062001664601483620015a9565b915062001671826200162c565b602082019050919050565b60006020820190508181036000830152620016978162001655565b9050919050565b7f43616e6e6f74206d696e74206d6f7265207468616e203130206174206f6e6365600082015250565b6000620016d6602083620015a9565b9150620016e3826200169e565b602082019050919050565b600060208201905081810360008301526200170981620016c7565b9050919050565b6000819050919050565b7f4e487b7100000000000000000000000000000000000000000000000000000000600052601160045260246000fd5b6000620017568262001710565b9150620017638362001710565b9250827fffffffffffffffffffffffffffffffffffffffffffffffffffffffffffffffff038211156200179b576200179a6200171a565b5b828201905092915050565b7f4d696e7420616d6f756e742065786365656473206d617820737570706c790000600082015250565b6000620017de601e83620015a9565b9150620017eb82620017a6565b602082019050919050565b600060208201905081810360008301526200181181620017cf565b9050919050565b7f416c6c6f776c697374206d656d626572732063616e206f6e6c79206d696e742060008201527f3120426c6f625374617200000000000000000000000000000000000000000000602082015250565b600062001876602a83620015a9565b9150620018838262001818565b604082019050919050565b60006020820190508181036000830152620018a98162001867565b9050919050565b6000620018bd8262001710565b9150620018ca8362001710565b9250817fffffffffffffffffffffffffffffffffffffffffffffffffffffffffffffffff04831182151516156200190657620019056200171a565b5b828202905092915050565b7f4e6f7420656e6f756768204554482073656e7400000000000000000000000000600082015250565b600062001949601383620015a9565b9150620019568262001911565b602082019050919050565b600060208201905081810360008301526200197c816200193a565b9050919050565b6000620019908262001710565b91507fffffffffffffffffffffffffffffffffffffffffffffffffffffffffffffffff8203620019c557620019c46200171a565b5b600182019050919050565b7f4f776e61626c653a2063616c6c6572206973206e6f7420746865206f776e6572600082015250565b600062001a08602083620015a9565b915062001a1582620019d0565b602082019050919050565b6000602082019050818103600083015262001a3b81620019f9565b9050919050565b7f4552433732313a207472616e7366657220746f206e6f6e20455243373231526560008201527f63656976657220696d706c656d656e7465720000000000000000000000000000602082015250565b600062001aa0603283620015a9565b915062001aad8262001a42565b604082019050919050565b6000602082019050818103600083015262001ad38162001a91565b9050919050565b7f4552433732313a206d696e7420746f20746865207a65726f2061646472657373600082015250565b600062001b12602083620015a9565b915062001b1f8262001ada565b602082019050919050565b6000602082019050818103600083015262001b458162001b03565b9050919050565b7f4552433732313a20746f6b656e20616c7265616479206d696e74656400000000600082015250565b600062001b84601c83620015a9565b915062001b918262001b4c565b602082019050919050565b6000602082019050818103600083015262001bb78162001b75565b9050919050565b600073ffffffffffffffffffffffffffffffffffffffff82169050919050565b600062001beb8262001bbe565b9050919050565b62001bfd8162001bde565b82525050565b62001c0e8162001710565b82525050565b600081519050919050565b600082825260208201905092915050565b600062001c3d8262001c14565b62001c49818562001c1f565b935062001c5b8185602086016200143c565b62001c668162001371565b840191505092915050565b600060808201905062001c88600083018762001bf2565b62001c97602083018662001bf2565b62001ca6604083018562001c03565b818103606083015262001cba818462001c30565b905095945050505050565b60007fffffffff0000000000000000000000000000000000000000000000000000000082169050919050565b62001cfc8162001cc5565b811462001d0857600080fd5b50565b60008151905062001d1c8162001cf1565b92915050565b60006020828403121562001d3b5762001d3a6200135d565b5b600062001d4b8482850162001d0b565b91505092915050565b7f455243373231456e756d657261626c653a20636f6e736563757469766520747260008201527f616e7366657273206e6f7420737570706f727465640000000000000000000000602082015250565b600062001db2603583620015a9565b915062001dbf8262001d54565b604082019050919050565b6000602082019050818103600083015262001de58162001da3565b9050919050565b600062001df98262001710565b915062001e068362001710565b92508282101562001e1c5762001e1b6200171a565b5b828203905092915050565b7f4e487b7100000000000000000000000000000000000000000000000000000000600052603260045260246000fd5b7f4e487b7100000000000000000000000000000000000000000000000000000000600052603160045260246000fd5b7f4552433732313a2061646472657373207a65726f206973206e6f74206120766160008201527f6c6964206f776e65720000000000000000000000000000000000000000000000602082015250565b600062001ee3602983620015a9565b915062001ef08262001e85565b604082019050919050565b6000602082019050818103600083015262001f168162001ed4565b9050919050565b7f4e487b7100000000000000000000000000000000000000000000000000000000600052602260045260246000fd5b6000600282049050600182168062001f6557607f821691505b60208210810362001f7b5762001f7a62001f1d565b5b50919050565b6149888062001f916000396000f3fe60806040526004361061021a5760003560e01c80635c975abb11610123578063a7cd52cb116100ab578063d5abeb011161006f578063d5abeb01146107c9578063da3ef23f146107f4578063e25d28481461081d578063e985e9c514610846578063f2fde38b146108835761021a565b8063a7cd52cb146106d2578063b1dc79091461070f578063b88d4fde14610738578063c668286214610761578063c87b56dd1461078c5761021a565b8063715018a6116100f2578063715018a6146106115780638da5cb5b146106285780639502743d1461065357806395d89b411461067e578063a22cb465146106a95761021a565b80635c975abb146105415780636352211e1461056c5780636c0360eb146105a957806370a08231146105d45761021a565b80632f745c59116101a6578063438b630011610175578063438b63001461044c57806344a0d68a146104895780634f6ccce7146104b257806355f804b3146104ef57806357d159c6146105185761021a565b80632f745c59146103c05780633ccfd60b146103fd57806340c10f191461040757806342842e0e146104235761021a565b8063095ea7b3116101ed578063095ea7b3146102ed57806313faede61461031657806318160ddd14610341578063239c70ae1461036c57806323b872dd146103975761021a565b806301ffc9a71461021f57806306fdde031461025c578063081812fc14610287578063088a4ed0146102c4575b600080fd5b34801561022b57600080fd5b5061024660048036038101906102419190613066565b6108ac565b60405161025391906130ae565b60405180910390f35b34801561026857600080fd5b50610271610926565b60405161027e9190613162565b60405180910390f35b34801561029357600080fd5b506102ae60048036038101906102a991906131ba565b6109b8565b6040516102bb9190613228565b60405180910390f35b3480156102d057600080fd5b506102eb60048036038101906102e691906131ba565b6109fe565b005b3480156102f957600080fd5b50610314600480360381019061030f919061326f565b610a10565b005b34801561032257600080fd5b5061032b610b27565b60405161033891906132be565b60405180910390f35b34801561034d57600080fd5b50610356610b2d565b60405161036391906132be565b60405180910390f35b34801561037857600080fd5b50610381610b3a565b60405161038e91906132be565b60405180910390f35b3480156103a357600080fd5b506103be60048036038101906103b991906132d9565b610b40565b005b3480156103cc57600080fd5b506103e760048036038101906103e2919061326f565b610ba0565b6040516103f491906132be565b60405180910390f35b610405610c45565b005b610421600480360381019061041c919061326f565b610cfc565b005b34801561042f57600080fd5b5061044a600480360381019061044591906132d9565b611044565b005b34801561045857600080fd5b50610473600480360381019061046e919061332c565b611064565b6040516104809190613417565b60405180910390f35b34801561049557600080fd5b506104b060048036038101906104ab91906131ba565b611112565b005b3480156104be57600080fd5b506104d960048036038101906104d491906131ba565b611124565b6040516104e691906132be565b60405180910390f35b3480156104fb57600080fd5b506105166004803603810190610511919061356e565b611195565b005b34801561052457600080fd5b5061053f600480360381019061053a91906135e3565b6111b7565b005b34801561054d57600080fd5b506105566111dc565b60405161056391906130ae565b60405180910390f35b34801561057857600080fd5b50610593600480360381019061058e91906131ba565b6111ef565b6040516105a09190613228565b60405180910390f35b3480156105b557600080fd5b506105be611275565b6040516105cb9190613162565b60405180910390f35b3480156105e057600080fd5b506105fb60048036038101906105f6919061332c565b611303565b60405161060891906132be565b60405180910390f35b34801561061d57600080fd5b506106266113ba565b005b34801561063457600080fd5b5061063d6113ce565b60405161064a9190613228565b60405180910390f35b34801561065f57600080fd5b506106686113f8565b6040516106759190613162565b60405180910390f35b34801561068a57600080fd5b50610693611486565b6040516106a09190613162565b60405180910390f35b3480156106b557600080fd5b506106d060048036038101906106cb9190613610565b611518565b005b3480156106de57600080fd5b506106f960048036038101906106f4919061332c565b61152e565b60405161070691906130ae565b60405180910390f35b34801561071b57600080fd5b5061073660048036038101906107319190613718565b61154e565b005b34801561074457600080fd5b5061075f600480360381019061075a9190613802565b6115eb565b005b34801561076d57600080fd5b5061077661164d565b6040516107839190613162565b60405180910390f35b34801561079857600080fd5b506107b360048036038101906107ae91906131ba565b6116db565b6040516107c09190613162565b60405180910390f35b3480156107d557600080fd5b506107de611788565b6040516107eb91906132be565b60405180910390f35b34801561080057600080fd5b5061081b6004803603810190610816919061356e565b61178e565b005b34801561082957600080fd5b50610844600480360381019061083f9190613718565b6117b0565b005b34801561085257600080fd5b5061086d60048036038101906108689190613885565b61184d565b60405161087a91906130ae565b60405180910390f35b34801561088f57600080fd5b506108aa60048036038101906108a5919061332c565b6118e1565b005b60007f780e9d63000000000000000000000000000000000000000000000000000000007bffffffffffffffffffffffffffffffffffffffffffffffffffffffff1916827bffffffffffffffffffffffffffffffffffffffffffffffffffffffff1916148061091f575061091e82611aad565b5b9050919050565b606060008054610935906138f4565b80601f0160208091040260200160405190810160405280929190818152602001828054610961906138f4565b80156109ae5780601f10610983576101008083540402835291602001916109ae565b820191906000526020600020905b81548152906001019060200180831161099157829003601f168201915b5050505050905090565b60006109c382611b8f565b6004600083815260200190815260200160002060009054906101000a900473ffffffffffffffffffffffffffffffffffffffff169050919050565b610a06611bda565b8060108190555050565b6000610a1b826111ef565b90508073ffffffffffffffffffffffffffffffffffffffff168373ffffffffffffffffffffffffffffffffffffffff1603610a8b576040517f08c379a0000000000000000000000000000000000000000000000000000000008152600401610a8290613997565b60405180910390fd5b8073ffffffffffffffffffffffffffffffffffffffff16610aaa611c58565b73ffffffffffffffffffffffffffffffffffffffff161480610ad95750610ad881610ad3611c58565b61184d565b5b610b18576040517f08c379a0000000000000000000000000000000000000000000000000000000008152600401610b0f90613a29565b60405180910390fd5b610b228383611c60565b505050565b600e5481565b6000600880549050905090565b60105481565b610b51610b4b611c58565b82611d19565b610b90576040517f08c379a0000000000000000000000000000000000000000000000000000000008152600401610b8790613abb565b60405180910390fd5b610b9b838383611dae565b505050565b6000610bab83611303565b8210610bec576040517f08c379a0000000000000000000000000000000000000000000000000000000008152600401610be390613b4d565b60405180910390fd5b600660008473ffffffffffffffffffffffffffffffffffffffff1673ffffffffffffffffffffffffffffffffffffffff168152602001908152602001600020600083815260200190815260200160002054905092915050565b610c4d611bda565b60003373ffffffffffffffffffffffffffffffffffffffff1647604051610c7390613b9e565b60006040518083038185875af1925050503d8060008114610cb0576040519150601f19603f3d011682016040523d82523d6000602084013e610cb5565b606091505b5050905080610cf9576040517f08c379a0000000000000000000000000000000000000000000000000000000008152600401610cf090613bff565b60405180910390fd5b50565b6000610d06610b2d565b9050601160009054906101000a900460ff1615610d58576040517f08c379a0000000000000000000000000000000000000000000000000000000008152600401610d4f90613c6b565b60405180910390fd5b60008211610d9b576040517f08c379a0000000000000000000000000000000000000000000000000000000008152600401610d9290613cd7565b60405180910390fd5b601054821115610de0576040517f08c379a0000000000000000000000000000000000000000000000000000000008152600401610dd790613d43565b60405180910390fd5b600f548282610def9190613d92565b1115610e30576040517f08c379a0000000000000000000000000000000000000000000000000000000008152600401610e2790613e34565b60405180910390fd5b610e386113ce565b73ffffffffffffffffffffffffffffffffffffffff163373ffffffffffffffffffffffffffffffffffffffff16146110085760011515601260003373ffffffffffffffffffffffffffffffffffffffff1673ffffffffffffffffffffffffffffffffffffffff16815260200190815260200160002060009054906101000a900460ff16151503610f065760018214610f05576040517f08c379a0000000000000000000000000000000000000000000000000000000008152600401610efc90613ec6565b60405180910390fd5b5b60011515601260003373ffffffffffffffffffffffffffffffffffffffff1673ffffffffffffffffffffffffffffffffffffffff16815260200190815260200160002060009054906101000a900460ff16151514610faf5781600e54610f6c9190613ee6565b341015610fae576040517f08c379a0000000000000000000000000000000000000000000000000000000008152600401610fa590613f8c565b60405180910390fd5b5b6000601260003373ffffffffffffffffffffffffffffffffffffffff1673ffffffffffffffffffffffffffffffffffffffff16815260200190815260200160002060006101000a81548160ff0219169083151502179055505b6000600190505b82811161103e5761102b8482846110269190613d92565b6120a7565b808061103690613fac565b91505061100f565b50505050565b61105f838383604051806020016040528060008152506115eb565b505050565b6060600061107183611303565b905060008167ffffffffffffffff81111561108f5761108e613443565b5b6040519080825280602002602001820160405280156110bd5781602001602082028036833780820191505090505b50905060005b82811015611107576110d58582610ba0565b8282815181106110e8576110e7613ff4565b5b60200260200101818152505080806110ff90613fac565b9150506110c3565b508092505050919050565b61111a611bda565b80600e8190555050565b600061112e610b2d565b821061116f576040517f08c379a000000000000000000000000000000000000000000000000000000000815260040161116690614095565b60405180910390fd5b6008828154811061118357611182613ff4565b5b90600052602060002001549050919050565b61119d611bda565b80600b90805190602001906111b3929190612f57565b5050565b6111bf611bda565b80601160006101000a81548160ff02191690831515021790555050565b601160009054906101000a900460ff1681565b6000806111fb836120c5565b9050600073ffffffffffffffffffffffffffffffffffffffff168173ffffffffffffffffffffffffffffffffffffffff160361126c576040517f08c379a000000000000000000000000000000000000000000000000000000000815260040161126390614101565b60405180910390fd5b80915050919050565b600b8054611282906138f4565b80601f01602080910402602001604051908101604052809291908181526020018280546112ae906138f4565b80156112fb5780601f106112d0576101008083540402835291602001916112fb565b820191906000526020600020905b8154815290600101906020018083116112de57829003601f168201915b505050505081565b60008073ffffffffffffffffffffffffffffffffffffffff168273ffffffffffffffffffffffffffffffffffffffff1603611373576040517f08c379a000000000000000000000000000000000000000000000000000000000815260040161136a90614193565b60405180910390fd5b600360008373ffffffffffffffffffffffffffffffffffffffff1673ffffffffffffffffffffffffffffffffffffffff168152602001908152602001600020549050919050565b6113c2611bda565b6113cc6000612102565b565b6000600a60009054906101000a900473ffffffffffffffffffffffffffffffffffffffff16905090565b600d8054611405906138f4565b80601f0160208091040260200160405190810160405280929190818152602001828054611431906138f4565b801561147e5780601f106114535761010080835404028352916020019161147e565b820191906000526020600020905b81548152906001019060200180831161146157829003601f168201915b505050505081565b606060018054611495906138f4565b80601f01602080910402602001604051908101604052809291908181526020018280546114c1906138f4565b801561150e5780601f106114e35761010080835404028352916020019161150e565b820191906000526020600020905b8154815290600101906020018083116114f157829003601f168201915b5050505050905090565b61152a611523611c58565b83836121c8565b5050565b60126020528060005260406000206000915054906101000a900460ff1681565b611556611bda565b60005b81518110156115e75760016012600084848151811061157b5761157a613ff4565b5b602002602001015173ffffffffffffffffffffffffffffffffffffffff1673ffffffffffffffffffffffffffffffffffffffff16815260200190815260200160002060006101000a81548160ff02191690831515021790555080806115df90613fac565b915050611559565b5050565b6115fc6115f6611c58565b83611d19565b61163b576040517f08c379a000000000000000000000000000000000000000000000000000000000815260040161163290613abb565b60405180910390fd5b61164784848484612334565b50505050565b600c805461165a906138f4565b80601f0160208091040260200160405190810160405280929190818152602001828054611686906138f4565b80156116d35780601f106116a8576101008083540402835291602001916116d3565b820191906000526020600020905b8154815290600101906020018083116116b657829003601f168201915b505050505081565b60606116e682612390565b611725576040517f08c379a000000000000000000000000000000000000000000000000000000000815260040161171c90614225565b60405180910390fd5b600061172f6123d1565b9050600081511161174f5760405180602001604052806000815250611780565b80600d61175b85612463565b600c6040516020016117709493929190614315565b6040516020818303038152906040525b915050919050565b600f5481565b611796611bda565b80600c90805190602001906117ac929190612f57565b5050565b6117b8611bda565b60005b8151811015611849576000601260008484815181106117dd576117dc613ff4565b5b602002602001015173ffffffffffffffffffffffffffffffffffffffff1673ffffffffffffffffffffffffffffffffffffffff16815260200190815260200160002060006101000a81548160ff021916908315150217905550808061184190613fac565b9150506117bb565b5050565b6000600560008473ffffffffffffffffffffffffffffffffffffffff1673ffffffffffffffffffffffffffffffffffffffff16815260200190815260200160002060008373ffffffffffffffffffffffffffffffffffffffff1673ffffffffffffffffffffffffffffffffffffffff16815260200190815260200160002060009054906101000a900460ff16905092915050565b6118e9611bda565b600073ffffffffffffffffffffffffffffffffffffffff168173ffffffffffffffffffffffffffffffffffffffff1603611958576040517f08c379a000000000000000000000000000000000000000000000000000000000815260040161194f906143c5565b60405180910390fd5b61196181612102565b50565b6000808273ffffffffffffffffffffffffffffffffffffffff163b119050919050565b6001811115611aa757600073ffffffffffffffffffffffffffffffffffffffff168473ffffffffffffffffffffffffffffffffffffffff1614611a1b5780600360008673ffffffffffffffffffffffffffffffffffffffff1673ffffffffffffffffffffffffffffffffffffffff1681526020019081526020016000206000828254611a1391906143e5565b925050819055505b600073ffffffffffffffffffffffffffffffffffffffff168373ffffffffffffffffffffffffffffffffffffffff1614611aa65780600360008573ffffffffffffffffffffffffffffffffffffffff1673ffffffffffffffffffffffffffffffffffffffff1681526020019081526020016000206000828254611a9e9190613d92565b925050819055505b5b50505050565b60007f80ac58cd000000000000000000000000000000000000000000000000000000007bffffffffffffffffffffffffffffffffffffffffffffffffffffffff1916827bffffffffffffffffffffffffffffffffffffffffffffffffffffffff19161480611b7857507f5b5e139f000000000000000000000000000000000000000000000000000000007bffffffffffffffffffffffffffffffffffffffffffffffffffffffff1916827bffffffffffffffffffffffffffffffffffffffffffffffffffffffff1916145b80611b885750611b8782612531565b5b9050919050565b611b9881612390565b611bd7576040517f08c379a0000000000000000000000000000000000000000000000000000000008152600401611bce90614101565b60405180910390fd5b50565b611be2611c58565b73ffffffffffffffffffffffffffffffffffffffff16611c006113ce565b73ffffffffffffffffffffffffffffffffffffffff1614611c56576040517f08c379a0000000000000000000000000000000000000000000000000000000008152600401611c4d90614465565b60405180910390fd5b565b600033905090565b816004600083815260200190815260200160002060006101000a81548173ffffffffffffffffffffffffffffffffffffffff021916908373ffffffffffffffffffffffffffffffffffffffff160217905550808273ffffffffffffffffffffffffffffffffffffffff16611cd3836111ef565b73ffffffffffffffffffffffffffffffffffffffff167f8c5be1e5ebec7d5bd14f71427d1e84f3dd0314c0f7b2291e5b200ac8c7c3b92560405160405180910390a45050565b600080611d25836111ef565b90508073ffffffffffffffffffffffffffffffffffffffff168473ffffffffffffffffffffffffffffffffffffffff161480611d675750611d66818561184d565b5b80611da557508373ffffffffffffffffffffffffffffffffffffffff16611d8d846109b8565b73ffffffffffffffffffffffffffffffffffffffff16145b91505092915050565b8273ffffffffffffffffffffffffffffffffffffffff16611dce826111ef565b73ffffffffffffffffffffffffffffffffffffffff1614611e24576040517f08c379a0000000000000000000000000000000000000000000000000000000008152600401611e1b906144f7565b60405180910390fd5b600073ffffffffffffffffffffffffffffffffffffffff168273ffffffffffffffffffffffffffffffffffffffff1603611e93576040517f08c379a0000000000000000000000000000000000000000000000000000000008152600401611e8a90614589565b60405180910390fd5b611ea0838383600161259b565b8273ffffffffffffffffffffffffffffffffffffffff16611ec0826111ef565b73ffffffffffffffffffffffffffffffffffffffff1614611f16576040517f08c379a0000000000000000000000000000000000000000000000000000000008152600401611f0d906144f7565b60405180910390fd5b6004600082815260200190815260200160002060006101000a81549073ffffffffffffffffffffffffffffffffffffffff02191690556001600360008573ffffffffffffffffffffffffffffffffffffffff1673ffffffffffffffffffffffffffffffffffffffff168152602001908152602001600020600082825403925050819055506001600360008473ffffffffffffffffffffffffffffffffffffffff1673ffffffffffffffffffffffffffffffffffffffff16815260200190815260200160002060008282540192505081905550816002600083815260200190815260200160002060006101000a81548173ffffffffffffffffffffffffffffffffffffffff021916908373ffffffffffffffffffffffffffffffffffffffff160217905550808273ffffffffffffffffffffffffffffffffffffffff168473ffffffffffffffffffffffffffffffffffffffff167fddf252ad1be2c89b69c2b068fc378daa952ba7f163c4a11628f55a4df523b3ef60405160405180910390a46120a283838360016126f9565b505050565b6120c18282604051806020016040528060008152506126ff565b5050565b60006002600083815260200190815260200160002060009054906101000a900473ffffffffffffffffffffffffffffffffffffffff169050919050565b6000600a60009054906101000a900473ffffffffffffffffffffffffffffffffffffffff16905081600a60006101000a81548173ffffffffffffffffffffffffffffffffffffffff021916908373ffffffffffffffffffffffffffffffffffffffff1602179055508173ffffffffffffffffffffffffffffffffffffffff168173ffffffffffffffffffffffffffffffffffffffff167f8be0079c531659141344cd1fd0a4f28419497f9722a3daafe3b4186f6b6457e060405160405180910390a35050565b8173ffffffffffffffffffffffffffffffffffffffff168373ffffffffffffffffffffffffffffffffffffffff1603612236576040517f08c379a000000000000000000000000000000000000000000000000000000000815260040161222d906145f5565b60405180910390fd5b80600560008573ffffffffffffffffffffffffffffffffffffffff1673ffffffffffffffffffffffffffffffffffffffff16815260200190815260200160002060008473ffffffffffffffffffffffffffffffffffffffff1673ffffffffffffffffffffffffffffffffffffffff16815260200190815260200160002060006101000a81548160ff0219169083151502179055508173ffffffffffffffffffffffffffffffffffffffff168373ffffffffffffffffffffffffffffffffffffffff167f17307eab39ab6107e8899845ad3d59bd9653f200f220920489ca2b5937696c318360405161232791906130ae565b60405180910390a3505050565b61233f848484611dae565b61234b8484848461275a565b61238a576040517f08c379a000000000000000000000000000000000000000000000000000000000815260040161238190614687565b60405180910390fd5b50505050565b60008073ffffffffffffffffffffffffffffffffffffffff166123b2836120c5565b73ffffffffffffffffffffffffffffffffffffffff1614159050919050565b6060600b80546123e0906138f4565b80601f016020809104026020016040519081016040528092919081815260200182805461240c906138f4565b80156124595780601f1061242e57610100808354040283529160200191612459565b820191906000526020600020905b81548152906001019060200180831161243c57829003601f168201915b5050505050905090565b606060006001612472846128e1565b01905060008167ffffffffffffffff81111561249157612490613443565b5b6040519080825280601f01601f1916602001820160405280156124c35781602001600182028036833780820191505090505b509050600082602001820190505b600115612526578080600190039150507f3031323334353637383961626364656600000000000000000000000000000000600a86061a8153600a858161251a576125196146a7565b5b049450600085036124d1575b819350505050919050565b60007f01ffc9a7000000000000000000000000000000000000000000000000000000007bffffffffffffffffffffffffffffffffffffffffffffffffffffffff1916827bffffffffffffffffffffffffffffffffffffffffffffffffffffffff1916149050919050565b6125a784848484611987565b60018111156125eb576040517f08c379a00000000000000000000000000000000000000000000000000000000081526004016125e290614748565b60405180910390fd5b6000829050600073ffffffffffffffffffffffffffffffffffffffff168573ffffffffffffffffffffffffffffffffffffffff16036126325761262d81612a34565b612671565b8373ffffffffffffffffffffffffffffffffffffffff168573ffffffffffffffffffffffffffffffffffffffff16146126705761266f8582612a7d565b5b5b600073ffffffffffffffffffffffffffffffffffffffff168473ffffffffffffffffffffffffffffffffffffffff16036126b3576126ae81612bea565b6126f2565b8473ffffffffffffffffffffffffffffffffffffffff168473ffffffffffffffffffffffffffffffffffffffff16146126f1576126f08482612cbb565b5b5b5050505050565b50505050565b6127098383612d3a565b612716600084848461275a565b612755576040517f08c379a000000000000000000000000000000000000000000000000000000000815260040161274c90614687565b60405180910390fd5b505050565b600061277b8473ffffffffffffffffffffffffffffffffffffffff16611964565b156128d4578373ffffffffffffffffffffffffffffffffffffffff1663150b7a026127a4611c58565b8786866040518563ffffffff1660e01b81526004016127c694939291906147bd565b6020604051808303816000875af192505050801561280257506040513d601f19601f820116820180604052508101906127ff919061481e565b60015b612884573d8060008114612832576040519150601f19603f3d011682016040523d82523d6000602084013e612837565b606091505b50600081510361287c576040517f08c379a000000000000000000000000000000000000000000000000000000000815260040161287390614687565b60405180910390fd5b805181602001fd5b63150b7a0260e01b7bffffffffffffffffffffffffffffffffffffffffffffffffffffffff1916817bffffffffffffffffffffffffffffffffffffffffffffffffffffffff1916149150506128d9565b600190505b949350505050565b600080600090507a184f03e93ff9f4daa797ed6e38ed64bf6a1f010000000000000000831061293f577a184f03e93ff9f4daa797ed6e38ed64bf6a1f0100000000000000008381612935576129346146a7565b5b0492506040810190505b6d04ee2d6d415b85acef8100000000831061297c576d04ee2d6d415b85acef81000000008381612972576129716146a7565b5b0492506020810190505b662386f26fc1000083106129ab57662386f26fc1000083816129a1576129a06146a7565b5b0492506010810190505b6305f5e10083106129d4576305f5e10083816129ca576129c96146a7565b5b0492506008810190505b61271083106129f95761271083816129ef576129ee6146a7565b5b0492506004810190505b60648310612a1c5760648381612a1257612a116146a7565b5b0492506002810190505b600a8310612a2b576001810190505b80915050919050565b6008805490506009600083815260200190815260200160002081905550600881908060018154018082558091505060019003906000526020600020016000909190919091505550565b60006001612a8a84611303565b612a9491906143e5565b9050600060076000848152602001908152602001600020549050818114612b79576000600660008673ffffffffffffffffffffffffffffffffffffffff1673ffffffffffffffffffffffffffffffffffffffff168152602001908152602001600020600084815260200190815260200160002054905080600660008773ffffffffffffffffffffffffffffffffffffffff1673ffffffffffffffffffffffffffffffffffffffff168152602001908152602001600020600084815260200190815260200160002081905550816007600083815260200190815260200160002081905550505b6007600084815260200190815260200160002060009055600660008573ffffffffffffffffffffffffffffffffffffffff1673ffffffffffffffffffffffffffffffffffffffff16815260200190815260200160002060008381526020019081526020016000206000905550505050565b60006001600880549050612bfe91906143e5565b9050600060096000848152602001908152602001600020549050600060088381548110612c2e57612c2d613ff4565b5b906000526020600020015490508060088381548110612c5057612c4f613ff4565b5b906000526020600020018190555081600960008381526020019081526020016000208190555060096000858152602001908152602001600020600090556008805480612c9f57612c9e61484b565b5b6001900381819060005260206000200160009055905550505050565b6000612cc683611303565b905081600660008573ffffffffffffffffffffffffffffffffffffffff1673ffffffffffffffffffffffffffffffffffffffff168152602001908152602001600020600083815260200190815260200160002081905550806007600084815260200190815260200160002081905550505050565b600073ffffffffffffffffffffffffffffffffffffffff168273ffffffffffffffffffffffffffffffffffffffff1603612da9576040517f08c379a0000000000000000000000000000000000000000000000000000000008152600401612da0906148c6565b60405180910390fd5b612db281612390565b15612df2576040517f08c379a0000000000000000000000000000000000000000000000000000000008152600401612de990614932565b60405180910390fd5b612e0060008383600161259b565b612e0981612390565b15612e49576040517f08c379a0000000000000000000000000000000000000000000000000000000008152600401612e4090614932565b60405180910390fd5b6001600360008473ffffffffffffffffffffffffffffffffffffffff1673ffffffffffffffffffffffffffffffffffffffff16815260200190815260200160002060008282540192505081905550816002600083815260200190815260200160002060006101000a81548173ffffffffffffffffffffffffffffffffffffffff021916908373ffffffffffffffffffffffffffffffffffffffff160217905550808273ffffffffffffffffffffffffffffffffffffffff16600073ffffffffffffffffffffffffffffffffffffffff167fddf252ad1be2c89b69c2b068fc378daa952ba7f163c4a11628f55a4df523b3ef60405160405180910390a4612f536000838360016126f9565b5050565b828054612f63906138f4565b90600052602060002090601f016020900481019282612f855760008555612fcc565b82601f10612f9e57805160ff1916838001178555612fcc565b82800160010185558215612fcc579182015b82811115612fcb578251825591602001919060010190612fb0565b5b509050612fd99190612fdd565b5090565b5b80821115612ff6576000816000905550600101612fde565b5090565b6000604051905090565b600080fd5b600080fd5b60007fffffffff0000000000000000000000000000000000000000000000000000000082169050919050565b6130438161300e565b811461304e57600080fd5b50565b6000813590506130608161303a565b92915050565b60006020828403121561307c5761307b613004565b5b600061308a84828501613051565b91505092915050565b60008115159050919050565b6130a881613093565b82525050565b60006020820190506130c3600083018461309f565b92915050565b600081519050919050565b600082825260208201905092915050565b60005b838110156131035780820151818401526020810190506130e8565b83811115613112576000848401525b50505050565b6000601f19601f8301169050919050565b6000613134826130c9565b61313e81856130d4565b935061314e8185602086016130e5565b61315781613118565b840191505092915050565b6000602082019050818103600083015261317c8184613129565b905092915050565b6000819050919050565b61319781613184565b81146131a257600080fd5b50565b6000813590506131b48161318e565b92915050565b6000602082840312156131d0576131cf613004565b5b60006131de848285016131a5565b91505092915050565b600073ffffffffffffffffffffffffffffffffffffffff82169050919050565b6000613212826131e7565b9050919050565b61322281613207565b82525050565b600060208201905061323d6000830184613219565b92915050565b61324c81613207565b811461325757600080fd5b50565b60008135905061326981613243565b92915050565b6000806040838503121561328657613285613004565b5b60006132948582860161325a565b92505060206132a5858286016131a5565b9150509250929050565b6132b881613184565b82525050565b60006020820190506132d360008301846132af565b92915050565b6000806000606084860312156132f2576132f1613004565b5b60006133008682870161325a565b93505060206133118682870161325a565b9250506040613322868287016131a5565b9150509250925092565b60006020828403121561334257613341613004565b5b60006133508482850161325a565b91505092915050565b600081519050919050565b600082825260208201905092915050565b6000819050602082019050919050565b61338e81613184565b82525050565b60006133a08383613385565b60208301905092915050565b6000602082019050919050565b60006133c482613359565b6133ce8185613364565b93506133d983613375565b8060005b8381101561340a5781516133f18882613394565b97506133fc836133ac565b9250506001810190506133dd565b5085935050505092915050565b6000602082019050818103600083015261343181846133b9565b905092915050565b600080fd5b600080fd5b7f4e487b7100000000000000000000000000000000000000000000000000000000600052604160045260246000fd5b61347b82613118565b810181811067ffffffffffffffff8211171561349a57613499613443565b5b80604052505050565b60006134ad612ffa565b90506134b98282613472565b919050565b600067ffffffffffffffff8211156134d9576134d8613443565b5b6134e282613118565b9050602081019050919050565b82818337600083830152505050565b600061351161350c846134be565b6134a3565b90508281526020810184848401111561352d5761352c61343e565b5b6135388482856134ef565b509392505050565b600082601f83011261355557613554613439565b5b81356135658482602086016134fe565b91505092915050565b60006020828403121561358457613583613004565b5b600082013567ffffffffffffffff8111156135a2576135a1613009565b5b6135ae84828501613540565b91505092915050565b6135c081613093565b81146135cb57600080fd5b50565b6000813590506135dd816135b7565b92915050565b6000602082840312156135f9576135f8613004565b5b6000613607848285016135ce565b91505092915050565b6000806040838503121561362757613626613004565b5b60006136358582860161325a565b9250506020613646858286016135ce565b9150509250929050565b600067ffffffffffffffff82111561366b5761366a613443565b5b602082029050602081019050919050565b600080fd5b600061369461368f84613650565b6134a3565b905080838252602082019050602084028301858111156136b7576136b661367c565b5b835b818110156136e057806136cc888261325a565b8452602084019350506020810190506136b9565b5050509392505050565b600082601f8301126136ff576136fe613439565b5b813561370f848260208601613681565b91505092915050565b60006020828403121561372e5761372d613004565b5b600082013567ffffffffffffffff81111561374c5761374b613009565b5b613758848285016136ea565b91505092915050565b600067ffffffffffffffff82111561377c5761377b613443565b5b61378582613118565b9050602081019050919050565b60006137a56137a084613761565b6134a3565b9050828152602081018484840111156137c1576137c061343e565b5b6137cc8482856134ef565b509392505050565b600082601f8301126137e9576137e8613439565b5b81356137f9848260208601613792565b91505092915050565b6000806000806080858703121561381c5761381b613004565b5b600061382a8782880161325a565b945050602061383b8782880161325a565b935050604061384c878288016131a5565b925050606085013567ffffffffffffffff81111561386d5761386c613009565b5b613879878288016137d4565b91505092959194509250565b6000806040838503121561389c5761389b613004565b5b60006138aa8582860161325a565b92505060206138bb8582860161325a565b9150509250929050565b7f4e487b7100000000000000000000000000000000000000000000000000000000600052602260045260246000fd5b6000600282049050600182168061390c57607f821691505b60208210810361391f5761391e6138c5565b5b50919050565b7f4552433732313a20617070726f76616c20746f2063757272656e74206f776e6560008201527f7200000000000000000000000000000000000000000000000000000000000000602082015250565b60006139816021836130d4565b915061398c82613925565b604082019050919050565b600060208201905081810360008301526139b081613974565b9050919050565b7f4552433732313a20617070726f76652063616c6c6572206973206e6f7420746f60008201527f6b656e206f776e6572206f7220617070726f76656420666f7220616c6c000000602082015250565b6000613a13603d836130d4565b9150613a1e826139b7565b604082019050919050565b60006020820190508181036000830152613a4281613a06565b9050919050565b7f4552433732313a2063616c6c6572206973206e6f7420746f6b656e206f776e6560008201527f72206f7220617070726f76656400000000000000000000000000000000000000602082015250565b6000613aa5602d836130d4565b9150613ab082613a49565b604082019050919050565b60006020820190508181036000830152613ad481613a98565b9050919050565b7f455243373231456e756d657261626c653a206f776e657220696e646578206f7560008201527f74206f6620626f756e6473000000000000000000000000000000000000000000602082015250565b6000613b37602b836130d4565b9150613b4282613adb565b604082019050919050565b60006020820190508181036000830152613b6681613b2a565b9050919050565b600081905092915050565b50565b6000613b88600083613b6d565b9150613b9382613b78565b600082019050919050565b6000613ba982613b7b565b9150819050919050565b7f5472616e73666572206661696c65642e00000000000000000000000000000000600082015250565b6000613be96010836130d4565b9150613bf482613bb3565b602082019050919050565b60006020820190508181036000830152613c1881613bdc565b9050919050565b7f436f6e7472616374206973207061757365640000000000000000000000000000600082015250565b6000613c556012836130d4565b9150613c6082613c1f565b602082019050919050565b60006020820190508181036000830152613c8481613c48565b9050919050565b7f4d757374206d696e74206174206c656173742031000000000000000000000000600082015250565b6000613cc16014836130d4565b9150613ccc82613c8b565b602082019050919050565b60006020820190508181036000830152613cf081613cb4565b9050919050565b7f43616e6e6f74206d696e74206d6f7265207468616e203130206174206f6e6365600082015250565b6000613d2d6020836130d4565b9150613d3882613cf7565b602082019050919050565b60006020820190508181036000830152613d5c81613d20565b9050919050565b7f4e487b7100000000000000000000000000000000000000000000000000000000600052601160045260246000fd5b6000613d9d82613184565b9150613da883613184565b9250827fffffffffffffffffffffffffffffffffffffffffffffffffffffffffffffffff03821115613ddd57613ddc613d63565b5b828201905092915050565b7f4d696e7420616d6f756e742065786365656473206d617820737570706c790000600082015250565b6000613e1e601e836130d4565b9150613e2982613de8565b602082019050919050565b60006020820190508181036000830152613e4d81613e11565b9050919050565b7f416c6c6f776c697374206d656d626572732063616e206f6e6c79206d696e742060008201527f3120426c6f625374617200000000000000000000000000000000000000000000602082015250565b6000613eb0602a836130d4565b9150613ebb82613e54565b604082019050919050565b60006020820190508181036000830152613edf81613ea3565b9050919050565b6000613ef182613184565b9150613efc83613184565b9250817fffffffffffffffffffffffffffffffffffffffffffffffffffffffffffffffff0483118215151615613f3557613f34613d63565b5b828202905092915050565b7f4e6f7420656e6f756768204554482073656e7400000000000000000000000000600082015250565b6000613f766013836130d4565b9150613f8182613f40565b602082019050919050565b60006020820190508181036000830152613fa581613f69565b9050919050565b6000613fb782613184565b91507fffffffffffffffffffffffffffffffffffffffffffffffffffffffffffffffff8203613fe957613fe8613d63565b5b600182019050919050565b7f4e487b7100000000000000000000000000000000000000000000000000000000600052603260045260246000fd5b7f455243373231456e756d657261626c653a20676c6f62616c20696e646578206f60008201527f7574206f6620626f756e64730000000000000000000000000000000000000000602082015250565b600061407f602c836130d4565b915061408a82614023565b604082019050919050565b600060208201905081810360008301526140ae81614072565b9050919050565b7f4552433732313a20696e76616c696420746f6b656e2049440000000000000000600082015250565b60006140eb6018836130d4565b91506140f6826140b5565b602082019050919050565b6000602082019050818103600083015261411a816140de565b9050919050565b7f4552433732313a2061646472657373207a65726f206973206e6f74206120766160008201527f6c6964206f776e65720000000000000000000000000000000000000000000000602082015250565b600061417d6029836130d4565b915061418882614121565b604082019050919050565b600060208201905081810360008301526141ac81614170565b9050919050565b7f4552433732314d657461646174613a2055524920717565727920666f72206e6f60008201527f6e6578697374656e7420746f6b656e0000000000000000000000000000000000602082015250565b600061420f602f836130d4565b915061421a826141b3565b604082019050919050565b6000602082019050818103600083015261423e81614202565b9050919050565b600081905092915050565b600061425b826130c9565b6142658185614245565b93506142758185602086016130e5565b80840191505092915050565b60008190508160005260206000209050919050565b600081546142a3816138f4565b6142ad8186614245565b945060018216600081146142c857600181146142d95761430c565b60ff1983168652818601935061430c565b6142e285614281565b60005b83811015614304578154818901526001820191506020810190506142e5565b838801955050505b50505092915050565b60006143218287614250565b915061432d8286614296565b91506143398285614250565b91506143458284614296565b915081905095945050505050565b7f4f776e61626c653a206e6577206f776e657220697320746865207a65726f206160008201527f6464726573730000000000000000000000000000000000000000000000000000602082015250565b60006143af6026836130d4565b91506143ba82614353565b604082019050919050565b600060208201905081810360008301526143de816143a2565b9050919050565b60006143f082613184565b91506143fb83613184565b92508282101561440e5761440d613d63565b5b828203905092915050565b7f4f776e61626c653a2063616c6c6572206973206e6f7420746865206f776e6572600082015250565b600061444f6020836130d4565b915061445a82614419565b602082019050919050565b6000602082019050818103600083015261447e81614442565b9050919050565b7f4552433732313a207472616e736665722066726f6d20696e636f72726563742060008201527f6f776e6572000000000000000000000000000000000000000000000000000000602082015250565b60006144e16025836130d4565b91506144ec82614485565b604082019050919050565b60006020820190508181036000830152614510816144d4565b9050919050565b7f4552433732313a207472616e7366657220746f20746865207a65726f2061646460008201527f7265737300000000000000000000000000000000000000000000000000000000602082015250565b60006145736024836130d4565b915061457e82614517565b604082019050919050565b600060208201905081810360008301526145a281614566565b9050919050565b7f4552433732313a20617070726f766520746f2063616c6c657200000000000000600082015250565b60006145df6019836130d4565b91506145ea826145a9565b602082019050919050565b6000602082019050818103600083015261460e816145d2565b9050919050565b7f4552433732313a207472616e7366657220746f206e6f6e20455243373231526560008201527f63656976657220696d706c656d656e7465720000000000000000000000000000602082015250565b60006146716032836130d4565b915061467c82614615565b604082019050919050565b600060208201905081810360008301526146a081614664565b9050919050565b7f4e487b7100000000000000000000000000000000000000000000000000000000600052601260045260246000fd5b7f455243373231456e756d657261626c653a20636f6e736563757469766520747260008201527f616e7366657273206e6f7420737570706f727465640000000000000000000000602082015250565b60006147326035836130d4565b915061473d826146d6565b604082019050919050565b6000602082019050818103600083015261476181614725565b9050919050565b600081519050919050565b600082825260208201905092915050565b600061478f82614768565b6147998185614773565b93506147a98185602086016130e5565b6147b281613118565b840191505092915050565b60006080820190506147d26000830187613219565b6147df6020830186613219565b6147ec60408301856132af565b81810360608301526147fe8184614784565b905095945050505050565b6000815190506148188161303a565b92915050565b60006020828403121561483457614833613004565b5b600061484284828501614809565b91505092915050565b7f4e487b7100000000000000000000000000000000000000000000000000000000600052603160045260246000fd5b7f4552433732313a206d696e7420746f20746865207a65726f2061646472657373600082015250565b60006148b06020836130d4565b91506148bb8261487a565b602082019050919050565b600060208201905081810360008301526148df816148a3565b9050919050565b7f4552433732313a20746f6b656e20616c7265616479206d696e74656400000000600082015250565b600061491c601c836130d4565b9150614927826148e6565b602082019050919050565b6000602082019050818103600083015261494b8161490f565b905091905056fea2646970667358221220409bfc0a5786e25793dca73fa2db0b74a030f716529f1c24075df7df1e6d75db64736f6c634300080d0033",
  "linkReferences": {},
  "deployedLinkReferences": {}
}